:020000040800F2
:1000000038090020391B0008251B0008271B0008A1
:10001000291B00082B1B00082D1B000800000000F6
:100020000000000000000000000000002F1B00087E
:10003000311B000800000000331B0008351B0008BE
:10004000791B00087D1B0008811B0008851B000828
:10005000891B00088D1B0008911B0008951B0008D8
:10006000991B00089D1B0008A11B0008A51B000888
:10007000A91B0008AD1B0008B11B0008B51B000838
:10008000B91B0008BD1B0008C11B0008C51B0008E8
:10009000C91B0008CD1B0008D11B0008D51B000898
:1000A000D91B0008DD1B0008E11B0008E51B000848
:1000B000E91B0008ED1B0008F11B0008F51B0008F8
:1000C000F91B0008FD1B0008011C0008051C0008A6
:1000D000091C00080D1C0008111C0008151C000854
:1000E000191C00081D1C0008211C0008251C000804
:1000F000291C00082D1C0008311C0008351C0008B4
:10010000391C00083D1C0008411C0008451C000863
:10011000491C00084D1C0008511C0008551C000813
:10012000591C00085D1C0008611C0008651C0008C3
:10013000691C00086D1C0008711C0008751C000873
:10014000791C00087D1C0008811C0008851C000823
:10015000891C00088D1C0008911C0008951C0008D3
:10016000991C00089D1C0008A11C0008A51C000883
:10017000A91C0008AD1C0008B11C0008B51C000833
:10018000B91C0008BD1C000830B583B000A80FF2F0
:10019000B4110A2200F0BCFB0FF2B41000F095FC81
:1001A000654C204600F0A8FC0546012D19DB0FF236
:1001B000DC1000F08AFC04F5806000F086FC294623
:1001C00000A800F0E7FB0FF2182000F07EFC00A86A
:1001D00000F07BFC0FF2142000F077FC0FF21820E7
:1001E00012E015F1010F08BF0FF224200CD015F119
:1001F000020F08BF0FF2582006D015F1030F0CBFF5
:100200000FF268200FF27C2000F05FFC03B030BDDD
:1002100080B50FF2902000F058FC00F03EFC43281F
:1002200010D10FF29C2145484FF47C2200F0E4FDF0
:10023000002814BF0FF2A0200FF2C820BDE8024032
:1002400000F043BC01BD38B50FF2D824204600F0C1
:100250003CFC0FF21C3000F038FC0FF260352846F1
:1002600000F033FC0FF2A03000F02FFC284600F025
:100270002CFC0FF2E03000F028FC204600F025FCBA
:100280000FF21C4000F021FC2D4C00F011FF401E2D
:100290008041C00FA06001E0FFF776FF0FF2084039
:1002A00000F013FC0FF2404000F00FFC0FF278401A
:1002B00000F00BFC0FF2B04000F007FCA06818B192
:1002C0000FF2E44000F001FC0FF21C5000F0FDFBC7
:1002D00000F0E3FB3128DFD0322802D1FFF798FF8E
:1002E000DCE7332809D11548416861602160006866
:1002F00080F3088808468047D0E7342804BFA06808
:10030000012811D100F0E5FE012802D0022806D014
:10031000C4E70FF2145000F0D8FB0020BAE70FF248
:10032000285000F0D2FBB9E7A068002814BF0FF2F4
:1003300080500FF24050F4E72800002000400008F1
:100340002805002020202020202020202020000020
:1003500057616974696E6720666F722074686520E2
:1003600066696C6520746F2062652073656E742009
:100370002E2E2E202870726573732027612720741B
:100380006F2061626F7274290A0D00000A0A0D2045
:1003900050726F6772616D6D696E6720436F6D702B
:1003A0006C65746564205375636365737366756CFF
:1003B0006C79210A0D2D2D2D2D2D2D2D2D2D2D2D31
:1003C0002D2D2D2D2D2D2D2D2D2D2D2D2D2D2D2D5D
:1003D0002D2D2D2D2D0D0A204E616D653A2000002A
:1003E0000A0D2053697A653A200000002042797492
:1003F00065730D0A000000002D2D2D2D2D2D2D2DA6
:100400002D2D2D2D2D2D2D2D2D2D2D0A00000000F3
:100410000A0A0D54686520696D6167652073697A01
:100420006520697320686967686572207468616E09
:100430002074686520616C6C6F77656420737061EF
:100440006365206D656D6F7279210A0D00000000F3
:100450000A0A0D566572696669636174696F6E2078
:100460006661696C6564210A0D0000000D0A0A418D
:10047000626F7274656420627920757365722E0AEA
:100480000D0000000A0D4661696C656420746F20E0
:1004900072656365697665207468652066696C6558
:1004A000210A0D000A0A0D53656C656374205265BC
:1004B00063656976652046696C650A0D0000000079
:1004C00055706C6F61646564466C617368496D61F9
:1004D00067652E62696E00000A0D4572726F7220A8
:1004E0004F63637572726564207768696C65205428
:1004F00072616E736D697474696E672046696C65AC
:100500000A0D00000A0D46696C652075706C6F61FC
:10051000646564207375636365737366756C6C7969
:10052000200A0D000D0A3D3D3D3D3D3D3D3D3D3D1B
:100530003D3D3D3D3D3D3D3D3D3D3D3D3D3D3D3DEB
:100540003D3D3D3D3D3D3D3D3D3D3D3D3D3D3D3DDB
:100550003D3D3D3D3D3D3D3D3D3D3D3D3D3D3D3DCB
:100560003D3D3D3D3D3D3D3D3D3D3D3D00000000AF
:100570000D0A3D2020202020202020202020202087
:100580002028432920434F5059524947485420328C
:100590003031312053544D6963726F656C656374FB
:1005A000726F6E696373202020202020202020207D
:1005B000202020202020203D000000000D0A3D20AA
:1005C000202020202020202020202020202020202B
:1005D000202020202020202020202020202020201B
:1005E000202020202020202020202020202020200B
:1005F00020202020202020202020202020202020FB
:100600002020203D000000000D0A3D202053544DC5
:1006100033324634787820496E2D4170706C6963AE
:100620006174696F6E2050726F6772616D6D696E73
:1006300067204170706C69636174696F6E20202857
:1006400056657273696F6E20312E302E3029203D31
:10065000000000000D0A3D20202020202020202026
:10066000202020202020202020202020202020208A
:10067000202020202020202020204279204D43448B
:10068000204170706C69636174696F6E205465619C
:100690006D202020202020202020203D0000000070
:1006A0000D0A0D0A000000000D0A3D3D3D3D3D3D97
:1006B0003D3D3D3D3D3D3D3D3D3D3D3D204D616927
:1006C0006E204D656E75203D3D3D3D3D3D3D3D3DC2
:1006D0003D3D3D3D3D3D3D3D3D3D3D3D3D3D3D3D4A
:1006E0003D3D3D0D0A0A00002020446F776E6C6F7F
:1006F000616420496D61676520546F2074686520CE
:1007000053544D33324634787820496E7465726E96
:10071000616C20466C617368202D2D2D2D2D2D2DA3
:1007200020310D0A0A000000202055706C6F6164B2
:1007300020496D6167652046726F6D207468652081
:1007400053544D33324634787820496E7465726E56
:10075000616C20466C617368202D2D2D2D2D2D2D63
:1007600020320D0A0A000000202045786563757468
:100770006520546865204E65772050726F677261FE
:100780006D202D2D2D2D2D2D2D2D2D2D2D2D2D2D66
:100790002D2D2D2D2D2D2D2D2D2D2D2D2D2D2D2D89
:1007A00020330D0A0A000000202044697361626C46
:1007B00065207468652077726974652070726F7443
:1007C000656374696F6E202D2D2D2D2D2D2D2D2DF2
:1007D0002D2D2D2D2D2D2D2D2D2D2D2D2D2D2D2D49
:1007E00020340D0A0A0000003D3D3D3D3D3D3D3DAC
:1007F0003D3D3D3D3D3D3D3D3D3D3D3D3D3D3D3D29
:100800003D3D3D3D3D3D3D3D3D3D3D3D3D3D3D3D18
:100810003D3D3D3D3D3D3D3D3D3D3D3D3D3D3D3D08
:100820003D3D0D0A0A000000577269746520507240
:100830006F74656374696F6E2064697361626C655F
:10084000642E2E2E0D0A00004572726F723A2046F9
:100850006C61736820777269746520756E70726F51
:1008600074656374696F6E206661696C65642E2EB1
:100870002E0D0A00496E76616C6964204E756D62BA
:1008800065722021203D3D3E20546865206E756DC7
:100890006265722073686F756C642062652065699B
:1008A0007468657220312C2032206F7220330D0065
:1008B000496E76616C6964204E756D6265722021A7
:1008C000203D3D3E20546865206E756D6265722046
:1008D00073686F756C642062652065697468657201
:1008E00020312C20322C2033206F7220340D000058
:1008F00062B38B0708D0521E11F8013B00F8013B90
:1009000000F024808B07F6D1830740F0208000BFE1
:10091000103A07D330B4B1E83810103AA0E83810D4
:10092000F9D230BC530724BFB1E80810A0E8081082
:1009300044BF51F8043B40F8043BD20724BF31F8D0
:10094000022B20F8022B44BF0B7803707047083A43
:1009500007D3B1E80810083A40F8043B40F804CB4C
:10096000F7D25307E4E710B450F8041B81B10268D2
:100970001218001D50F8043BDC0744BFA9F1010424
:10098000E31852F8044B43F8044B091FF9D1EBE785
:1009900010BC7047F0B4564A002300240A25B1FB6E
:1009A000F2F606F130071F5402FB16110A265B1CF3
:1009B000B2FBF6F21E1816F8016C302E06BF002CA2
:1009C0000023641C6D1EEAD1F0BC7047F0B40578BA
:1009D000002400221346302D2FD14578782D18BFE2
:1009E000582D2AD1847814B9F0BC00207047022415
:1009F000801C057815B90B6001221AE0A5F14107AA
:100A0000062F21BFA5F16106062EA5F130060A2E9C
:100A10000FD2A5F130060A2E38BF303D03D3062F82
:100A200034BF373D573D641C401C05EB03130B2CB2
:100A3000DFD30B2C22D3002220E0255C0DB90B6004
:100A40000EE02E466B2E18BF4B2E02D10CB1980231
:100A500005E06D2E18BF4D2E04D11CB1180508609D
:100A600001220BE0303D0A2D08D203EB8305A6F1ED
:100A70003003641C03EB45030B2CDED3F0BC1046A3
:100A8000704738B504461B4D2021284600F006FC6F
:100A900010B1A8882070012032BD10B5154C20215E
:100AA000204600F0FBFB0028F9D0A088C0B210BDA2
:100AB00010B5104C0146204600F0ECFB802120468A
:100AC00000F0ECFB0028F9D010BD38B50446094D04
:100AD00009E0284600F0DEFB8021284600F0DEFB1E
:100AE0000028F9D0641C21780029F2D131BD000022
:100AF00000CA9A3B004800402DE9F14FADF5856DE5
:100B000000200190002461480390029408AD02E0A7
:100B10000620FFF7CDFF002602E04320FFF7C8FFC5
:100B20004FF480180027C14600A8FFF7AAFFA9F1DB
:100B30000109012810D0B9F1000FF5D10298012860
:100B4000A8BF641C062CE8DB1820FFF7B1FF1820B3
:100B5000FFF7AEFF0020BCE09DF80000012825D083
:100B6000022820D004283FD018280CD0412818BFD4
:100B70006128E3D11820FFF79BFF1820FFF798FFAB
:100B80006FF00200A5E000A8FFF77BFFA8F10108C5
:100B9000012803D0B8F1000FF5D1CFE79DF8000090
:100BA0001828CBD126E04FF4806700E080278DF82D
:100BB00020000DF1210907F1040AC3464846FFF75A
:100BC00060FFABF1010B012803D0BBF1000FF5D1A1
:100BD000B4E709F10109BAF1010AEED1A978687800
:100BE00081F0FF018842A9D10024380090D0B7F1EC
:100BF000FF3F01D10620ABE76878F1B2884218BF09
:100C000015208BD1002E4CD1E878002844D000204C
:100C10000DF123011E4A04E011F8013B02F8013BEB
:100C2000401C0B780BB1FF28F6DD194A84540020D4
:100C3000491C04AA04E011F8013B02F8013B401CE6
:100C40000B78202B01D01028F5DB04A9445401A90E
:100C500004A8FFF7BBFE01980E49884208D318206C
:100C6000FFF726FF1820FFF723FF4FF0FF3030E09B
:100C7000064800F0E3F90620FFF71AFF4320FFF7CC
:100C800017FF0120761C02904AE700BF00400008D1
:100C90002804002002C00F000620FFF709FF01987A
:100CA00017E03A46DDF828040DF12301FFF720FE96
:100CB000DDF82814BA0803A800F0D3F908B9062013
:100CC000DDE71820FFF7F4FE1820FFF7F1FE6FF0C4
:100CD00001000DF22C4DBDE8F08F30B5044683B015
:100CE00001202070002500206070FF20A07004F219
:100CF000030005E011F8013B00F8013B6D1CADB2AB
:100D00000B780BB1FF2DF5DD28190021C17000A86B
:100D10001168FFF73FFE281D80B200A904E011F81A
:100D2000012B0255401C80B20A78002AF7D1832893
:100D300004DAC0F18301001900F0B8FA03B030BD45
:100D400078B40C46B3F5806F04D34FF48063194632
:100D5000022505E08021802B2CBF80239BB201253A
:100D600025706270D243A270DA1C042A08DB04F2F8
:100D700003021D4610F8016B02F8016B6D1EF9D1DC
:100D800099420ADBDB1C9BB2CA1CD11A934204DADB
:100D9000181978BC1A2200F08DBA71BC704741F462
:100DA000807141F2210240004900CB0548BF401C40
:100DB000C30348BF5040CB03F5D580B2704738B568
:100DC000044600200D1903E014F8011BFFF7E7FFAC
:100DD000AC42F9D30021FFF7E2FFBDE83440002127
:100DE000DDE738B504460D0005D014F8010BFFF718
:100DF0005FFE6D1EF9D131BD2DE9F44FADF5A26D49
:100E000006460025002001AA11F8013B02F8013B2B
:100E1000C01C11F8013B02F8013BFF2811F8013B0F
:100E200002F8013BF0D10DF5A26201A941A8FFF73C
:100E300054FF42F21078832141A8FFF7D2FF41A866
:100E40008021C01CFFF7BBFF0746000AFFF730FEFA
:100E5000F8B2FFF72DFE474600A8FFF712FE7F1EEF
:100E6000012807D0002FF7D16D1C0A2DE3D30A2DDE
:100E700005D3C3E09DF800000628F6D1F7E7DDF8BA
:100E800010750124002F52D03B46E2B241A93046F2
:100E9000FFF756FF00208DF800000025B7F5806FA2
:100EA0002CBF4FF480694FF0800909F103000DF564
:100EB000827A1FFA80FB1AF8010BFFF7F9FDBBF1EC
:100EC000010BF8D141A84946C01CFFF778FF8246C4
:100ED000000AFFF7EDFD5FFA8AF0FFF7E9FDDFF8A2
:100EE00024A000A8FFF7CDFDAAF1010A01280BD02C
:100EF000BAF1000FF5D16D1C0A2DCFD30A2DC1D345
:100F00007CE000BFA08601009DF800000628F2D119
:100F10004E44B94509D2A0B2A7EB0907B0F57C7FD2
:100F200018BF441CEAD1FF206BE00027E6E7002051
:100F30008DF8000000250420FFF7BAFD464600A802
:100F4000FFF79FFD761E012802D0002EF7D103E0A7
:100F50009DF80000062802D06D1C0A2DEBD30A2D47
:100F60004CD201208DF804010026FF208DF80601E7
:100F7000002541A88DF800608DF805518021C01C26
:100F800000F094F9832141A8FFF72BFF41A88021AD
:100F9000C01CFFF714FF0746000AFFF789FDF8B2EF
:100FA000FFF786FD474600A8FFF76BFD7F1E01286F
:100FB00007D0002FF7D16D1C0A2DE3D30A2D06D3DD
:100FC0001CE09DF800000628F6D10126F6E7042073
:100FD000FFF76EFD474600A8FFF753FD7F1E01286F
:100FE00002D0002FF7D103E09DF80000062803D0BF
:100FF0006D1C0EB90A2DEAD30A2D01D3E8B200E028
:1010000000200DF2145DBDE8F08F50F8041B61B1B3
:1010100050F8042BD30744BFA9F101039A18002309
:1010200042F8043B091FFAD1EFE7704780B500F0A2
:1010300075F9BDE80240F32000F0EDB910B55B484A
:1010400000F066F8044600E00834592C07D202216B
:10105000204600F06FF90828F6D0012010BD0020CE
:1010600010BD2DE9F04104460E4615460027DFF875
:10107000408103E02068001D20607F1CAF423CBF20
:101080002068404511D23168206800F087F90828AF
:1010900008D1206856F8041B00688842EAD0022074
:1010A000BDE8F0810120BDE8F0810020BDE8F081BD
:1010B00010B53E4800F02CF8C40800F0A9F940F63D
:1010C000FF71E040E140884201D1012010BD0020C5
:1010D00010BD00B583B00820019002200090334875
:1010E00000F016F8019001200199C9088840C0F568
:1010F0008050009000F06EF90021009800F073F924
:1011000000F080F9082814BF0220012003B000BDC0
:101110000021A0F10062B2F5804F45D3254909189E
:10112000B1F5804F38BF08213ED323490918B1F5E6
:10113000804F38BF102137D320490918B1F5804FAF
:1011400038BF182130D31E490918B1F5803F38BF88
:10115000202129D31B490918B1F5003F38BF2821A8
:1011600022D319490918B1F5003F38BF30211BD3EC
:1011700016490918B1F5003F38BF382114D3144976
:101180000918B1F5003F38BF40210DD311490918A6
:10119000B1F5003F38BF482106D30F490818B0F514
:1011A000003F34BF502158210846704700400008D6
:1011B000FCFF0F0800C0FFF70080FFF70040FFF7BB
:1011C0000000FFF70000FEF70000FCF70000FAF750
:1011D0000000F8F70000F6F70000F4F730B5044619
:1011E00085B00D46208A4CF6FF710840E988084317
:1011F00020824EF6F311A0890840A9880843298966
:10120000084369890843A0814FF6FF41A08A08403E
:10121000A9890843A08200A800F04EF9164884422C
:101220001BBF16488442039802982968192250432C
:10123000A28912044CBF49008900B0FBF1F164207F
:10124000B1FBF0F000010209642303FB1211A28933
:10125000120406D5C9003231B1FBF3F101F00701E8
:1012600005E009013231B1FBF3F101F00F01084350
:10127000208105B030BD0000001001400014014085
:101280000029818912BF41F400514DF6FF721140CF
:1012900081817047C905C90D81807047008800228F
:1012A000084218BF0122104670470000002200F0DB
:1012B00005B8000062F30F2262F31F42401810F0DD
:1012C000030308D0C91A1FD3DB0748BF00F8012D5C
:1012D00028BF20F8022D130030B4144615461039EB
:1012E00028BF20E93C00FAD8490728BF20E90C00B4
:1012F00048BF40F8042D890028BF20F8022D48BFC0
:1013000000F8012D30BC7047C91818BF00F8012D36
:10131000CB0728BF00F8012D70470000DFF87001EF
:10132000C168002905D5DFF86C110160DFF868118C
:101330000160704770B50446002651B1012908BF0D
:101340004FF4807605D002290CBF4FF400764FF49D
:10135000407600F063F808281FD1DFF84051286874
:1013600020F44070286044F002012868304328606F
:10137000286820F0F800286028680843286028685A
:1013800040F48030286000F049F8296821F002011B
:101390002960296821F0F801296070BD70B5044604
:1013A0000D4600F03BF8082813D13C4E306820F47D
:1013B00040703060306840F400703060306840F059
:1013C00001003060256000F029F8316849084900C3
:1013D000316070BD3248C168C90703D53149016029
:1013E00031490160704738B504460D4600F016F8E3
:1013F000082806D12E480188002D14BFA14321439F
:10140000018031BD2948017841F00201017005E0F9
:1014100027480088704727490860704781B0082036
:101420008DF80000082123480268D20348BF01213B
:1014300013D40268D20648BF05210ED4026812F008
:10144000EF0F18BF062108D10268920705D50721C2
:1014500003E00268920748BF07218DF800109DF84D
:101460000010012910D102680821D20348BF0121D0
:10147000F3D40268D20648BF0521EED4026812F008
:10148000EF0FE6D00621E8E79DF8000001B07047B5
:10149000043C024023016745AB89EFCD103C02407C
:1014A000083C02403B2A19087F6E5D4C143C024008
:1014B000163C02400C3C02402D494A6802F00C02E6
:1014C000042A02D0082A02D019E02A4A18E00A6841
:1014D0000B68C2F3805203F03F03002A14BF254A71
:1014E000254AB2FBF3F20B68C3F388135A430B6827
:1014F000C3F301435B1C5B00B2FBF3F200E01E4A46
:1015000002604B681D4AD0F800C0C3F303139B5C14
:101510002CFA03F343604B68D0F804C0C3F3822372
:101520009B5C2CFA03F3836049684368C1F3423142
:10153000895C23FA01F1C1607047114A00291168E2
:1015400014BF084321EA0000106070470D4A0029CB
:10155000116814BF084321EA0000106070470A4A6E
:101560000029116814BF084321EA00001060704789
:101570000438024040787D010024F400000000207F
:1015800030380240403802404438024070B50546C9
:101590000FF28C1086B02C460E4650F82400012124
:1015A000FFF7CBFF01214FF48040FFF7D8FF002069
:1015B0008DF810008DF8130003A90FF25C1030F8BD
:1015C00014000390DFF8480150F8240000F0CEF832
:1015D000012E30D10FF2641030F814100FF25410B5
:1015E00030F81400C9B2C0B200F014F90FF23C1088
:1015F00030F81400019000208DF80800002D14BF71
:101600000C2008208DF8090001208DF80A0001A89F
:1016100000F014F90FF22C1030F814008DF80000CF
:101620000F208DF801008DF8020001208DF80300D5
:1016300000A800F03BF906B070BD0FF2DC01DFF846
:10164000D02031F8101052F8200000F0C8B8F0B5E2
:1016500006460FF2F8000FF2F80283B0354650F854
:10166000250052F825200C4601211043FFF765FFA5
:1016700026B901214FF48020FFF768FF0FF2E40044
:10168000DFF8906030F815200FF2D00030F8151018
:1016900006EB8507D2B2786800F0A8F80FF2C80010
:1016A00030F815200FF2B80030F81510B868D2B233
:1016B00000F09CF800208DF8060000A901208DF8AC
:1016C000070002208DF804000FF2880030F81500A2
:1016D000009002208DF80500786800F047F802209D
:1016E0008DF8040000A90FF2700030F8150000908A
:1016F000B86800F03BF856F825002146FFF76EFD6C
:1017000056F825000121FFF7BBFD03B0F0BD000036
:10171000100000201C0000200100002000800000BC
:101720000100000004000000400000000100002053
:1017300000800000000002000600000000000D0014
:101740000F00000006002800280000000400000030
:101750000400000000040000000800000A0000006F
:101760000B0000000700000007000000F0B400229A
:10177000002301240D6894402540A54229D103256A
:101780009D400668ED432E40066006680F799F4035
:101790003E4306600E79012E18BF022E11D18668D5
:1017A0002E40866086684F799F403E43866046683B
:1017B00026EA0404446044688E799640B6B2344305
:1017C0004460C4682C40C460C468CD799D402C43FB
:1017D000C460521C9B1C102ACBD3F0BC704700691C
:1017E0000022084218BF012210467047CB0800EBC8
:1017F000830001F007018900036A4FF00F0C0CFA17
:1018000001FC23EA0C03036202FA01F1036A1943A3
:101810000162704730B401F0030221F00301064B6E
:101820009200CC580F259540AC43CC509040CC58FA
:101830002043C85030BC70470838014030B40168BC
:101840008279CB4318493AB30A461468234013609F
:1018500053680468A34353600379CC182368056870
:101860002B43236093680468A3439360D3680468A0
:10187000A343D36043790568102B08D191682943AD
:101880009160D16800680843D06030BC704751FA5D
:1018900083F42068284303E000790C18206818407E
:1018A000206030BC70470000003C014070B40378F9
:1018B000C4781A460121F4B1134B1B68447803F431
:1018C000E063C3F5E0631B0AC3F10405AC4085780F
:1018D0000F2626FA03F32B4023430C4C1B01135510
:1018E00000780B4B420900F01F0001FA00F043F8AA
:1018F000220070BC70475009064A03F01F0399404C
:1019000042F8201070BC70470CED00E000E400E0ED
:1019100000E100E080E100E03348344A82B0016831
:1019200041F4700101603248016841F00101016039
:10193000002181600168114001602E494160016809
:1019400021F4802101600021C160019100910168B2
:1019500041F480310160016801F400310091019986
:10196000491C0191009919B90199B1F5A06FF2D103
:101970000168490C01F001010091009901292CD165
:10198000016C41F0805101641B490A6842F48042B5
:101990000A6081688160816841F4004181608168EA
:1019A00041F4A051816015494160016841F08071A6
:1019B000016001688901FCD540F2056210490A60A6
:1019C0008168890889008160816841F00201816035
:1019D000816801F00C010829FAD14FF00061094833
:1019E000016002B07047000088ED00E0FFFFF6FEE6
:1019F00000380240103000240070004019544007A5
:101A0000003C024008ED00E000B585B0FFF70EFB9A
:101A100000210220FFF7BAFD0220FFF70EFE90B969
:101A20004FF4E130009000A900200190ADF80800CB
:101A3000ADF80C000C20ADF80A000020FFF707FEFF
:101A4000FEF701FC10E00948094A01681140B1F1B4
:101A5000005F09D14168074A1160074A11600068B8
:101A600080F3088808468047FEE700BF0040000872
:101A70000000FE2F2C0500202805002010B5074986
:101A800079441831064C7C44163404E00A68081D79
:101A9000511888470146A142F8D110BD0800000046
:101AA0002800000067F5FFFF0C050000280000205B
:101AB00000000000B3EEFFFF280000000402000059
:101AC00000000020000000004EF68851CEF2000118
:101AD000086840F4700008604FF00070E1EE100AF2
:101AE0007047000000F009F8002801D0FFF7C6FF9A
:101AF0000020FFF789FF00F002F80120704700F096
:101B000001B800000746384600F002F8FBE7000085
:101B100080B5C046C046024A11001820ABBEFBE7A4
:101B2000260002007047FEE7FEE7FEE7FEE770478B
:101B300070477047704700000148804701480047E0
:101B400019190008491B0008C046C046FFF7BCFF32
:101B5000FFF7C8FFFFF7E6BFFFF7E5BFFFF7E4BFFA
:101B6000FFF7E3BFFFF7E2BFFFF7E1BFFFF7E0BF1B
:101B7000FFF7DFBFFFF7DEBFFFF7FEBFFFF7FEBFD8
:101B8000FFF7FEBFFFF7FEBFFFF7FEBFFFF7FEBF89
:101B9000FFF7FEBFFFF7FEBFFFF7FEBFFFF7FEBF79
:101BA000FFF7FEBFFFF7FEBFFFF7FEBFFFF7FEBF69
:101BB000FFF7FEBFFFF7FEBFFFF7FEBFFFF7FEBF59
:101BC000FFF7FEBFFFF7FEBFFFF7FEBFFFF7FEBF49
:101BD000FFF7FEBFFFF7FEBFFFF7FEBFFFF7FEBF39
:101BE000FFF7FEBFFFF7FEBFFFF7FEBFFFF7FEBF29
:101BF000FFF7FEBFFFF7FEBFFFF7FEBFFFF7FEBF19
:101C0000FFF7FEBFFFF7FEBFFFF7FEBFFFF7FEBF08
:101C1000FFF7FEBFFFF7FEBFFFF7FEBFFFF7FEBFF8
:101C2000FFF7FEBFFFF7FEBFFFF7FEBFFFF7FEBFE8
:101C3000FFF7FEBFFFF7FEBFFFF7FEBFFFF7FEBFD8
:101C4000FFF7FEBFFFF7FEBFFFF7FEBFFFF7FEBFC8
:101C5000FFF7FEBFFFF7FEBFFFF7FEBFFFF7FEBFB8
:101C6000FFF7FEBFFFF7FEBFFFF7FEBFFFF7FEBFA8
:101C7000FFF7FEBFFFF7FEBFFFF7FEBFFFF7FEBF98
:101C8000FFF7FEBFFFF7FEBFFFF7FEBFFFF7FEBF88
:101C9000FFF7FEBFFFF7FEBFFFF7FEBFFFF7FEBF78
:101CA000FFF7FEBFFFF7FEBFFFF7FEBFFFF7FEBF68
:101CB000FFF7FEBFFFF7FEBFFFF7FEBFFFF7FEBF58
:101CC00000000000010203040102030406070809E2
:101CD0000000024000080240001802400048004096
:081CE000000802400008024068
:0400000508001B498B
:00000001FF
