:020000040800F2
:10000000B0110020D1380008BD380008BF38000802
:10001000C1380008C3380008C538000800000000D7
:10002000000000000000000000000000C7380008C9
:10003000C938000800000000CB380008CD3800089F
:100040001139000815390008193900081D39000850
:100050002139000825390008293900082D39000800
:100060003139000835390008393900083D390008B0
:100070004139000845390008493900084D39000860
:100080005139000855390008593900085D39000810
:100090006139000865390008693900086D390008C0
:1000A0007139000875390008793900087D39000870
:1000B0008139000885390008893900088D39000820
:1000C0009139000895390008993900089D390008D0
:1000D000A1390008A5390008A9390008AD39000880
:1000E000B1390008B5390008B9390008BD39000830
:1000F000C1390008C5390008C9390008CD390008E0
:10010000D1390008D5390008D9390008DD3900088F
:10011000E1390008E5390008E9390008ED3900083F
:10012000F1390008F5390008F9390008FD390008EF
:10013000013A0008053A0008093A00080D3A00089B
:10014000113A0008153A0008193A00081D3A00084B
:10015000213A0008253A0008293A00082D3A0008FB
:10016000313A0008353A0008393A00083D3A0008AB
:10017000413A0008453A0008493A00084D3A00085B
:10018000513A0008553A000800B5DFF8340700215D
:10019000017083B0012141708170C1700C21017127
:1001A000002141718171D0E90023CDE90023DDE90F
:1001B000000100F021FC03B000BD80B5DFF80407AA
:1001C00000F02BFD012000F019FD01214FF400107B
:1001D00000F06AFD0121012000F066FD01210220EE
:1001E00000F062FD0121042000F05EFD01210820E5
:1001F00000F05AFD0121102000F056FD01212020C1
:1002000000F052FD0121402000F04EFD00210120B0
:1002100000F06CFD0121042000F089FD012108207F
:1002200000F085FD01214FF4804000F080FD0121A8
:100230004FF4003000F07BFD01214FF4002000F06E
:1002400076FD01214FF0007000F071FD01214FF0AB
:10025000806000F06CFD0121022000F08AFD012188
:10026000102000F086FD01214FF4807000F081FD28
:1002700001214FF4805000F07CFDBDE804400121D5
:100280004FF4804000F075BD2DE9FC414FF4C050A3
:10029000009002208DF8040000208DF80600012057
:1002A0008DF8070002208DF8050000A9DFF81886F8
:1002B000404600F0D3FD09220C21404600F087FFA4
:1002C00009220B21404600F082FF602000900220AE
:1002D0008DF8040000208DF8060001208DF807003D
:1002E00002208DF8050000A9DFF8E045204600F067
:1002F000B5FD09220621204600F069FF09220521EB
:10030000204600F064FF0C20009000A902208DF828
:10031000040000208DF8060001208DF8070002205F
:100320008DF80500404600F099FD07220221404665
:1003300000F04DFF07220321404600F048FF032054
:10034000009000A902208DF8040000208DF806001E
:1003500001208DF8070002208DF80500404600F0CE
:100360007DFD08220021404600F031FF08220121D6
:10037000404600F02CFF4FF48050009001208DF893
:10038000040000208DF8060001208DF807000220EF
:100390008DF8050000A9DFF83855284600F05EFD0D
:1003A0000420009001208DF8040000208DF8060044
:1003B00001208DF8070002208DF8050000A9DFF864
:1003C0001465304600F04AFDB020009000A90120DD
:1003D0008DF8040000208DF8060001208DF807003C
:1003E00002208DF80500404600F038FD40200090C6
:1003F00000A900208DF804008DF8060001208DF87A
:10040000070002208DF80500404600F027FD4FF45C
:100410004060009000A901208DF8040000208DF8B4
:10042000060001208DF8070002208DF805002846FF
:1004300000F014FD4FF47040009000A901208DF8E9
:10044000040000208DF8060001208DF8070002202E
:100450008DF80500204600F001FD0820009000A95D
:1004600003208DF804000020ADF8060002208DF86E
:100470000500284600F0F2FC0720009001208DF8CE
:10048000040000208DF8060001208DF807000220EE
:100490008DF8050000A9DFF84074384600F0DEFC56
:1004A0004FF47C40009000A900208DF804008DF8E6
:1004B000060001208DF8070002208DF8050038465F
:1004C00000F0CCFC0120009000A900208DF8040071
:1004D0008DF8060001208DF8070002208DF8050038
:1004E000204600F0BBFC0220009000A901208DF8FE
:1004F000040000208DF8060001208DF8070002207E
:100500008DF80500204600F0A9FC1020009000A9FD
:1005100001208DF8040000208DF8060001208DF8E0
:10052000070002208DF80500284600F097FC2020E7
:10053000009000A900208DF804008DF8060001202D
:100540008DF8070002208DF80500284600F086FC93
:100550004020009000A902208DF8040000208DF8B2
:10056000060001208DF8070003208DF805002846BD
:1005700000F074FC03220621284600F028FE8020AB
:10058000009000A901208DF8040000208DF80600DD
:1005900001208DF8070002208DF80500284600F0A4
:1005A0005DFC4FF48070009000A901208DF80400DC
:1005B00000208DF8060001208DF8070002208DF83C
:1005C0000500404600F04AFC4FF40070009000A97E
:1005D00001208DF8040000208DF8060001208DF820
:1005E000070002208DF80500284600F037FC4FF484
:1005F0000060009001208DF8040000208DF80600B6
:1006000001208DF8070002208DF8050000A9DFF811
:10061000CC82404600F022FC4FF4004700970120B6
:100620008DF8040000A900208DF8060001208DF847
:10063000070002208DF80500404600F00FFC4FF443
:100640004070009000A901208DF8040000208DF872
:10065000060001208DF8070002208DF805002046D5
:1006600000F0FCFB4FF46050009000A901208DF8D1
:10067000040000208DF8060001208DF807000220FC
:100680008DF80500304600F0E9FBFF20009000A93E
:1006900001208DF8040000208DF8060001208DF85F
:1006A000070002208DF80500404600F0D7FB4FF40C
:1006B000E840009000A901208DF8040000208DF88A
:1006C000060001208DF8070002208DF80500404645
:1006D00000F0C4FB009701208DF8040000A9002061
:1006E0008DF8060001208DF8070002208DF8050026
:1006F000284600F0B3FB4FF48040009000A9012091
:100700008DF8040000208DF8060001208DF8070008
:1007100002208DF80500284600F0A0FB8020009004
:1007200000A902208DF8050001208DF804000020AA
:100730008DF8060001208DF80700404600F08EFB82
:100740004020009000A902208DF8050001208DF8BE
:10075000040000208DF8060001208DF807004046B7
:1007600000F07CFBBDE8F38130B583B0042000903D
:1007700001208DF8040000208DF8060001208DF87E
:10078000070002208DF8050000A9514C204600F01A
:1007900065FB4FF48070009000A901208DF80400E3
:1007A00000208DF8060001208DF8070002208DF84A
:1007B0000500204600F052FB8020009001208DF8BB
:1007C000040000208DF8060001208DF807000220AB
:1007D0008DF8050000A93D4D284600F03FFB4FF481
:1007E0000040009000A901208DF8040000208DF841
:1007F000060001208DF8070002208DF80500204634
:1008000000F02CFB0421204600F056FC4FF48071D0
:10081000204600F051FC4FF40041204600F04CFC13
:100820008021284600F048FC03B030BD80B5FFF7BA
:10083000C4FCBDE8014027E538B50221234800F09B
:100840003BFC234C1021204600F036FC8021204642
:1008500000F032FC214D4FF40061284600F02CFCE2
:100860004FF40041284600F027FC4FF40071204669
:1008700000F022FC4FF48071134800F0F1FB204699
:10088000BDE834404FF4004100F016BC00B583B021
:100890004FF44060009000A901208DF80400002072
:1008A0008DF8060001208DF8070002208DF8050064
:1008B000064800F0D3FAFFF757FF03B000BD000071
:1008C0009C0900208C090020000002400004024026
:1008D00000080240000C02400014024000180240D0
:1008E00000B583B001004FF40072DFF8B40200924B
:1008F00018BF01218DF8041002218DF80510012187
:100900008DF8071000218DF80610FFE700A900F010
:10091000A5FA03B000BD64280CDA0A2190FBF1F1BE
:100920000A0150FA82F001EB8102A0EB4201C9B248
:10093000092037E1704701460D290DDA60B10A2020
:1009400091FBF0F0020151FA82F100EB8002A1EB81
:100950004201C9B2082025E17047014620290DDA7D
:1009600060B10A2091FBF0F0020151FA82F100EB34
:100970008002A1EB4201C9B2062013E1704718289A
:100980000CDA0A2190FBF1F10A0150FA82F001EB36
:100990008102A0EB4201C9B2052003E170473C2867
:1009A0000CDA0A2190FBF1F10A0150FA82F001EB16
:1009B0008102A0EB4201C9B20420F3E0704710B5F8
:1009C00004463C2C17DA00F038F8A22000F09FF81B
:1009D000032000F09CF80A2094FBF0F0010154FA87
:1009E00081F100EB8002A1EB4200C0B200F08FF871
:1009F000BDE810403CE010BD03B581B09DF8040097
:100A0000FFF789FF9DF80500FFF795FF9DF80600A9
:100A1000FFF7A3FF9DF80710072000F0C3F89DF82B
:100A20000800FFF7ACFF9DF80900FFF7B8FF9DF83D
:100A30000A0003B05DF804EBC1E710B50120FFF731
:100A40004FFF574C01224FF40071204600F060FB2D
:100A500001224FF40071204600F05AFB01224FF4AE
:100A60008071204600F054FB00224FF400712AE010
:100A700010B50120FFF734FF494C00224FF40071FC
:100A8000204600F045FB01224FF48071204600F023
:100A90003FFB2046BDE8104001224FF4007100F0FA
:100AA00037BB10B504460120FFF71AFF621E9241C2
:100AB000D2433B4CD20F4FF40071204600F028FB8C
:100AC00001224FF48071204600F022FB2046BDE851
:100AD000104000224FF4807100F01ABB38B500209E
:100AE000FFF7FEFE2E4C01224FF48071204600F0ED
:100AF0000FFB4FF40071204600F051FA054600222A
:100B00004FF48071204600F003FB284632BD2DE9EA
:100B1000F04104460025DFF888800127C5F1070071
:100B200007FA00F02040461EB641F6430120FFF7C9
:100B3000D7FEF20F4FF40071404600F0E9FA3A4652
:100B40004FF48071404600F0E3FA00224FF48071C8
:100B5000404600F0DDFA6D1C082DDFDBBDE8F041FA
:100B6000BCE7F8B5002408250D4E0020FFF7B8FEBD
:100B700001224FF48071304600F0CAFA4FF4007140
:100B8000304600F00CFA074600224FF480713046E0
:100B900000F0BEFA47EA44046D1EE6D1E0B2F2BDB1
:100BA0000004024038B504460D46FFF746FFA22078
:100BB000FFF7ADFF2046FFF7AAFF2846FFF7A7FF84
:100BC000BDE8314054E710B50446FFF736FFA220D8
:100BD000FFF79DFF2046FFF79AFFFFF749FFFFF75A
:100BE0002CFFA320FFF793FFFFF7BBFF0446012074
:100BF000FFF757FFFFF73CFF204610BD10B504007C
:100C000018BF012C05D040F209210FF2DC1000F0D2
:100C1000D8FCDFF8A801046010BDDFF89C114A6819
:100C200002F00C02042A02D0082A03D01CE0DFF8EC
:100C300090211BE00A680B68C2F3805203F03F0367
:100C4000002A14BFDFF87821DFF87821B2FBF3F235
:100C50000B68C3F388135A430B68C3F301435B1C4F
:100C60005B00B2FBF3F201E0DFF8582102604B6851
:100C7000DFF85421D0F800C0C3F303139B5C2CFAB7
:100C800003F343604B68D0F804C0C3F382239B5C3A
:100C90002CFA03F3836049684368C1F34231895CED
:100CA00023FA01F1C160704738B50446DFF81C0132
:100CB0000D46044200D12CB94FF488610FF2281080
:100CC00000F07FFC65B1012D05D00FF21C1040F241
:100CD000424100F076FCDFF8F8000168214303E0B0
:100CE000DFF8EC000168A143016031BD38B504466E
:100CF00060080D46400000D12CB940F27B410FF254
:100D0000E80000F05EFC65B1012D05D00FF2D800BF
:100D100040F27C4100F055FCDFF8B8000168214347
:100D200003E0DFF8B0000168A143016031BD38B5D0
:100D30000446DFF8A4000D46044200D12CB940F26D
:100D4000AD410FF2A40000F03CFC65B1012D05D0CF
:100D50000FF2940040F2AE4100F033FCDFF87C006B
:100D60000168214303E0DFF874000168A1430160DA
:100D700031BD38B50446DFF868000D46044200D1A5
:100D80002CB940F2D5410FF2600000F01AFC65B1B9
:100D9000012D05D00FF2500040F2D64100F011FCB9
:100DA000DFF840000168214303E0DFF83800016804
:100DB000A143016031BD0000043802404C004742AD
:100DC00040787D010024F4005004002000EE8B8167
:100DD0003038024038380240003601C940380240FD
:100DE000CCA0F8FF44380240443A5C50726F6A6508
:100DF00063745C5B53564E5D204543532D52443122
:100E0000322D3136202D20574C3946204D6F6E69DA
:100E1000746F72202D2053544D33325F4941505C22
:100E20004C69627261726965735C53544D3332462A
:100E30003478785F5374645065726970685F447287
:100E4000697665725C7372635C73746D3332663499
:100E500078785F7263632E63000000002DE9F84329
:100E600004460026DFF864040D4684421CBFDFF808
:100E7000600484421FD0DFF85C0484421CBFDFF8AA
:100E80005804844217D0DFF8540484421CBFDFF8B2
:100E9000500484420FD0DFF84C0484421FBFDFF8B7
:100EA00048048442DFF84404844204D0BB210FF29A
:100EB000404000F086FB286820B90FF23440BC2186
:100EC00000F07FFB2879002818BF012808D00228ED
:100ED00018BF032804D0BD210FF2144000F071FBAD
:100EE000E87940B1012818BF022804D00FF2004071
:100EF000BE2100F066FB012000FA06F8286808EA27
:100F00000000404546D177000320B8406FEA000951
:100F1000206809EA0000206020682979B940084368
:100F200020602879012818BF02282AD16879002872
:100F300018BF012808D0022818BF032804D0D021E8
:100F40000FF2AC3000F03DFBA06809EA0000A060A1
:100F5000A0686979B9400843A060A879002818BF43
:100F6000012804D0D7210FF2883000F02AFB6068F6
:100F700020EA080060606068A979B14089B208433E
:100F80006060E06809EA0000E060E068E979B94083
:100F90000843E060761C102EADD3BDE8F18370B538
:100FA00004460026DFF824030D4684421CBFDFF808
:100FB0002003844220D0DFF81C0384421CBFDFF8EA
:100FC0001803844218D0DFF8140384421CBFDFF8F2
:100FD0001003844210D0DFF80C0384421FBFDFF8F7
:100FE00008038442DFF80403844205D04FF498716B
:100FF0000FF2FC2000F0E5FA012D18BF022D29D0D8
:10100000042D18BF082D25D0102D18BF202D21D05C
:10101000402D18BF802D1DD0B5F5807F18BFB5F5C8
:10102000007F17D0B5F5806F18BFB5F5006F11D0F0
:10103000B5F5805F18BFB5F5005F0BD0B5F5804FF3
:1010400018BFB5F5004F05D00FF2A42040F23111C2
:1010500000F0B7FA2069284218BF0126304670BD5B
:1010600038B5044699480D4684421CBF98488442CE
:1010700019D0984884421CBF9748844213D097489F
:1010800084421CBF964884420DD0964884421FBFBC
:10109000954884429548844205D040F27F110FF272
:1010A000502000F08EFA2DB90FF244204FF4C07199
:1010B00000F087FA258331BD38B5044683480D46D4
:1010C00084421CBF8248844219D0824884421CBF9B
:1010D0008148844213D0814884421CBF80488442A6
:1010E0000DD0804884421FBF7F4884427F4884429D
:1010F00005D04FF4C9710FF2F81000F062FA2DB963
:101100000FF2EC1040F2931100F05BFA658331BDF1
:1011100070B504466D480D46164684421CBF6C48A7
:10112000844219D06B4884421CBF6B48844213D060
:101130006A4884421CBF6A4884420DD06948844290
:101140001FBF694884426948844205D04FF4D37177
:101150000FF29C1000F035FA012D18BF022D29D096
:10116000042D18BF082D25D0102D18BF202D21D0FB
:10117000402D18BF802D1DD0B5F5807F18BFB5F567
:10118000007F17D0B5F5806F18BFB5F5006F11D08F
:10119000B5F5805F18BFB5F5005F0BD0B5F5804F92
:1011A00018BFB5F5004F05D00FF2441040F2A7115B
:1011B00000F007FA4EB1012E05D04FF4D4710FF2B2
:1011C000301000F0FEF9258370BD658370BD70B5E9
:1011D00006463E480D46144686421CBF3C488642A1
:1011E00019D03C4886421CBF3B48864213D03B483E
:1011F00086421CBF3A4886420DD03A4886421FBFFD
:10120000394886423948864205D040F217210FF20C
:10121000E00000F0D6F9002D18BF012D21D0022DDD
:1012200018BF032D1DD0042D18BF052D19D0062D74
:1012300018BF072D15D0082D18BF092D11D00A2D64
:1012400018BF0B2D0DD00C2D18BF0D2D09D00E2D54
:1012500018BF0F2D05D00FF298004FF4067100F063
:10126000B0F9002C18BF092C1ED0012C18BF022C7D
:101270001AD0032C18BF042C16D0052C18BF062C2E
:1012800012D0072C18BF082C0ED00A2C18BF0B2C1C
:101290000AD00C2C1CBF0D2C0F2C05D040F21921AC
:1012A0000FF24C0000F08DF9E80806EB800005F025
:1012B00007018900026A0F238B409A43026204FAF5
:1012C00001F1026A1143016270BD0000000002409A
:1012D0000004024000080240000C024000100240DE
:1012E0000014024000180240001C0240002002408E
:1012F000443A5C50726F6A6563745C5B53564E5D32
:10130000204543532D524431322D3136202D205764
:101310004C3946204D6F6E69746F72202D205354E6
:101320004D33325F4941505C4C696272617269654C
:10133000735C53544D3332463478785F5374645041
:1013400065726970685F4472697665725C73726316
:101350005C73746D3332663478785F6770696F2EB2
:10136000630000002DE9F04383B000F031F9FFF78E
:101370005DFAFFF761FA012240217148FFF7C8FECC
:101380000920FFF720FC04460820FFF71CFC054657
:101390000620FFF718FC06460720FFF714FC074657
:1013A0000520FFF710FC80460420FFF70CFC814667
:1013B0000320FFF708FC9A2C0EDA132D00DB5DB139
:1013C000322E09DA082F00DB37B1B8F1240FBCBF89
:1013D000B9F15A0F5A2801DBFEF7D6FE00F0FEFAEB
:1013E0000720009001208DF8040000208DF80600F1
:1013F00001208DF8070002208DF8050000A9514C4E
:101400002046FFF72BFD4FF47C40009000A9002000
:101410008DF804008DF8060001208DF807000220E9
:101420008DF805002046FFF719FD474CFF220621E5
:10143000204600F0F3FA0020208106224FF47811B4
:10144000204600F039FAA178E078090441EA00600A
:10145000617840EA01202178084360633B49606B72
:1014600088422AD0E06800220121FFF751FE20695E
:1014700001220221FFF74CFE606901220421FFF7DF
:1014800047FE00250FF23C1604F118074FF006083E
:1014900036F8021B57F8040BFFF781FD401E804110
:1014A000C00F690051FA80F5B8F10108F0D11C2D88
:1014B00002BF606B264988420DD106224FF4741199
:1014C000204600F0F9F96079217941EA0020608135
:1014D000012020721BE006224FF47C11204600F010
:1014E000EBF9A178E078090441EA0060617840EA0C
:1014F00001202178084320632179607941EA0020A6
:1015000060811449206B884205D10120607200F08F
:101510002BF800F020FB104C104920680840B0F177
:10152000005F0BD100F060FE60680D4908600D4956
:101530000860206880F3088808688047FEE700009C
:101540000018024000140240040400204D3C2B1AF5
:101550008D7C6B5AD4C3B2A1004000080000FE2F5E
:10156000880800208408002000B585B04FF4E130E1
:10157000009000A900200190ADF80800ADF80C0023
:101580000C20ADF80A00002000F032FE05B000BDCE
:1015900080B5FFF77BF900F0ADFE00F07FFF012082
:1015A00000F08CFF012000F08EFF01F01AF800F02F
:1015B000F1FC002001F008F8BDE80240002000F036
:1015C00082BFFEE7000400080010002000400080F9
:1015D00080B501F00FF8BDE80240F32001F0A6B895
:1015E00010B54C4800F047F8044600E00834592C88
:1015F00007D20221204601F009F80828F6D0012080
:1016000010BD002010BD2DE9F04104460E461546E0
:101610000027DFF8048103E02068001D20607F1CA4
:10162000AF423CBF2068404511D23168206801F0CC
:1016300049F8082808D1206856F8041B0068884239
:10164000EAD00220BDE8F0810120BDE8F081002051
:10165000BDE8F08110B52F4800F00DF8C40801F086
:1016600062F840F6FF71E040E140884201D101207C
:1016700010BD002010BD0021A0F10062B2F5804F26
:1016800045D326490918B1F5804F38BF08213ED30C
:1016900023490918B1F5804F38BF102137D32149AC
:1016A0000918B1F5804F38BF182130D31E490918E9
:1016B000B1F5803F38BF202129D31C490918B1F565
:1016C000003F38BF282122D319490918B1F5003F3E
:1016D00038BF30211BD317490918B1F5003F38BF77
:1016E000382114D314490918B1F5003F38BF4021FF
:1016F0000DD312490918B1F5003F38BF482106D370
:101700000F490818B0F5003F34BF50215821084652
:101710007047000000400008FCFF0F0800C0FFF702
:101720000080FFF70040FFF70000FFF70000FEF722
:101730000000FCF70000FAF70000F8F70000F6F7E9
:101740000000F4F738B5044600F027F9DFF8C4527A
:10175000002210212846FFF7DBFCD82000F0F3F828
:101760002002000E00F0EFF82004000E00F0EBF86D
:10177000E0B200F0E8F8012210212846FFF7C8FC8B
:10178000BDE8314014E12DE9F84304460F46164602
:1017900000F003F9DFF87C92002210214846FFF7A1
:1017A000B7FC022000F0CFF83802000E00F0CBF8B2
:1017B0003804000E00F0C7F8F8B200F0C4F82EB3F9
:1017C000012794F800800025761E0022202148463B
:1017D000FFF79EFCC5F1070007FA00F04146014201
:1017E00014BF0122002280214846FFF791FC01220C
:1017F00020214846FFF78CFC40214846FFF7CFFBED
:101800006D1C082DE1DB641C002EDAD101221021B1
:101810004846FFF77DFCBDE8F143C9E02DE9F04102
:1018200080460D46E8B201464E42F6B2170AD4B2DF
:1018300080B9002F39D07F1E4FF480722946404670
:10184000FFF7A1FFFFB205F5807508F58078002F3E
:10185000F1D129E067B9A64227DA32462946404647
:10186000FFF791FFA21BD2B2711906EB08001EE030
:10187000921B92B2170AD4B2324629464046FFF76D
:1018800082FF7519B04438000DD07F1E4FF480726E
:1018900029464046FFF777FFFFB205F5807508F54A
:1018A0008078002FF1D12CB1224629464046BDE870
:1018B000F04168E7BDE8F0812DE9F84380460F4626
:1018C0001646DFF85091002210214846FFF720FC11
:1018D000032000F038F83802000E00F034F8380425
:1018E000000E00F030F8F8B200F02DF83EB30127FA
:1018F00000240025761E002220214846FFF708FC20
:10190000C5F1070007FA00F010F0A50014BF01228E
:10191000002280214846FFF7FBFB01222021484698
:10192000FFF7F6FB40214846FFF739FB6D1C40EA04
:101930004404082DDFDB08F8014B002ED8D14846BF
:10194000BDE8F84346E02DE9F041044600250026B5
:101950000127DFF8C080002220214046FFF7D8FB96
:10196000C6F1070007FA00F0044214BF012200226A
:1019700080214046FFF7CCFB012220214046FFF7A3
:10198000C7FB40214046FFF70AFB761C40EA4505AD
:10199000082EE0DBE8B2BDE8F08110B51D4C002256
:1019A00010212046FFF7B4FB0620FFF7CCFF0EE026
:1019B00010B5184C002210212046FFF7A9FB052086
:1019C000FFF7C1FFA520FFF7BEFFC007FAD42046EE
:1019D000BDE8104001221021FFF79ABB10B50D4C55
:1019E000002210212046FFF793FB01221021204600
:1019F000FFF78EFB084C01224FF400612046FFF7F1
:101A000087FB2046BDE8104001224FF48061FFF7BC
:101A10007FBB0000000002400008024062F30F227A
:101A200062F31F4200B500BF13009646944610397A
:101A300028BFA0E80C50FAD85FEA417C28BF0CC050
:101A400048BF40F8042BC90728BF20F8022B48BF25
:101A500000F8012B00BD10B450F8041B81B10268DE
:101A60001218001D50F8043BDC0744BFA9F1010423
:101A7000E31852F8044B43F8044B091FF9D1EBE784
:101A800010BC704730B583B000A80FF25C110A2279
:101A900000F0DEFE0FF25C1000F022FF4D480078EF
:101AA000012802D100F07CFF07E04B4800780128B4
:101AB0004BD1FFF76DFD00F029FF0446012C32DB0E
:101AC0000FF26C1000F00CFF0FF28C1000F008FF0A
:101AD000424D05F1080000F003FF214600A800F088
:101AE000E3FE0FF2AC1000F0FBFE00A800F0F8FEE1
:101AF0000FF2B01000F0F4FE0FF2B41000F0F0FEA0
:101B00000FF2D01000F0ECFE0FF2D01000F0E8FE63
:101B10003348416869602960006880F30888084696
:101B2000804703B030BD14F1010F08BF0FF2D01091
:101B30000DD014F1020F08BF0FF2042007D014F1EA
:101B4000030F08BF0FF2142001D00FF2282000F07D
:101B5000C7FE03B030BD38B50FF23824204600F080
:101B6000BFFE0FF27025284600F0BAFE0FF2A42047
:101B700000F0B6FE284600F0B3FE0FF2D82000F0C9
:101B8000AFFE284600F0ACFE0FF2083000F0A8FED1
:101B90000FF2403000F0A4FE0FF2783000F0A0FE0B
:101BA000284600F09DFE0FF2AC3000F099FE204672
:101BB00000F096FE06A000F093FEFFF74BFD401EDE
:101BC00080410849C00F0860FFF75CFFFCE7000098
:101BD0000D0A00000C0400200D04002084080020E1
:101BE00000400008AC0900202020202020202020D8
:101BF0002020000057616974696E6720666F72204B
:101C00007468652066696C6520746F206265207356
:101C1000656E74202E2E2E20287072657373202717
:101C2000612720746F2061626F7274290A0D0000B1
:101C30000A0A0D2050726F6772616D6D696E6720C0
:101C4000436F6D706C657465642053756363657371
:101C50007366756C6C7921000A0D2D2D2D2D2D2D9F
:101C60002D2D2D2D2D2D2D2D2D2D2D2D2D2D2D2DA4
:101C70002D2D2D2D2D2D2D2D2D2D0D0A2053656E45
:101C8000642046696C65204E616D653A2000000055
:101C90000A0D2053656E642046696C652053697A8D
:101CA000653A20002042797465730D0A0000000037
:101CB0002D2D2D2D2D2D2D2D2D2D2D2D2D2D2D2D54
:101CC0002D2D2D2D2D2D2D2D2D2D2D2D2D2D2D2D44
:101CD0000A0000000D0A0D0A000000004170706C3F
:101CE00069636174696F6E2050726F6772616D20F5
:101CF00052756E6E696E672E2E2E2E2E0D0A000006
:101D00000A0A0D54686520696D6167652073697AF8
:101D10006520697320686967686572207468616E00
:101D20002074686520616C6C6F77656420737061E6
:101D30006365206D656D6F7279210A0D00000000EA
:101D40000A0A0D566572696669636174696F6E206F
:101D50006661696C6564210A0D0000000D0A0A4184
:101D6000626F7274656420627920757365722E0AE1
:101D70000D0000000A0D4661696C656420746F20D7
:101D800072656365697665207468652066696C654F
:101D9000210A0D000D0A3D3D3D3D3D3D3D3D3D3D92
:101DA0003D3D3D3D3D3D3D3D3D3D3D3D3D3D3D3D63
:101DB0003D3D3D3D3D3D3D3D3D3D3D3D3D3D3D3D53
:101DC0003D3D3D3D3D3D3D3D3D3D3D3D3D3D3D3D43
:101DD000000000000D0A3D2020202020202020208F
:101DE00020202020202020202020202020202020F3
:101DF00020202020202020202020202020202020E3
:101E00002020202020202020202020202020203DB5
:101E1000000000000D0A3D2020202020202020204E
:101E2000202020205461654861204D6563686174FD
:101E3000726F6E69637320436F2E2C204C74642E76
:101E40002020202020202020202020202020203D75
:101E5000000000000D0A3D20496E2D4170706C6934
:101E6000636174696F6E2050726F6772616D6D6926
:101E70006E67204170706C69636174696F6E2020B9
:101E80002020202020202020202020202020203D35
:101E9000000000000D0A3D2050726F6A65637420D7
:101EA00020202020203A20574C3946204469737066
:101EB0006C617920284D6F6E69746F722026204303
:101EC0006C75737465722920202020202020203D0D
:101ED000000000000D0A3D20456E7669726F6E6D40
:101EE000656E7420203A20455741524D2076362E9B
:101EF000352C204C6962726172792076312E302E39
:101F00003020202020202020202020202020203DA4
:101F1000000000000D0A3D2020202020202020204D
:101F20002020202020202053544D3332463478780E
:101F3000205374616E6461726420506572697068C8
:101F40006572616C73204C69627261727920203D08
:101F5000000000000D0A3D204279204543532044F3
:101F600069762E206B7574656C66202020202020F9
:101F70002020202020202020202020202020202061
:101F80002020202020202020202020202020203D34
:101F90000000000080B50021FF2000F064FA00215D
:101FA000942000F060FA00219E2000F05CFA0121EC
:101FB0009F2000F058FA0021A02000F054FA0021E0
:101FC000A12000F050FA0021A22000F04CFA2221BA
:101FD000A32000F048FA0E21A42000F044FA322198
:101FE000A52000F040FA0021A62000F03CFA0021D4
:101FF000A72000F038FA0021A82000F034FA502180
:10200000A92000F030FA0021AA2000F02CFA552176
:10201000AB2000F028FA0021AC2000F024FA0021C7
:10202000AD2000F020FA0021AE2000F01CFA1121B2
:10203000942000F018FABDE804400221942000F03A
:1020400012BA80B50021FF2000F00DFA8021952002
:1020500000F009FAD821962000F005FA55219720C2
:1020600000F001FA0621982000F0FDF9802195206A
:1020700000F0F9F9D921962000F0F5F950219720C8
:1020800000F0F1F90621982000F0EDF9802195206B
:1020900000F0E9F9DA21962000F0E5F944219720D3
:1020A00000F0E1F90621982000F0DDF9802195206B
:1020B00000F0D9F9DB21962000F0D5F941219720D5
:1020C00000F0D1F90621982000F0CDF9802195206B
:1020D00000F0C9F9DC21962000F0C5F954219720C1
:1020E00000F0C1F90621982000F0BDF9802195206B
:1020F00000F0B9F9DD21962000F0B5F945219720CF
:1021000000F0B1F90621982000F0ADF9802195206A
:1021100000F0A9F9DE21962000F0A5F92E219720E4
:1021200000F0A1F90621982000F09DF9802195206A
:1021300000F099F9DF21962000F095F92E219720E3
:1021400000F091F90621982000F08DF9802195206A
:1021500000F089F9E021962000F085F92E219720E2
:1021600000F081F9BDE804403AE080B50021FF208D
:1021700000F079F90021942000F075F98021952074
:1021800000F071F980219C2000F06DF900219D2064
:1021900000F069F901219E2000F065F971219F206E
:1021A00000F061F90021942000F05DF9BDE80440E1
:1021B00000219E2000F057B910B504460021FF20F1
:1021C00000F051F98121952000F04DF9214696202B
:1021D00000F049F97F21972000F045F9BDE8104053
:1021E0000621982000F03FB910219C2000F03BB957
:1021F000F0B506460FF2BC000FF2BC0283B03546C4
:1022000050F8250052F825200C4601211043FEF716
:102210004BFD1EB901211020FEF789FD0FF2AC0025
:10222000DFF88C6030F815200FF2980030F81510A8
:1022300006EB8507D2B27868FEF7C9FF0FF290006F
:1022400030F815200FF2800030F81510B868D2B2BF
:10225000FEF7BDFF00208DF8060000A901208DF8D3
:10226000070002208DF804000FF2500030F815002E
:10227000009002208DF805007868FEF7EFFD02203F
:102280008DF8040000A90FF2380030F81500009016
:10229000B868FEF7E3FD56F82500214600F0CAFBBA
:1022A00056F82500012100F08CFC03B0F0BD0000C1
:1022B0007004002001000000010000000002000086
:1022C00000040000090000000A00000007000000F0
:1022D000070050F8041B61B150F8042BD30744BF2A
:1022E000A9F101039A18002342F8043B091FFAD10F
:1022F000EFE7704710B5094C00224FF4004120462B
:10230000FEF706FF642000F07EFD2046BDE8104089
:1023100001224FF40041FEF7FBBE0000000802401E
:1023200000B501005F4883B001694FF400624FF2CD
:10233000FF7308D019404161009201218DF804100B
:102340008DF8051005E019404161009200218DF8DB
:10235000041000A9FEF782FD03B000BD70B504466D
:10236000012000F03DFD08254E4EE4B2E0094FF497
:102370000061304602D0FEF773FE01E0FEF79CFEDE
:10238000012000F02DFD4FF480613046FEF768FE1D
:10239000012000F025FD64004FF480613046FEF717
:1023A0008BFE012000F01CFD6D1EDED14FF400619C
:1023B0003046FEF781FE012000F012FD4FF48061EF
:1023C0003046FEF74DFE012000F00AFD3046BDE824
:1023D00070404FF48061FEF76FBE70B504460D4645
:1023E000304E4FF400613046FEF73AFE0120FFF711
:1023F00097FF4FF400613046FEF732FE4FF48061E4
:102400003046FEF72DFE012000F0EAFC4FF400619B
:102410003046FEF751FE012000F0E2FC4FF48061EF
:102420003046FEF749FE8A20FFF798FFE0B2FFF73B
:1024300095FF2846FFF792FF4FF400613046FEF704
:102440003BFE012000F0CCFC4FF480613046FEF7EB
:1024500007FE012000F0C4FC3046BDE870404FF498
:102460000061FEF7FDBD80B5FFF7B7FFBDE8024094
:1024700010E010B5841C02E0FFF7AFFFA41C207829
:102480006178FF2808BFFF29F6D10021FFF7A5FFDB
:10249000BDE810404FF4FA7000F0A2BC00BF024843
:1024A000E7E70000000402400000002080B5FFF7CD
:1024B000C8FDBDE80140FFF758BE000002461021EC
:1024C0003C48FEF725BE10B5044622468021394817
:1024D000FEF71EFE3848047010BD30B589B01020DC
:1024E000ADF81400FA210020ADF81600334C344842
:1024F0000068B0FBF1F0401E80B2069005A90020F4
:10250000ADF81C008DF81E00204600F093FC7020F2
:10251000ADF8000041F27F350120ADF802000295D0
:102520000420ADF8040000A90220ADF80C00002042
:10253000ADF80E004FF48070ADF810000020ADF83B
:102540001200204600F07CFD0121204600F022FD13
:102550000121204600F058FE4FF47A7000F053FC41
:10256000154806214170458009B030BD38B5154C7D
:10257000104D01280DD100224FF400712846FEF7BE
:10258000C7FD0A2000F03FFC01224FF48071204675
:102590000CE000224FF480712046FEF7B9FD0A20BE
:1025A00000F031FC01224FF400712846BDE83840AC
:1025B000FEF7AEBD00080240A8090020000401405B
:1025C0004C0400200000024080B5FF2808BF002016
:1025D00004D001210020FFF769FF0120BDE802407F
:1025E000C4E780B540F6B83000F00DFCBDE801400E
:1025F00073E70000DFF8C801C168002905D5DFF8DE
:10260000C4110160DFF8C0110160704770B5044665
:1026100000260D46002C18BF082C19D0102C18BF0E
:10262000182C15D0202C18BF282C11D0302C18BFF6
:10263000382C0DD0402C18BF482C09D0502C18BF76
:10264000582C05D040F25B110FF29010FEF7B9FF45
:102650006DB1012D30D0022D31D0032D05D00FF2F8
:102660007C104FF4AE71FEF7ACFF4FF4407600F0F3
:102670006CF808281FD1DFF85451286820F4407006
:10268000286044F00201286830432860286820F060
:10269000F8002860286808432860286840F48030E3
:1026A000286000F052F8296821F0020129602968A9
:1026B00021F0F801296070BD4FF48076D7E74FF420
:1026C0000076D4E770B504460D46A4F10060DFF84B
:1026D0000011884221BF04F1604000F5084040F23B
:1026E0000F21884205D34FF4FB710FF2F000FEF783
:1026F00068FF00F02AF8082814D1DFF8D0603068AD
:1027000020F440703060306840F400703060306811
:1027100040F001003060256000F017F8316849088A
:102720004900316070BD2C480088704710B50446E0
:1027300034F0F30000D12CB940F2C7310FF29C0005
:10274000FEF73FFF2348046010BD81B008208DF8DC
:10275000000008211F480268D20348BF012113D49A
:102760000268D20648BF05210ED4026812F0EF0FAE
:1027700018BF062108D10268920705D5072103E09A
:102780000268920748BF07218DF800109DF80010DD
:10279000012910D102680821D20348BF0121F3D4D6
:1027A0000268D20648BF0521EED4026812F0EF0F8E
:1027B000E6D00621E8E79DF8000001B07047000070
:1027C000043C024023016745AB89EFCD103C024039
:1027D000FFFF0F000C3C0240163C0240443A5C50A4
:1027E000726F6A6563745C5B53564E5D204543535C
:1027F0002D524431322D3136202D20574C39462070
:102800004D6F6E69746F72202D2053544D33325FBB
:102810004941505C4C69627261726965735C5354E2
:102820004D3332463478785F537464506572697002
:10283000685F4472697665725C7372635C73746D11
:102840003332663478785F666C6173682E6300009B
:10285000103A07D330B4B1E83810103AA0E8381075
:10286000F9D230BC530724BFB1E80810A0E8081023
:1028700044BF51F8043B40F8043BD20724BF31F871
:10288000022B20F8022B44BF0B7803707047083AE4
:1028900007D3B1E80810083A40F8043B40F804CBED
:1028A000F7D25307E4E70000F0B4164A00230024EF
:1028B0000A25B1FBF2F606F130071F5402FB161190
:1028C0000A265B1CB2FBF6F21E1816F8016C302EBD
:1028D00006BF002C0023641C6D1EEAD1F0BC7047BB
:1028E00038B50446084D09E0284600F09EF98021DD
:1028F000284600F0D9F90028F9D0641C2178002975
:10290000F2D131BD00CA9A3B001001402DE9FC43D1
:102910002DED028B81B03F48FEF762FE3E4D3F4FEA
:1029200000269FED3F8B2CE0304600F0D1FC53ECAD
:10293000182B00F0DBFC80468946204600F0C8FCDE
:1029400002460B464046494600F0A2FD00F0C4FE98
:102950007630C0B2FFF730FCB00200F5803078600E
:102960004FF4806279682846FEF7A6FF3D604FF479
:102970008072294607F10C00FEF745FE761CB86010
:10298000F6B22A480488601C8642CDDB4FF47C10E6
:10299000FEF7D8FE01B00120BDEC028BBDE8F68346
:1029A000F0B583B04FF47810FEF7CCFE04224FF45C
:1029B00078111D48FEF732FF1648FEF711FE164D3E
:1029C000164E1A4F002413E0A00200F5202070607C
:1029D0004FF4806271682846FEF76EFF35604FF451
:1029E0008072294606F10C00FEF70DFEB060641CF3
:1029F0003988E4B2491C8C42E6DB4FF47810FEF7CC
:102A0000A1FE04224FF478110948FEF707FF0120C8
:102A100003B0F0BD004000088404002060040020E2
:102A200000000000008040407C0400200E040020D4
:102A300080040020F0B50446DFF84C72DFF86062D5
:102A400085B00D46BC421CBFDFF84002844213D063
:102A5000DFF83C0284421CBFDFF8380284420BD00E
:102A6000DFF8340284421CBFDFF83002844203D016
:102A7000EB213046FEF7A5FD286818B1DFF82412D7
:102A8000884203D3EC213046FEF79BFDA88800283E
:102A900018BFB0F5805F03D0ED213046FEF791FD01
:102AA000E888002818BFB0F5805F09D0B0F5005F56
:102AB00018BFB0F5405F03D0EE213046FEF781FD30
:102AC000288900281CBFB0F5806FB0F5C06F03D017
:102AD000EF213046FEF775FD68894FF6F371084225
:102AE00000D118B9F0213046FEF76BFDA889F8B186
:102AF000B0F5807F1CBFB0F5007FB0F5407F05D0FA
:102B0000F1213046FEF75DFDA88988B1BC421CBFAB
:102B1000DFF8780184420BD0DFF8740184421CBFD7
:102B2000DFF87801844203D0F6213046FEF749FDF4
:102B3000208A4CF6FF710840E988084320824EF64F
:102B4000F311A0890840A9880843298908436989A5
:102B50000843A0814FF6FF41A08A0840A989084395
:102B6000A08200A8FEF759F8BC421BBFDFF82C0179
:102B7000844203980298296819225043A2891204BA
:102B80004CBF49008900B0FBF1F16420B1FBF0F0CB
:102B900000010209642303FB1211A289120406D565
:102BA000C9003231B1FBF3F101F0070105E0090181
:102BB0003231B1FBF3F101F00F010843208105B080
:102BC000F0BD38B50446DFF8C0000D4684421CBF96
:102BD000DFF8B800844215D0DFF8B40084421CBF8F
:102BE000DFF8B00084420DD0DFF8AC0084421CBF97
:102BF000DFF8A800844205D040F29B110FF2581074
:102C0000FEF7DFFC5DB1012D05D00FF24C104FF443
:102C1000CE71FEF7D6FCA08940F4005003E0A089F5
:102C20004DF6FF710840A08131BD38B50446DFF88C
:102C300058000D4684421CBFDFF85000844215D076
:102C4000DFF84C0084421CBFDFF8480084420DD0FE
:102C5000DFF8440084421CBFDFF84000844205D006
:102C600040F21D210FF2F000FEF7ABFCB5F5007F3E
:102C700005DB0FF2E40040F21E21FEF7A2FCE8059E
:102C8000C00DA08031BD0000001001400044004094
:102C900000480040004C004000500040001401403B
:102CA000582D0008E1707200F8B504460026244F44
:102CB0000D46BC421CBF2348844211D022488442A6
:102CC0001CBF224884420BD0214884421CBF2148AB
:102CD000844205D040F2FC410FF27C00FEF771FC0B
:102CE000012D18BF802D24D0402D18BF202D20D0BD
:102CF000102D18BFB5F5807F1BD0B5F5007F07D02C
:102D0000082D1CBF042D022D13D040F2FD410CE014
:102D1000BC421CBF0B4884420BD00B4884421CBFF2
:102D20000C48844205D040F202510FF22C00FEF70D
:102D300048FC2088284218BF01263046F2BD00001A
:102D4000001001400044004000480040004C00409A
:102D50000050004000140140443A5C50726F6A65B4
:102D600063745C5B53564E5D204543532D52443192
:102D7000322D3136202D20574C3946204D6F6E694B
:102D8000746F72202D2053544D33325F4941505C93
:102D90004C69627261726965735C53544D3332469B
:102DA0003478785F5374645065726970685F4472F8
:102DB000697665725C7372635C73746D333266340A
:102DC00078785F75736172742E6300000348016840
:102DD00011B10168491E016070470000A40900207C
:102DE00082B0002107E00099491C00910099052953
:102DF000F9D30199491C01910199814238BF002101
:102E0000F3D302B0704782B00021019144F26821EF
:102E100008E0009A521C0092009A8A42F9D3019A63
:102E2000521C0192019A824238BF0022F3D302B0B1
:102E30007047000070B50446DFF824610D46B442C7
:102E400018BFB4F1804F35D0DFF8180184421CBFA1
:102E5000DFF8140184422DD0DFF8100184421CBF3A
:102E6000DFF80C01844225D0DFF8080184421CBF42
:102E7000DFF8040184421DD0DFF8000184421CBF4A
:102E8000DFF8FC00844215D0DFF8F80084421CBF54
:102E9000DFF8F40084420DD0DFF8F00084421CBF5C
:102EA000DFF8EC00844205D040F21F11DFF88C01FE
:102EB000FEF787FB6888002818BF10280AD0202852
:102EC0001CBF4028602805D04FF49071DFF86C01DA
:102ED000FEF777FB288900281CBFB0F5807FB0F58E
:102EE000007F05D040F22111DFF85001FEF769FBA9
:102EF0002088B4421CBFDFF880108C420ED0B4F1A1
:102F0000804F1CBFDFF85C108C4207D0DFF85810F0
:102F10008C421CBFDFF854108C4204D14FF68F71E5
:102F2000084069880843DFF848108C421CBFDFF86E
:102F300044108C4204D04FF6FF41084029890843D1
:102F40002080B4426868E0622888208519BFDFF8D5
:102F500028008442A87A20860120A08270BD00004B
:102F6000000001400004004000080040000C004048
:102F700000100040001400400004014000400140E7
:102F8000004401400048014000180040001C00407F
:102F90000020004038B50446DFF834020D46844274
:102FA00018BFB4F1804F35D0DFF8280284421CBF2F
:102FB000DFF8240284422DD0DFF8200284421CBFB7
:102FC000DFF83C02844225D0DFF8380284421CBF7F
:102FD000DFF80C0284421DD0DFF8080284421CBFD7
:102FE000DFF80402844215D0DFF8000284421CBFDF
:102FF000DFF8FC0184420DD0DFF8F80184421CBFE9
:10300000DFF8F401844205D040F24D21DFF8EC01F5
:10301000FEF7D7FA5DB1012D05D0DFF8E00140F2EF
:103020004E21FEF7CEFA208840F0010003E0208810
:103030004FF6FE710840208031BD00005C32000870
:103040002DE9F8430446DFF888910D464C4518BF3A
:10305000B4F1804F2DD0DFF87C0184421CBFDFF833
:103060007801844225D0DFF8740184421CBFDFF868
:10307000700184421DD0DFF86C0184421CBFDFF870
:103080006801844215D0DFF8640184421CBFDFF878
:10309000600184420DD0DFF85C0184421CBFDFF880
:1030A0005801844205D040F29E21DFF85001FEF71E
:1030B00088FA2888002818BF10280DD0202818BFAB
:1030C000302809D0602818BF702805D040F29F2111
:1030D000DFF82801FEF775FA6888002818BF012874
:1030E00005D04FF42871DFF81401FEF76AFAA889B9
:1030F000002818BF022805D040F2A121DFF8FC000B
:10310000FEF75FFA208C4FF6FE71084020844FF6E0
:103110008C72208CA788218B11402A8842EA0108F2
:103120004FF6FD710840A9890843698841EA000605
:103130004C451CBFDFF8A800844240D1A888002875
:1031400018BF042805D040F2BE21DFF8B000FEF71A
:1031500038FAE889002818BF082805D040F2BF21B6
:10316000DFF89800FEF72DFA688AB0F5007F18BFE7
:10317000002805D04FF43071DFF88000FEF721FA07
:10318000288AB0F5807F18BF002805D040F2C12101
:10319000DFF86800FEF715FAE9894FF6F77030405E
:1031A00008434FF6FB710840A98841EA00064FF634
:1031B000FF40298A38400843698A41EA0007A7800E
:1031C000A4F81880A8686063FFE72684BDE8F1834F
:1031D000000001400004004000080040000C0040D6
:1031E000000401400040014000440140004801400B
:1031F00000180040001C0040002000405C32000825
:10320000001000400014004038B5044610480D4638
:1032100084421CBF0F48844205D040F6D201DFF83B
:103220003800FEF7CEF965B1012D05D0DFF8280092
:1032300040F6D301FEF7C5F9B4F8440040F400406D
:1032400003E0B4F844004004400CA4F8440031BD4D
:1032500000000140000401405C320008443A5C5028
:10326000726F6A6563745C5B53564E5D20454353D1
:103270002D524431322D3136202D20574C394620E5
:103280004D6F6E69746F72202D2053544D33325F31
:103290004941505C4C69627261726965735C535458
:1032A0004D3332463478785F537464506572697078
:1032B000685F4472697665725C7372635C73746D87
:1032C0003332663478785F74696D2E6300000000D5
:1032D000010000BF09D0B0FA80F18840C91CC1F5D7
:1032E0008461090501EBD02140057047B0B581EA42
:1032F000030C0CF0004C40F2FF7515EA11541DBF91
:1033000015EA1357AC42AF4239E0E41923EA4553BA
:1033100043F48013C90241F0004141EA505EC70204
:103320001100A7FB020200284FF00000EEFB012075
:103330004FF00001E3FB072118BF42F001024018E3
:1033400000214941E3FB0E01A4F580640F0302D282
:1033500052004041494154F101046CDD470872F1CB
:10336000004250F1000051EB0451A1F580115CBF07
:1033700041EA0C01B0BD4CEA05510020B0BD05EAA0
:103380001357AC4214BFAF4241E050EA410E1CBF9C
:1033900052EA430E02E061460020B0BD24423C44A4
:1033A0001BD15FEA070EF6D0090302BF01460020D9
:1033B000AEF1140EB1FA81F7AEEB070401FA07FE85
:1033C0000C37C7F1200100FA07F7C8404EEA000E9B
:1033D00023EA455343F48013A2E733F00043B3FAE2
:1033E00083F704BFB2FA82FE77440B3FE41BB7F1C8
:1033F000200E2FBF02FA0EF3BB40C7F1200E22FAB7
:103400000EFE38BF43EA0E03BA40641C82E750EA5E
:10341000410E14BF52EA430E6FF000014FF4001743
:1034200017EB430F8ABF194617EB410FB5E74CEA7C
:1034300005510020B0BDD4F10104B4F120070FDA2A
:10344000C4F12007520828BF42F0010210FA07F524
:1034500001FA07F7E1BF2A43E0403843E1400FE0BB
:10346000352C98DCC7F1200452EA400220FA07F21A
:1034700018BF42F0010231FA07F0A1400A430021CF
:1034800072F1004250F1000051EB0C01B0BD0000A0
:10349000F0B540F2FF7581EA030C0CF0004C15EA20
:1034A00011541DBF15EA1357AC42AF42E5E0BC41D1
:1034B000C1F31301C3F31303801A994143F480133A
:1034C00004D2641E4000494180185941C90241EAB2
:1034D0005051B1FBF3F603FB1611A2FB0675D7EBB7
:1034E000C020A94102D2761E80185941C90241EA82
:1034F0005051B1FBF3FE03FB1E11A2FB0E75D7EB7F
:10350000C020A94103D2AEF1010E801859418902B1
:1035100041EA9051760546EA8E2EB1FBF3F603FBA5
:103520001611A2FB0675D7EB8020A94102D2761EA8
:1035300080185941C90241EA50514EEA060EB1FBCA
:10354000F3F603FB1611A2FB0675D7EBC020A941C9
:1035500002D2761E80185941C90241EA5051B1FB8E
:10356000F3F703FB1711A2FB0735D3EBC020A941EA
:1035700067F100070CBF004247F0010766F3D5274B
:103580004FEA1E31B80814F5806412DDBD0775F1ED
:10359000004250EB0E5051EB045111F5801F5CBFFF
:1035A00041EA0C01F0BD4CF07F6141F0E0410020A8
:1035B000F0BDBD076D0840EA0E5041F48011D4F112
:1035C0000104B4F120060ADAC4F120060200E0404A
:1035D00001FA06F3E1401843B24015430EE0342CE3
:1035E00013DCC6F1200445EA40056D0820FA06F216
:1035F000154321FA06F0A1400D43002175F1004268
:1036000050F1000051EB0C01F0BD00205FEA0C010D
:10361000F0BDCFB992185B41B3FA83F704BFB2FA99
:1036200082F6BF190B3FB7F120062FBF02FA06F34F
:10363000BB40C7F1200622FA06F638BF3343BA4032
:103640001CB1E419641E33E77F4231F00041B1FA46
:1036500081F404BFB0FA80F6A4190B3CB4F1200643
:103660002FBF00FA06F1A140C4F1200620FA06F6A9
:1036700038BF3143A0403C1B1AE7AC421ABF05EAF1
:103680001357AF4212E050EA41061CBF52EA43060C
:10369000BFE750EA4107304661461CBF41EA055189
:1036A000F0BD52EA430C08BFC143F0BD00204FF407
:1036B000001616EB410F98BF16EB430F08BF16EB31
:1036C000410F24BFC14305E016EB430F0CBF614619
:1036D0004CEA0551F0BD0000F446400D40EAC1201F
:1036E000490006D200F00EF8004248BF6FF00040DB
:1036F000604700F007F84FF0004188428CBF084651
:103700004042604740F00040490DA1F58061491CEE
:1037100005D4D1F11F0154BFC840C01770474FF006
:10372000000070473348344A82B0016841F47001A8
:1037300001603248016841F00101016000218160AF
:103740000168114001602E494160016821F4802127
:1037500001600021C16001910091016841F4803154
:103760000160016801F4003100910199491C019147
:10377000009919B90199B1F5A06FF2D10168490C0E
:1037800001F001010091009901292CD1016C41F057
:10379000805101641B490A6842F480420A608168D2
:1037A0008160816841F400418160816841F4A051E9
:1037B000816015494160016841F0807101600168D4
:1037C0008901FCD540F2056210490A6081688908C8
:1037D00089008160816841F002018160816801F0A7
:1037E0000C010829FAD14FF000610948016002B0CC
:1037F0007047000088ED00E0FFFFF6FE0038024051
:10380000103000240070004019544007003C024072
:1038100008ED00E010B5074979441831064C7C44A6
:10382000163404E00A68081D511888470146A14271
:10383000F8D110BD080000002800000097EAFFFF43
:103840002C05000084040020000000000BE2FFFFB4
:1038500084040000040200000000002000000000BA
:103860004EF68851CEF20001086840F470000860FE
:103870004FF00070E1EE100A7047000000F009F808
:10388000002801D0FFF7C6FF0020FDF76BFD00F018
:1038900002F80120704700F001B8000007463846E2
:1038A00000F002F8FBE7000080B5C046C046024ABF
:1038B00011001820ABBEFBE7260002007047FEE7B0
:1038C000FEE7FEE7FEE7704770477047FFF77EBAF6
:1038D000014880470148004725370008E1380008C3
:1038E000C046C046FFF7BCFFFFF7C8FFFFF7E6BFC3
:1038F000FFF7E5BFFFF7E4BFFFF7E3BFFFF7E2BF66
:10390000FFF7E1BFFFF7E0BFFFF7DFBFFFF7DEBF65
:10391000FFF7FEBFFFF7FEBFFFF7FEBFFFF7FEBFDB
:10392000FFF7FEBFFFF7FEBFFFF7FEBFFFF7FEBFCB
:10393000FFF7FEBFFFF7FEBFFFF7FEBFFFF7FEBFBB
:10394000FFF7FEBFFFF7FEBFFFF7FEBFFFF7FEBFAB
:10395000FFF7FEBFFFF7FEBFFFF7FEBFFFF7FEBF9B
:10396000FFF7FEBFFFF7FEBFFFF7FEBFFFF7FEBF8B
:10397000FFF7FEBFFFF7FEBFFFF7FEBFFFF7FEBF7B
:10398000FFF7FEBFFFF7FEBFFFF7FEBFFFF7FEBF6B
:10399000FFF7FEBFFFF7FEBFFFF7FEBFFFF7FEBF5B
:1039A000FFF7FEBFFFF7FEBFFFF7FEBFFFF7FEBF4B
:1039B000FFF7FEBFFFF7FEBFFFF7FEBFFFF7FEBF3B
:1039C000FFF7FEBFFFF7FEBFFFF7FEBFFFF7FEBF2B
:1039D000FFF7FEBFFFF7FEBFFFF7FEBFFFF7FEBF1B
:1039E000FFF7FEBFFFF7FEBFFFF7FEBFFFF7FEBF0B
:1039F000FFF7FEBFFFF7FEBFFFF7FEBFFFF7FEBFFB
:103A0000FFF7FEBFFFF7FEBFFFF7FEBFFFF7FEBFEA
:103A1000FFF7FEBFFFF7FEBFFFF7FEBFFFF7FEBFDA
:103A2000FFF7FEBFFFF7FEBFFFF7FEBFFFF7FEBFCA
:103A3000FFF7FEBFFFF7FEBFFFF7FEBFFFF7FEBFBA
:103A4000FFF7FEBFFFF7FEBFFFF7FEBFFFF7FEBFAA
:103A5000FFF7FEBFFFF7FEBFFF0000220193024009
:103A600003000400058D06030702081409F30A0F7A
:103A70000BD00CDC0D150E800F001000115C121322
:103A800013801480150016C31730184419001A90BB
:103A90001B001C271D7F1E081F002050214222F002
:103AA00023D824BC25B82644272A280029002A78B0
:103AB0002B442C302D042EA52FE030103100320085
:103AC0003305349A353036003700388E39003A00E5
:103AD0003B003C003D003E003F00400041204204CE
:103AE0004322441845504620470048CF49614A13B5
:103AF0004B134C004D304E004F005000512052FFF0
:103B00005310542055FA56005700580059005A00D7
:103B10005B305C005D305E005F0060006180628051
:103B2000630164006580662C6700680069006A00B4
:103B30006B006C006D006E006F00706071807280B1
:103B40007380748075807680773F780A79007A3048
:103B50007B007C1C7D087EF67F088010810D82032F
:103B6000830084678594861887E888CA89028A0A50
:103B70008B048C008D008E008F00900091069206C1
:103B800093069400954096009700980099089A0033
:103B90009B319C009D009E009F01A000A100A200FF
:103BA000A322A40EA532A600A700A800A950AA002F
:103BB000AB44AC0FAD00AE00AF00B040B100B2CC32
:103BC000B301B410B520B633B712B801B929BAE0C1
:103BD000BB12BC00BD0CBEC2BF00C000C100C20011
:103BE000C300C440C500C600C700C800C900CA0061
:103BF000CB00CC00CD00CE00CF00D0C9D14CD2FF3D
:103C0000D307D400D53FD600D700D800D900DA3D7D
:103C1000DBC3DCFCDD00DE00DF00E000E100E200F1
:103C2000E300E400E500E600E700E800E900EA0060
:103C3000EB00EC00ED00EE00EF00F000F120F200F0
:103C4000F300F416F500F600F700F800F920FA90FA
:103C5000FB00FC40FD34FE00FF00FF0100000140BE
:103C600002BF0386040005000600070008000900E3
:103C70000A000B000C000D000E000F0010001100D8
:103C80001200130014001500160017001800190088
:103C90001A001B001C001D001E001F002000210038
:103CA00022002300240025002600270028002900E8
:103CB0002A002B002C002D002E002F0030F231ADF9
:103CC0003204338034843500362037003800390020
:103CD0003A003B003C003D003E003F0040004100F8
:103CE00042EE4300440045004600470048004900BA
:103CF0004A004B004C004D004E004F005000510058
:103D000052005300540055005600574158025900C4
:103D10005A005B005C005D005E005F0060006100B7
:103D20006200630064006500660067006800690067
:103D30006A006B006C006D006E006F007000710017
:103D400072007300740075007600775A7800797FEE
:103D50007A017B0E7C007D207E017FE28000810065
:103D60008207831F8464850086008700880089009D
:103D70008A028B4D8C008D008E028F0E900391591C
:103D8000920393579400950196009700980099002C
:103D90009A009B369C009D019E009F00A002A16896
:103DA000A200A352A400A524A600A701A800A90070
:103DB000AA00AB00AC00ADF6AE00AF6AB002B10332
:103DC000B288B300B400B500B600B700B800B900BF
:103DD000BA00BB00BC00BD00BE00BF00C005C1C72B
:103DE000C203C303C45AC511C620C704C800C90012
:103DF000CA00CB10CC04CD00CE00CF24D000D1F02F
:103E0000D2F0D3F0D420D500D610D700D842D910A4
:103E1000DA80DB80DC20DD01DE00DF00E000E10095
:103E2000E200E300E400E500E600E700E800E90066
:103E3000EA00EB00EC00ED00EE00EF00F0F0F10026
:103E4000F2ADF319F400F5E8F600F7E8F800F90030
:103E5000FA00FB00FC00FD00FE00FF010000000076
:103E600000000000000000000014024000140240A6
:103E700000140240001402400014024000140240EA
:103E80000014024000140240001402400000000030
:103E90000000000000000000000000000102030418
:103EA00006070809007A030A000000000102030463
:103EB00001020304060708090000000000000000DA
:103EC0000000000000400008001001400000024017
:0C3ED000000002404D3C2B1A8D7C6B5A08
:04000005080038E1D6
:00000001FF
