:020000040800F2
:10000000980D0020513500083D3500083F350008A7
:100010004135000843350008453500080000000060
:10002000000000000000000000000000473500084C
:1000300049350008000000004B3500084D35000828
:100040009135000895350008993500089D35000860
:10005000A1350008A5350008A9350008AD35000810
:10006000B1350008B5350008B9350008BD350008C0
:10007000C1350008C5350008C9350008CD35000870
:10008000D1350008D5350008D9350008DD35000820
:10009000E1350008E5350008E9350008ED350008D0
:1000A000F1350008F5350008F9350008FD35000880
:1000B0000136000805360008093600080D3600082C
:1000C0001136000815360008193600081D360008DC
:1000D0002136000825360008293600082D3600088C
:1000E0003136000835360008393600083D3600083C
:1000F0004136000845360008493600084D360008EC
:100100005136000855360008593600085D3600089B
:100110006136000865360008693600086D3600084B
:100120007136000875360008793600087D360008FB
:100130008136000885360008893600088D360008AB
:100140009136000895360008993600089D3600085B
:10015000A1360008A5360008A9360008AD3600080B
:10016000B1360008B5360008B9360008BD360008BB
:10017000C1360008C5360008C9360008CD3600086B
:10018000D1360008D536000800B5DFF8DC080021BC
:10019000017083B0012141708170C1700C21017127
:1001A000002141718171D0E90023CDE90023DDE90F
:1001B000000100F0F5FD03B000BDF0B58DB0DFF833
:1001C000AC0802A9016000A9416004A9816006A9E8
:1001D000C16000219DF8080000F0FC008DF80800C7
:1001E00000F0F3008DF8080000F00F0040F0300040
:1001F0008DF8080002A8417081700721C1700021AC
:100200000171417901F0F00141F0010141713121A9
:100210004171422181712421C17108219DF80000A2
:1002200000F0FC008DF8000000F0F3008DF80000F5
:1002300000F0CF008DF8000000F03F008DF80000C6
:1002400000A8417010218170C17801F0F001C170E7
:100250000021C17041609DF8100000F0F0008DF8A1
:10026000100080208DF8100004A8417801F0F00102
:10027000417050214170817801F0F00141F0050199
:10028000817055218170C17801F0F00141F00801C1
:10029000C1702821C170017901F0F00141F007011E
:1002A000017127210171FF21417100200690002179
:1002B00006A841608160C16001618DF82C100FF2C9
:1002C000C87000F0DDFD0021002000F066FC002178
:1002D000084600F062FC0021084600F05EFC0024A5
:1002E00002AD00AE04AF15F8011B04F1080000F0E8
:1002F00054FC052000F0E4FD16F8011B04F1100089
:1003000000F04BFC052000F0DBFD17F8011B04F1A9
:10031000180000F042FC052000F0D2FD641C082CFF
:10032000E1DB0FF27C7000F0ABFD002406AD15F8A8
:10033000011B04F1320000F030FC052000F0C0FD8C
:10034000641C152CF3DB0024FF2104F1640000F091
:1003500024FC052000F0B4FD641C4F2CF4DB0FF2EC
:10036000587000F08DFD0024FF2104F1C80000F05A
:1003700014FC052000F0A4FD641C1E2CF4DB0024FA
:10038000FF2104F1E60000F008FC052000F098FDD4
:10039000641C1D2CF4DB0FF2387000F071FDFFF7C8
:1003A000F3FE0FF2447000F06BFD0DB0F0BD00B530
:1003B00085B000A800F0A9FD012000F097FD012103
:1003C000012000F0E9FD0121022000F0E5FD0121FE
:1003D000042000F0E1FD0121082000F0DDFD0121F5
:1003E000102000F0D9FD0121202000F0D5FD0121D1
:1003F000402000F0D1FD0021012000F0EFFD01219F
:10040000042000F00CFE0121082000F008FE01216C
:100410004FF4804000F003FE01214FF4003000F063
:10042000FEFD01214FF4002000F0F9FD01214FF005
:10043000007000F0F4FD01214FF0806000F0EFFD4E
:100440000121022000F00DFE0121102000F009FE24
:1004500001214FF4805000F004FE01214FF4804050
:1004600000F0FFFD05B000BD2DE9FC414FF4C05088
:10047000009002208DF8040000208DF80600012075
:100480008DF8070002208DF8050000A9DFF8E0854F
:10049000404600F06BFE09220C21404601F01FF897
:1004A00009220B21404601F01AF86020009002203A
:1004B0008DF8040000208DF8060001208DF807005B
:1004C00002208DF8050000A9DFF8A845204600F0BD
:1004D0004DFE09220621204601F001F809220521DE
:1004E000204600F0FCFF0C20009000A902208DF8AF
:1004F000040000208DF8060001208DF8070002207E
:100500008DF80500404600F031FE072202214046EA
:1005100000F0E5FF07220321404600F0E0FF4FF422
:100520004067009701208DF8040000A900208DF895
:10053000060001208DF8070002208DF805002046F6
:1005400000F014FE0320009000A902208DF80400A2
:1005500000208DF8060001208DF8070002208DF89C
:100560000500404600F002FE08220021404600F04F
:10057000B6FF08220121404600F0B1FF4FF4805041
:10058000009001208DF8040000208DF80600012065
:100590008DF8070002208DF8050000A9DFF8D85477
:1005A000284600F0E3FD0420009001208DF80400AF
:1005B00000208DF8060001208DF8070002208DF83C
:1005C000050000A9DFF8B464304600F0CFFDB0208C
:1005D000009000A901208DF8040000208DF806008D
:1005E00001208DF8070002208DF80500404600F03C
:1005F000BDFD4020009000A900208DF804008DF87A
:10060000060001208DF8070002208DF80500404605
:1006100000F0ACFD009701208DF8040000A9002037
:100620008DF8060001208DF8070002208DF80500E6
:10063000284600F09BFD4FF47040009000A9012077
:100640008DF8040000208DF8060001208DF80700C9
:1006500002208DF80500204600F088FD082000905B
:1006600000A903208DF804000020ADF80600022048
:100670008DF80500284600F079FD07200090012044
:100680008DF8040000208DF8060001208DF8070089
:1006900002208DF8050000A9DFF8E473384600F069
:1006A00065FD4FF47C40009000A900208DF8040007
:1006B0008DF8060001208DF8070002208DF8050056
:1006C000384600F053FD0120009000A900208DF86D
:1006D00004008DF8060001208DF8070002208DF837
:1006E0000500204600F042FD0220009000A90120F4
:1006F0008DF8040000208DF8060001208DF8070019
:1007000002208DF80500204600F030FD10200090FA
:1007100000A901208DF8040000208DF806000120BA
:100720008DF8070002208DF80500284600F01EFD18
:100730002020009000A900208DF804008DF806000C
:1007400001208DF8070002208DF80500284600F0F2
:100750000DFD4020009000A902208DF8040000202B
:100760008DF8060001208DF8070003208DF80500A4
:10077000284600F0FBFC03220621284600F0AFFECD
:100780008020009000A901208DF8040000208DF841
:10079000060001208DF8070002208DF8050028468C
:1007A00000F0E4FC4FF48070009000A901208DF867
:1007B000040000208DF8060001208DF807000220BB
:1007C0008DF80500404600F0D1FC4FF40070009019
:1007D00000A901208DF8040000208DF806000120FA
:1007E0008DF8070002208DF80500284600F0BEFCB9
:1007F0004FF40060009001208DF8040000208DF877
:10080000060001208DF8070002208DF8050000A9E0
:10081000DFF87082404600F0A9FC4FF400470097D3
:1008200001208DF8040000A900208DF806000120A9
:100830008DF8070002208DF80500404600F096FC78
:100840004FF44070009000A901208DF804000020B2
:100850008DF8060001208DF8070002208DF80500B4
:10086000204600F083FC4FF46050009000A9012066
:100870008DF8040000208DF8060001208DF8070097
:1008800002208DF80500304600F070FCFF2000903B
:1008900000A901208DF8040000208DF80600012039
:1008A0008DF8070002208DF80500404600F05EFC40
:1008B0004FF4E840009000A901208DF804000020CA
:1008C0008DF8060001208DF8070002208DF8050044
:1008D000404600F04BFC009701208DF8040000A971
:1008E00000208DF8060001208DF8070002208DF809
:1008F0000500284600F03AFC4FF48040009000A923
:1009000001208DF8040000208DF8060001208DF8EC
:10091000070002208DF80500284600F027FC00F0B3
:1009200002F8BDE8F38130B583B0042000900120C7
:100930008DF8040000208DF8060001208DF80700D6
:1009400002208DF8050000A94B4C204600F00EFC5B
:100950004FF48070009000A901208DF80400002061
:100960008DF8060001208DF8070002208DF80500A3
:10097000204600F0FBFB8020009001208DF8040051
:1009800000208DF8060001208DF8070002208DF868
:10099000050000A9374D284600F0E8FB4FF4004061
:1009A000009000A901208DF8040000208DF80600B9
:1009B00001208DF8070002208DF80500204600F088
:1009C000D5FB0421204600F0FFFC4FF48071204647
:1009D00000F0FAFC4FF40041204600F0F5FC8021C5
:1009E000284600F0F1FC03B030BD80B5FFF7DFFC16
:1009F000BDE8014038E538B502211E4800F0E4FCAE
:100A00001D4C1021204600F0DFFC8021204600F024
:100A1000DBFC1C4D4FF40061284600F0D5FC4FF480
:100A20000041284600F0D0FC4FF48051204600F0F1
:100A3000CBFC0421114800F0C7FC4FF48041204654
:100A400000F0C2FC4FF40071204600F091FC4FF41E
:100A50008071074800F0B8FC2046BDE834404FF4F0
:100A6000004100F0B1BC000088050020780500209E
:100A7000000002400004024000080240000C024056
:100A800000140240001802400A0D496E6974696141
:100A90006C697A65203A2031302025250A0D000046
:100AA000496E697469616C697A65203A2033302037
:100AB00025250A0D00000000496E697469616C69A2
:100AC0007A65203A2036302025250A0D00000000E6
:100AD000496E697469616C697A65203A20393520FC
:100AE00025250A0D00000000496E697469616C6972
:100AF0007A65203A203130302025250A0D0A0D0074
:100B000000B50100DFF8500183B001694FF40072B5
:100B10004FF6FF5308D019404161009201218DF832
:100B200004108DF8051005E0194041610092002184
:100B30008DF8041000A900F019FB03B000BD70B5DA
:100B400004460825DFF81061E4B2E0094FF40071B3
:100B5000304602D000F00CFC01E000F035FC4FF410
:100B60008071304600F004FC64004FF48071304620
:100B700000F02AFC6D1EE7D14FF40071304600F002
:100B800023FC4FF48071304600F0F2FB3046BDE8A4
:100B900070404FF4807100F017BC70B504460D46EC
:100BA0002D4E4FF40071304600F0E2FB0120FFF7BC
:100BB000A7FF4FF40071304600F0DAFB4FF480716C
:100BC000304600F0D5FB4FF40071304600F0FCFBDE
:100BD0004FF48071304600F0F7FBA020FFF7AFFF25
:100BE0002004000EFFF7ABFFE0B25FE038B504462B
:100BF000194D4FF40071284600F0BAFB0120FFF7B1
:100C00007FFF4FF40071284600F0B2FB4FF4807173
:100C1000284600F0ADFB4FF40071284600F0D4FBED
:100C20004FF48071284600F0CFFBD020FFF787FFFC
:100C30000A20FFF784FF2046FFF781FF4FF4007181
:100C4000284600F0C1FB4FF48071284600F090FB6D
:100C50002846BDE834403BE00004024070B504463D
:100C60000D46014E02E000BF000402404FF4007147
:100C7000304600F07DFB0120FFF742FF4FF400718A
:100C8000304600F075FB4FF48071304600F070FB89
:100C90004FF40071304600F097FB4FF480713046FE
:100CA00000F092FBD020FFF74AFF2046FFF747FFF6
:100CB0002846FFF744FF4FF40071304600F084FBF4
:100CC0004FF48071304600F053FB3046BDE8704071
:100CD0004FF4007100F04CBB64280CDA0A2190FB41
:100CE000F1F10A0150FA82F001EB8102A0EB42011E
:100CF000C9B20820B2E7704701460D290DDA60B18C
:100D00000A2091FBF0F0020151FA82F100EB80021F
:100D1000A1EB4201C9B20720A0E770470146202994
:100D20000DDA60B10A2091FBF0F0020151FA82F174
:100D300000EB8002A1EB4201C9B206208EE77047AA
:100D400018280CDA0A2190FBF1F10A0150FA82F01E
:100D500001EB8102A0EB4201C9B204207EE770479B
:100D60003C280CDA0A2190FBF1F10A0150FA82F0DA
:100D700001EB8102A0EB4201C9B203206EE770478C
:100D80003C280CDA0A2190FBF1F10A0150FA82F0BA
:100D900001EB8102A0EB4201C9B202205EE770477D
:100DA00003B581B002210020FFF758FF9DF8040031
:100DB000FFF792FF9DF80500FFF79EFF9DF80600E4
:100DC000FFF7ACFF9DF80710082903DA11B10520E1
:100DD000FFF744FF9DF80800FFF7B2FF9DF80900F8
:100DE000FFF7BEFF9DF80A00FFF7CAFF00210020B1
:100DF000FFF734FF03B05DF804EB002101202DE77D
:100E0000F0B4284A002300240A25B1FBF2F606F1CB
:100E100030071F5402FB16110A265B1CB2FBF6F2C8
:100E20001E1816F8016C302E06BF002C0023641C1F
:100E30006D1EEAD1F0BC704738B504461A4D20212A
:100E4000284600F061FD10B1A8882070012032BD55
:100E500010B5154C2021204600F056FD0028F9D091
:100E6000A088C0B210BD10B50F4C0146204600F05E
:100E70000CFD8021204600F047FD0028F9D010BD70
:100E800038B50446084D09E0284600F0FEFC8021F4
:100E9000284600F039FD0028F9D0641C217800298B
:100EA000F2D131BD00CA9A3B0010014003480168ED
:100EB00011B10168491E01607047000090050020D3
:100EC00082B00021019144F2682108E0009A521C8E
:100ED0000092009A8A42F9D3019A521C0192019A17
:100EE000824238BF0022F3D302B0704710B504002D
:100EF00018BF012C05D040F209210FF2DC1000F0E0
:100F000085FEDFF8A801046010BDDFF89C114A6877
:100F100002F00C02042A02D0082A03D01CE0DFF8F9
:100F200090211BE00A680B68C2F3805203F03F0374
:100F3000002A14BFDFF87821DFF87821B2FBF3F242
:100F40000B68C3F388135A430B68C3F301435B1C5C
:100F50005B00B2FBF3F201E0DFF8582102604B685E
:100F6000DFF85421D0F800C0C3F303139B5C2CFAC4
:100F700003F343604B68D0F804C0C3F382239B5C47
:100F80002CFA03F3836049684368C1F34231895CFA
:100F900023FA01F1C160704738B50446DFF81C013F
:100FA0000D46044200D12CB94FF488610FF228108D
:100FB00000F02CFE65B1012D05D00FF21C1040F29F
:100FC000424100F023FEDFF8F8000168214303E00E
:100FD000DFF8EC000168A143016031BD38B504467B
:100FE00060080D46400000D12CB940F27B410FF261
:100FF000E80000F00BFE65B1012D05D00FF2D8001E
:1010000040F27C4100F002FEDFF8B80001682143A5
:1010100003E0DFF8B0000168A143016031BD38B5DD
:101020000446DFF8A4000D46044200D12CB940F27A
:10103000AD410FF2A40000F0E9FD65B1012D05D02E
:101040000FF2940040F2AE4100F0E0FDDFF87C00CA
:101050000168214303E0DFF874000168A1430160E7
:1010600031BD38B50446DFF868000D46044200D1B2
:101070002CB940F2D5410FF2600000F0C7FD65B118
:10108000012D05D00FF2500040F2D64100F0BEFD18
:10109000DFF840000168214303E0DFF83800016811
:1010A000A143016031BD0000043802404C004742BA
:1010B00040787D010024F4003800002000EE8B8190
:1010C0003038024038380240003601C9403802400A
:1010D000CCA0F8FF44380240433A5C546F6F6C7305
:1010E0005C4941522053797374656D735C456D6240
:1010F000656464656420576F726B62656E63682017
:10110000362E355C576F726B53706163655C5B3173
:1011100034303830315D20574C3946204D6F6E6980
:10112000746F72202D2053544D33325F4941505C0F
:101130004C69627261726965735C53544D33324617
:101140003478785F5374645065726970685F447274
:10115000697665725C7372635C73746D3332663486
:1011600078785F7263632E63000000002DE9F84316
:1011700004460026DFF864040D4684421CBFDFF8F5
:10118000600484421FD0DFF85C0484421CBFDFF897
:101190005804844217D0DFF8540484421CBFDFF89F
:1011A000500484420FD0DFF84C0484421FBFDFF8A4
:1011B00048048442DFF84404844204D0BB210FF287
:1011C000404000F023FD286820B90FF23440BC21D4
:1011D00000F01CFD2879002818BF012808D002283B
:1011E00018BF032804D0BD210FF2144000F00EFDFB
:1011F000E87940B1012818BF022804D00FF200405E
:10120000BE2100F003FD012000FA06F8286808EA74
:101210000000404546D177000320B8406FEA00093E
:10122000206809EA0000206020682979B940084355
:1012300020602879012818BF02282AD1687900285F
:1012400018BF012808D0022818BF032804D0D021D5
:101250000FF2AC3000F0DAFCA06809EA0000A060F0
:10126000A0686979B9400843A060A879002818BF30
:10127000012804D0D7210FF2883000F0C7FC606845
:1012800020EA080060606068A979B14089B208432B
:101290006060E06809EA0000E060E068E979B94070
:1012A0000843E060761C102EADD3BDE8F18370B525
:1012B00004460026DFF824030D4684421CBFDFF8F5
:1012C0002003844220D0DFF81C0384421CBFDFF8D7
:1012D0001803844218D0DFF8140384421CBFDFF8DF
:1012E0001003844210D0DFF80C0384421FBFDFF8E4
:1012F00008038442DFF80403844205D04FF4987158
:101300000FF2FC2000F082FC012D18BF022D29D025
:10131000042D18BF082D25D0102D18BF202D21D049
:10132000402D18BF802D1DD0B5F5807F18BFB5F5B5
:10133000007F17D0B5F5806F18BFB5F5006F11D0DD
:10134000B5F5805F18BFB5F5005F0BD0B5F5804FE0
:1013500018BFB5F5004F05D00FF2A42040F23111AF
:1013600000F054FC2069284218BF0126304670BDA9
:1013700038B5044699480D4684421CBF98488442BB
:1013800019D0984884421CBF9748844213D097488C
:1013900084421CBF964884420DD0964884421FBFA9
:1013A000954884429548844205D040F27F110FF25F
:1013B000502000F02BFC2DB90FF244204FF4C071E7
:1013C00000F024FC258331BD38B5044683480D4622
:1013D00084421CBF8248844219D0824884421CBF88
:1013E0008148844213D0814884421CBF8048844293
:1013F0000DD0804884421FBF7F4884427F4884428A
:1014000005D04FF4C9710FF2F81000F0FFFB2DB9B1
:101410000FF2EC1040F2931100F0F8FB658331BD40
:1014200070B504466D480D46164684421CBF6C4894
:10143000844219D06B4884421CBF6B48844213D04D
:101440006A4884421CBF6A4884420DD0694884427D
:101450001FBF694884426948844205D04FF4D37164
:101460000FF29C1000F0D2FB012D18BF022D29D0E5
:10147000042D18BF082D25D0102D18BF202D21D0E8
:10148000402D18BF802D1DD0B5F5807F18BFB5F554
:10149000007F17D0B5F5806F18BFB5F5006F11D07C
:1014A000B5F5805F18BFB5F5005F0BD0B5F5804F7F
:1014B00018BFB5F5004F05D00FF2441040F2A71148
:1014C00000F0A4FB4EB1012E05D04FF4D4710FF201
:1014D000301000F09BFB258370BD658370BD70B537
:1014E00006463E480D46144686421CBF3C4886428E
:1014F00019D03C4886421CBF3B48864213D03B482B
:1015000086421CBF3A4886420DD03A4886421FBFE9
:10151000394886423948864205D040F217210FF2F9
:10152000E00000F073FB002D18BF012D21D0022D2B
:1015300018BF032D1DD0042D18BF052D19D0062D61
:1015400018BF072D15D0082D18BF092D11D00A2D51
:1015500018BF0B2D0DD00C2D18BF0D2D09D00E2D41
:1015600018BF0F2D05D00FF298004FF4067100F050
:101570004DFB002C18BF092C1ED0012C18BF022CCB
:101580001AD0032C18BF042C16D0052C18BF062C1B
:1015900012D0072C18BF082C0ED00A2C18BF0B2C09
:1015A0000AD00C2C1CBF0D2C0F2C05D040F2192199
:1015B0000FF24C0000F02AFBE80806EB800005F073
:1015C00007018900026A0F238B409A43026204FAE2
:1015D00001F1026A1143016270BD00000000024087
:1015E0000004024000080240000C024000100240CB
:1015F0000014024000180240001C0240002002407B
:10160000433A5C546F6F6C735C4941522053797359
:1016100074656D735C456D62656464656420576FC5
:10162000726B62656E636820362E355C576F726B25
:1016300053706163655C5B3134303830315D205705
:101640004C3946204D6F6E69746F72202D205354B3
:101650004D33325F4941505C4C6962726172696519
:10166000735C53544D3332463478785F537464500E
:1016700065726970685F4472697665725C737263E3
:101680005C73746D3332663478785F6770696F2E7F
:1016900063000000F0B50446DFF84C72DFF86062CA
:1016A00085B00D46BC421CBFDFF84002844213D017
:1016B000DFF83C0284421CBFDFF8380284420BD0C2
:1016C000DFF8340284421CBFDFF83002844203D0CA
:1016D000EB21304600F09AFA286818B1DFF824129E
:1016E000884203D3EC21304600F090FAA888002805
:1016F00018BFB0F5805F03D0ED21304600F086FAC8
:10170000E888002818BFB0F5805F09D0B0F5005F09
:1017100018BFB0F5405F03D0EE21304600F076FAF6
:10172000288900281CBFB0F5806FB0F5C06F03D0CA
:10173000EF21304600F06AFA68894FF6F3710842EB
:1017400000D118B9F021304600F060FAA889F8B14C
:10175000B0F5807F1CBFB0F5007FB0F5407F05D0AD
:10176000F121304600F052FAA88988B1BC421CBF72
:10177000DFF8780184420BD0DFF8740184421CBF8B
:10178000DFF87801844203D0F621304600F03EFABB
:10179000208A4CF6FF710840E988084320824EF603
:1017A000F311A0890840A988084329890843698959
:1017B0000843A0814FF6FF41A08A0840A989084349
:1017C000A08200A8FFF7A1FBBC421BBFDFF82C01E1
:1017D000844203980298296819225043A28912046E
:1017E0004CBF49008900B0FBF1F16420B1FBF0F07F
:1017F00000010209642303FB1211A289120406D519
:10180000C9003231B1FBF3F101F0070105E0090134
:101810003231B1FBF3F101F00F010843208105B033
:10182000F0BD38B50446DFF8C0000D4684421CBF49
:10183000DFF8B800844215D0DFF8B40084421CBF42
:10184000DFF8B00084420DD0DFF8AC0084421CBF4A
:10185000DFF8A800844205D040F29B110FF2581027
:1018600000F0D4F95DB1012D05D00FF24C104FF40A
:10187000CE7100F0CBF9A08940F4005003E0A089BC
:101880004DF6FF710840A08131BD38B50446DFF840
:1018900058000D4684421CBFDFF85000844215D02A
:1018A000DFF84C0084421CBFDFF8480084420DD0B2
:1018B000DFF8440084421CBFDFF84000844205D0BA
:1018C00040F21D210FF2F00000F0A0F9B5F5007F05
:1018D00005DB0FF2E40040F21E2100F097F9E80565
:1018E000C00DA08031BD0000001001400044004048
:1018F00000480040004C00400050004000140140EF
:10190000B8190008E1707200F8B504460026244FAB
:101910000D46BC421CBF2348844211D02248844259
:101920001CBF224884420BD0214884421CBF21485E
:10193000844205D040F2FC410FF27C0000F066F9D1
:10194000012D18BF802D24D0402D18BF202D20D070
:10195000102D18BFB5F5807F1BD0B5F5007F07D0DF
:10196000082D1CBF042D022D13D040F2FD410CE0C8
:10197000BC421CBF0B4884420BD00B4884421CBFA6
:101980000C48844205D040F202510FF22C0000F0C6
:101990003DF92088284218BF01263046F2BD0000DC
:1019A000001001400044004000480040004C00404E
:1019B0000050004000140140433A5C546F6F6C7358
:1019C0005C4941522053797374656D735C456D6257
:1019D000656464656420576F726B62656E6368202E
:1019E000362E355C576F726B53706163655C5B318B
:1019F00034303830315D20574C3946204D6F6E6998
:101A0000746F72202D2053544D33325F4941505C26
:101A10004C69627261726965735C53544D3332462E
:101A20003478785F5374645065726970685F44728B
:101A3000697665725C7372635C73746D333266349D
:101A400078785F75736172742E6300002DE9FC4134
:101A500000F0E4F8FEF7C9FFFEF7CDFF0020FFF726
:101A6000C5F800F0FFFA0720009001208DF804006F
:101A700000208DF8060001208DF8070002208DF867
:101A8000050000A94E4C2046FFF770FB4FF47C4048
:101A9000009000A900208DF804008DF806000120B8
:101AA0008DF8070002208DF805002046FFF75EFB49
:101AB000444CFF220621204600F0F4FA0020208149
:101AC00006224FF47811204600F03AFAA178E07827
:101AD000090441EA0060617840EA01202178084366
:101AE00060633949606B88422AD0E0680022012196
:101AF000FFF796FC206901220221FFF791FC606943
:101B000001220421FFF78CFC00250FF2041604F1DA
:101B100018074FF0060836F8021B57F8040BFFF7BA
:101B2000C6FB401E8041C00F690051FA80F5B8F134
:101B30000108F0D11C2D02BF606B244988420DD1F1
:101B400006224FF47411204600F0FAF960792179E9
:101B500041EA00206081012020721BE006224FF440
:101B60007C11204600F0ECF9A178E078090441EA04
:101B70000060617840EA01202178084320632179E0
:101B8000607941EA002060811149206B884205D1CB
:101B90000120607200F026F800F01FFB0D480E4A8D
:101BA00001681140B1F1005F09D141680B4A116031
:101BB0000B4A1160006880F3088808468047FEE7FA
:101BC00000140240000000204D3C2B1A8D7C6B5A03
:101BD000D4C3B2A1004000080000FE2F7004002012
:101BE0006C04002000B585B04FF4E130009000A9EE
:101BF00000200190ADF80800ADF80C000C20ADF805
:101C00000A00002000F024FF05B000BDFEE7000040
:101C100000040008001000200040008080B500F0A3
:101C200099FFBDE80240F32001F09AB810B55B4877
:101C300000F066F8044600E00834592C07D202216F
:101C4000204600F093FF0828F6D0012010BD0020A8
:101C500010BD2DE9F04104460E4615460027DFF879
:101C6000408103E02068001D20607F1CAF423CBF24
:101C70002068404511D23168206800F0D3FF082861
:101C800008D1206856F8041B00688842EAD0022078
:101C9000BDE8F0810120BDE8F0810020BDE8F081C1
:101CA00010B53E4800F02CF8C40801F056F840F694
:101CB000FF71E040E140884201D1012010BD0020C9
:101CC00010BD00B583B00820019002200090334879
:101CD00000F016F8019001200199C9088840C0F56C
:101CE0008050009000F0CFFF0021009800F0D7FF57
:101CF00001F02DF8082814BF0220012003B000BD18
:101D00000021A0F10062B2F5804F45D325490918A2
:101D1000B1F5804F38BF08213ED323490918B1F5EA
:101D2000804F38BF102137D320490918B1F5804FB3
:101D300038BF182130D31E490918B1F5803F38BF8C
:101D4000202129D31B490918B1F5003F38BF2821AC
:101D500022D319490918B1F5003F38BF30211BD3F0
:101D600016490918B1F5003F38BF382114D314497A
:101D70000918B1F5003F38BF40210DD311490918AA
:101D8000B1F5003F38BF482106D30F490818B0F518
:101D9000003F34BF502158210846704700400008DA
:101DA000FCFF0F0800C0FFF70080FFF70040FFF7BF
:101DB0000000FFF70000FEF70000FCF70000FAF754
:101DC0000000F8F70000F6F70000F4F738B5044615
:101DD00000F027F9DFF8C452002210212846FFF74F
:101DE0001FFBD82000F0F3F82002000E00F0EFF8FF
:101DF0002004000E00F0EBF8E0B200F0E8F8012259
:101E000010212846FFF70CFBBDE8314014E12DE915
:101E1000F84304460F46164600F003F9DFF87C92BB
:101E2000002210214846FFF7FBFA022000F0CFF80D
:101E30003802000E00F0CBF83804000E00F0C7F8AE
:101E4000F8B200F0C4F82EB3012794F80080002502
:101E5000761E002220214846FFF7E2FAC5F107006E
:101E600007FA00F04146014214BF012200228021FE
:101E70004846FFF7D5FA012220214846FFF7D0FA5D
:101E800040214846FFF713FA6D1C082DE1DB641C66
:101E9000002EDAD1012210214846FFF7C1FABDE831
:101EA000F143C9E02DE9F04180460D46E8B2014614
:101EB0004E42F6B2170AD4B280B9002F39D07F1E35
:101EC0004FF4807229464046FFF7A1FFFFB205F5A7
:101ED000807508F58078002FF1D129E067B9A64216
:101EE00027DA324629464046FFF791FFA21BD2B2BD
:101EF000711906EB08001EE0921B92B2170AD4B2C9
:101F0000324629464046FFF782FF7519B044380033
:101F10000DD07F1E4FF4807229464046FFF777FFB1
:101F2000FFB205F5807508F58078002FF1D12CB14E
:101F3000224629464046BDE8F04168E7BDE8F08109
:101F40002DE9F84380460F461646DFF850910022EF
:101F500010214846FFF764FA032000F038F83802F1
:101F6000000E00F034F83804000E00F030F8F8B23B
:101F700000F02DF83EB3012700240025761E002234
:101F800020214846FFF74CFAC5F1070007FA00F098
:101F900010F0A50014BF0122002280214846FFF75F
:101FA0003FFA012220214846FFF73AFA40214846ED
:101FB000FFF77DF96D1C40EA4404082DDFDB08F8CB
:101FC000014B002ED8D14846BDE8F84346E02DE944
:101FD000F0410446002500260127DFF8C0800022DA
:101FE00020214046FFF71CFAC6F1070007FA00F06F
:101FF000044214BF0122002280214046FFF710FA5C
:10200000012220214046FFF70BFA40214046FFF70E
:102010004EF9761C40EA4505082EE0DBE8B2BDE843
:10202000F08110B51D4C002210212046FFF7F8F971
:102030000620FFF7CCFF0EE010B5184C002210214F
:102040002046FFF7EDF90520FFF7C1FFA520FFF7B8
:10205000BEFFC007FAD42046BDE81040012210217F
:10206000FFF7DEB910B50D4C002210212046FFF716
:10207000D7F9012210212046FFF7D2F9084C01229E
:102080004FF400612046FFF7CBF92046BDE8104031
:1020900001224FF48061FFF7C3B900000000024045
:1020A0000008024062F30F2262F31F4200B500BF36
:1020B000130096469446103928BFA0E80C50FAD871
:1020C0005FEA417C28BF0CC048BF40F8042BC90719
:1020D00028BF20F8022B48BF00F8012B00BD10B428
:1020E00050F8041B81B102681218001D50F8043B1F
:1020F000DC0744BFA9F10104E31852F8044B43F88C
:10210000044B091FF9D1EBE710BC704730B583B021
:1021100000A80FF238210A2200F0CCFE0FF238207E
:10212000FEF7AEFE85480078012802D101F0BAF82A
:1021300005E083480078012849D101F080F8044681
:10214000012C32DB0FF24C20FEF79AFE0FF26C20CE
:10215000FEF796FE7B4D05F10C00FEF791FE214641
:1021600000A8FEF74DFE0FF28C20FEF789FE00A8B6
:10217000FEF786FE0FF29020FEF782FE0FF294200B
:10218000FEF77EFE0FF2B020FEF77AFE0FF2B020CF
:10219000FEF776FE6C48416869602960006880F34C
:1021A00008880846804703B030BD14F1010F08BF0E
:1021B0000FF2B0200DD014F1020F08BF0FF2E4208F
:1021C00007D014F1030F08BF0FF2F42001D00FF273
:1021D0000830FEF755FE03B030BD38B50FF2983425
:1021E0002046FEF74DFE0FF2D0352846FEF748FE9A
:1021F0000FF20440FEF744FE2846FEF741FE0FF2C0
:102200003840FEF73DFE2846FEF73AFE0FF26840E2
:10221000FEF736FE0FF2A040FEF732FE0FF2D84076
:10222000FEF72EFE2846FEF72BFE0FF20C50FEF7AF
:1022300027FE2046FEF724FE3FA0FEF721FE414C7C
:10224000FFF72EFD401E8041C00FA06001E0FFF7A8
:102250005DFFFFF75BFF0FF22050FEF711FEA06855
:1022600018B10FF25450FEF70BFE0FF28C50FEF730
:1022700007FE0FF2C450FEF703FE0FF2FC50FEF70C
:10228000FFFD0FF23460FEF7FBFD0FF26C60FEF70E
:10229000F7FDFEF7DDFD3128D9D0322817D10FF236
:1022A0005820FEF7EDFDFEF7D3FD4328D1D14FF4C2
:1022B0007C220FF26021244800F0B7FE00280CBFFA
:1022C0000FF294200FF26420FEF7DAFDC1E7332805
:1022D00009D11D48416861602160006880F3088869
:1022E00008468047B5E7342808D10FF24C60FEF766
:1022F000C7FDFDF762FF0FF26460E5E7302804BF19
:10230000A06801280FD1FFF7DCFC012802D00228C9
:1023100006D09EE70FF26860FEF7B2FD002094E75A
:102320000FF27C60D0E7A068002814BF0FF2DC60D9
:102330000FF29860C8E700000D0A000008000020B6
:10234000090000206C04002000400008202020200C
:10235000202020202020000057616974696E6720CA
:10236000666F72207468652066696C6520746F20E2
:1023700062652073656E74202E2E2E202870726583
:1023800073732027612720746F2061626F72742934
:102390000A0D00000A0A0D2050726F6772616D6DA0
:1023A000696E6720436F6D706C657465642053754A
:1023B000636365737366756C6C7921000A0D2D2D4E
:1023C0002D2D2D2D2D2D2D2D2D2D2D2D2D2D2D2D3D
:1023D0002D2D2D2D2D2D2D2D2D2D2D2D2D2D0D0A70
:1023E0002053656E642046696C65204E616D653AC8
:1023F000200000000A0D2053656E642046696C655C
:102400002053697A653A20002042797465730D0A79
:10241000000000002D2D2D2D2D2D2D2D2D2D2D2DA0
:102420002D2D2D2D2D2D2D2D2D2D2D2D2D2D2D2DDC
:102430002D2D2D2D0A0000000D0A0D0A00000000B0
:102440004170706C69636174696F6E2050726F6760
:1024500072616D2052756E6E696E672E2E2E2E2E55
:102460000D0A00000A0A0D54686520696D616765F0
:102470002073697A652069732068696768657220CE
:102480007468616E2074686520616C6C6F77656438
:10249000207370616365206D656D6F7279210A0D1F
:1024A000000000000A0A0D5665726966696361746E
:1024B000696F6E206661696C6564210A0D00000019
:1024C0000D0A0A41626F7274656420627920757327
:1024D00065722E0A0D0000000A0D4661696C656484
:1024E00020746F2072656365697665207468652065
:1024F00066696C65210A0D000A0A0D53656C6563F7
:102500007420526563656976652046696C650A0DBD
:102510000000000055706C6F61646564466C617307
:1025200068496D6167652E62696E00000A0D45722B
:10253000726F72204F636375727265642077686989
:102540006C65205472616E736D697474696E672076
:1025500046696C650A0D00000A0D46696C652075B8
:10256000706C6F6164656420737563636573736613
:10257000756C6C79200A0D000D0A3D3D3D3D3D3DD9
:102580003D3D3D3D3D3D3D3D3D3D3D3D3D3D3D3D7B
:102590003D3D3D3D3D3D3D3D3D3D3D3D3D3D3D3D6B
:1025A0003D3D3D3D3D3D3D3D3D3D3D3D3D3D3D3D5B
:1025B0003D3D3D3D000000000D0A3D202020202033
:1025C000202020202020202020202020202020200B
:1025D00020202020202020202020202020202020FB
:1025E00020202020202020202020202020202020EB
:1025F0002020203D000000000D0A3D20202020204A
:1026000020202020202020205461654861204D6535
:1026100063686174726F6E69637320436F2E2C2040
:102620004C74642E202020202020202020202020D8
:102630002020203D000000000D0A3D20496E2D4164
:1026400070706C69636174696F6E2050726F67722D
:10265000616D6D696E67204170706C69636174694A
:102660006F6E2020202020202020202020202020CD
:102670002020203D000000000D0A3D2050726F6AAE
:102680006563742020202020203A20574C394620B2
:10269000446973706C617920284D6F6E69746F7234
:1026A000202620436C757374657229202020202019
:1026B0002020203D000000000D0A3D20456E766977
:1026C000726F6E6D656E7420203A20455741524DF1
:1026D0002076362E352C204C696272617279207614
:1026E000312E302E3020202020202020202020209D
:1026F0002020203D000000000D0A3D202020202049
:10270000202020202020202020202053544D333210
:1027100046347878205374616E6461726420506529
:10272000726970686572616C73204C696272617263
:102730007920203D000000000D0A3D20427920450F
:102740004353204469762E206B7574656C66202097
:102750002020202020202020202020202020202079
:102760002020202020202020202020202020202069
:102770002020203D000000000D0A3D3D3D3D3D3D37
:102780003D3D3D3D3D3D3D3D3D3D3D3D3D3D204D86
:1027900061696E204D656E75203D3D3D3D3D3D3D81
:1027A0003D3D3D3D3D3D3D3D3D3D3D3D3D3D3D3D59
:1027B0003D3D3D3D0D0A0A00202044697361626C75
:1027C00065207468652077726974652070726F7413
:1027D000656374696F6E202853544D33324634302C
:1027E0003720496E7465726E616C20466C61736847
:1027F0002920300D0A0A00002020446F776E6C6F8C
:102800006164204170706C69636174696F6E2074DB
:102810006F207468652053544D333246343037206E
:10282000496E7465726E616C20466C617368202D10
:102830002D20310D0A0A0000202055706C6F616454
:102840002020204170706C69636174696F6E20662E
:10285000726F6D20202053544D3332463430372070
:10286000496E7465726E616C20466C617368202DD0
:102870002D20320D0A0A000020204578656375740A
:102880006520546865204E65772050726F677261CD
:102890006D202D2D2D2D2D2D2D2D2D2D2D2D2D2D35
:1028A0002D2D2D2D2D2D2D2D2D2D2D2D2D2D2D2D58
:1028B0002D20330D0A0A00002020454550524F4D6F
:1028C00020496E697469616C697A6174696F6E2000
:1028D0002D2D2D2D2D2D2D2D2D2D2D2D2D2D2D2D28
:1028E0002D2D2D2D2D2D2D2D2D2D2D2D2D2D2D2D18
:1028F0002D20340D0A0A00003D3D3D3D3D3D3D3D4E
:102900003D3D3D3D3D3D3D3D3D3D3D3D3D3D3D3DF7
:102910003D3D3D3D3D3D3D3D3D3D3D3D3D3D3D3DE7
:102920003D3D3D3D3D3D3D3D3D3D3D3D3D3D3D3DD7
:102930003D3D0D0A0A000000454550524F4D2049CB
:102940006E697469616C697A6528436C6561722986
:102950002053746172742E2E2E0A0D00454550527C
:102960004F4D20496E697469616C697A6528436CC2
:102970006561722920456E642E2E2E0A0D0000001E
:1029800057726974652050726F74656374696F6EF5
:102990002064697361626C65642E2E2E0D0A00003E
:1029A0004572726F723A20466C6173682077726963
:1029B000746520756E70726F74656374696F6E20D4
:1029C0006661696C65642E2E2E0D0A00496E766173
:1029D0006C6964204E756D6265722021203D3D3E1C
:1029E00020546865206E756D6265722073686F751E
:1029F0006C642062652065697468657220312C20E2
:102A0000322C2033206F7220340D0000496E766125
:102A10006C6964204E756D6265722021203D3D3EDB
:102A200020546865206E756D6265722073686F75DD
:102A30006C642062652065697468657220302C20A2
:102A4000312C20322C2033206F7220340D000000F6
:102A5000F0B506460FF2BC000FF2BC0283B035465B
:102A600050F8250052F825200C4601211043FEF7AE
:102A700093FA1EB901211020FEF7D1FA0FF2AC0033
:102A8000DFF88C6030F815200FF2980030F8151040
:102A900006EB8507D2B27868FEF721FD0FF29000B1
:102AA00030F815200FF2800030F81510B868D2B257
:102AB000FEF715FD00208DF8060000A901208DF815
:102AC000070002208DF804000FF2500030F81500C6
:102AD000009002208DF805007868FEF747FB022081
:102AE0008DF8040000A90FF2380030F815000090AE
:102AF000B868FEF73BFB56F825002146FEF7CAFDF5
:102B000056F825000121FEF78CFE03B0F0BD000051
:102B10005800002001000000010000000002000039
:102B200000040000090000000A0000000700000087
:102B3000070050F8041B61B150F8042BD30744BFC1
:102B4000A9F101039A18002342F8043B091FFAD1A6
:102B5000EFE77047DFF89C02C168002905D5DFF870
:102B600098120160DFF894120160704770B5044656
:102B700000260D46002C18BF082C19D0102C18BFA9
:102B8000182C15D0202C18BF282C11D0302C18BF91
:102B9000382C0DD0402C18BF482C09D0502C18BF11
:102BA000582C05D040F25B110FF27420FFF72EF87D
:102BB0006DB1012D30D0022D31D0032D05D00FF293
:102BC00060204FF4AE71FFF721F84FF4407600F02B
:102BD000D6F808281FD1DFF82852286820F4407062
:102BE000286044F00201286830432860286820F0FB
:102BF000F8002860286808432860286840F480307E
:102C0000286000F0BCF8296821F0020129602968D9
:102C100021F0F801296070BD4FF48076D7E74FF4BA
:102C20000076D4E770B504460D46A4F10060DFF8E5
:102C3000D411884221BF04F1604000F5084040F201
:102C40000F21884205D34FF4FB710FF2D410FEF729
:102C5000DDFF00F094F8082814D1DFF8A461306893
:102C600020F440703060306840F4007030603068AC
:102C700040F001003060256000F081F831684908BB
:102C80004900316070BDDFF88401C168C90705D50E
:102C9000DFF87C110160DFF87C110160704738B506
:102CA0000446200B0D46000300D12CB940F2B6219A
:102CB0000FF26C10FEF7AAFF002D18BF012D05D0F2
:102CC0000FF25C1040F2B721FEF7A0FF08208DF84C
:102CD00000000821DFF830010268D20348BF01215B
:102CE00013D40268D20648BF05210ED4026812F040
:102CF000EF0F18BF062108D10268920705D50721FA
:102D000003E00268920748BF07218DF800109DF884
:102D10000010012910D102680821D20348BF012107
:102D2000F3D40268D20648BF0521EED4026812F03F
:102D3000EF0FE6D00621E8E79DF80010082905D13D
:102D40004189002D14BFA1432143418131BD324847
:102D5000017841F00201017011E0304800887047AD
:102D600010B5044634F0F30000D12CB940F2C7315D
:102D70000FF2AC00FEF74AFF2348046010BD81B09B
:102D800008208DF8000008211F480268D20348BFC0
:102D9000012113D40268D20648BF05210ED402686F
:102DA00012F0EF0F18BF062108D10268920705D56F
:102DB000072103E00268920748BF07218DF8001041
:102DC0009DF80010012910D102680821D20348BFE4
:102DD0000121F3D40268D20648BF0521EED402686F
:102DE00012F0EF0FE6D00621E8E79DF8000001B0F1
:102DF00070470000043C024023016745AB89EFCDDA
:102E0000103C0240FFFF0F000C3C0240083C024017
:102E10003B2A19087F6E5D4C143C0240163C024070
:102E2000433A5C546F6F6C735C4941522053797321
:102E300074656D735C456D62656464656420576F8D
:102E4000726B62656E636820362E355C576F726BED
:102E500053706163655C5B3134303830315D2057CD
:102E60004C3946204D6F6E69746F72202D2053547B
:102E70004D33325F4941505C4C69627261726965E1
:102E8000735C53544D3332463478785F53746450D6
:102E900065726970685F4472697665725C737263AB
:102EA0005C73746D3332663478785F666C61736816
:102EB0002E630000103A07D330B4B1E83810103A4E
:102EC000A0E83810F9D230BC530724BFB1E808108D
:102ED000A0E8081044BF51F8043B40F8043BD20777
:102EE00024BF31F8022B20F8022B44BF0B7803706B
:102EF0007047083A07D3B1E80810083A40F8043B95
:102F000040F804CBF7D25307E4E7000030B504469D
:102F100083B001202070002500206070FF20A07089
:102F200004F2030005E011F8013B00F8013B6D1CC1
:102F3000ADB20B780BB1FF2DF5DD28190021C17062
:102F400000A81168FDF75CFF281D80B200A904E00D
:102F500011F8012B0255401C80B20A78002AF7D1E3
:102F6000832804DAC0F18301001900F0E3F903B00B
:102F700030BD78B40C46B3F5806F04D34FF4806352
:102F80001946022505E08021802B2CBF80239BB2AF
:102F9000012525706270D243A270DA1C042A08DB76
:102FA00004F203021D4610F8016B02F8016B6D1E5E
:102FB000F9D199420ADBDB1C9BB2CA1CD11A93429D
:102FC00004DA181978BC1A2200F0B8B971BC70473D
:102FD00041F4807141F2210240004900CB0548BF15
:102FE000401CC30348BF5040CB03F5D580B27047A7
:102FF00038B5044600200D1903E014F8011BFFF753
:10300000E7FFAC42F9D30021FFF7E2FFBDE834400F
:103010000021DDE738B504460D0005D014F8010B9A
:10302000FDF721FF6D1EF9D131BD2DE9F44FADF54E
:10303000A26D06460025002001AA11F8013B02F806
:10304000013BC01C11F8013B02F8013BFF2811F8BD
:10305000013B02F8013BF0D10DF5A26201A941A8A4
:10306000FFF754FF42F21078832141A8FFF7D2FF07
:1030700041A88021C01CFFF7BBFF0746000AFDF7EF
:10308000F2FEF8B2FDF7EFFE474600A8FDF7D4FECA
:103090007F1E012807D0002FF7D16D1C0A2DE3D326
:1030A0000A2D05D3C4E09DF800000628F6D1F7E705
:1030B000DDF810750124002F4FD03B46E2B241A944
:1030C0003046FFF756FF00208DF800000025B7F5C9
:1030D000806F2CBF4FF480694FF0800909F1030025
:1030E0000DF5827A1FFA80FB1AF8010BFDF7BBFE83
:1030F000BBF1010BF8D141A84946C01CFFF778FF8E
:103100008246000AFDF7AFFE5FFA8AF0FDF7ABFEDC
:10311000DFF880A100A8FDF78FFEAAF1010A0128BF
:1031200008D0BAF1000FF5D16D1C0A2DCFD30A2DAE
:10313000C1D37DE09DF800000628F5D14E44B94585
:1031400009D2A0B2A7EB0907B0F57C7F18BF441CD9
:10315000EDD1FF206FE00027E9E700208DF80000A7
:1031600000250420FDF77FFE464600A8FDF764FE1B
:10317000761E012802D0002EF7D103E09DF8000052
:10318000062802D06D1C0A2DEBD30A2D50D2012047
:103190008DF804010026FF208DF80601002541A8C6
:1031A0008DF800608DF805518021C01C00F0C2F838
:1031B00041AF832417F8010BFDF755FE641EF9D1CA
:1031C00041A88021C01CFFF713FF0746000AFDF746
:1031D0004AFEF8B2FDF747FE474600A8FDF72CFE71
:1031E0007F1E012807D0002FF7D16D1C0A2DDFD3D9
:1031F0000A2D06D31CE09DF800000628F6D1012612
:10320000F6E70420FDF72FFE474600A8FDF714FE61
:103210007F1E012802D0002FF7D103E09DF80000A7
:10322000062803D06D1C0EB90A2DEAD30A2D01D34E
:10323000E8B200E000200DF2145DBDE8F08FF0B5BB
:1032400083B01348FEF7F2FC134D144E144F0024C4
:1032500013E0A00200F5803070604FF48062716866
:103260002846FEF76DFE35604FF48072294606F160
:103270000C00FEF7EEFCB060641C3988E4B2491C17
:103280008C42E6DB4FF47C10FEF7A0FD4EE0000020
:1032900000400008A08601006C00002048000020CB
:1032A0000A000020F0B583B04FF47810FEF78EFDD1
:1032B00004224FF478110548FEF7F4FD0448FEF7A8
:1032C000B5FC044D044E054F00241DE064000020B1
:1032D000004000086C000020480000200A00002088
:1032E000A00200F5202070604FF4806271682846CB
:1032F000FEF726FE35604FF48072294606F10C0079
:10330000FEF7A7FCB060641C3988E4B2491C8C420B
:10331000E6DB4FF47810FEF759FD04224FF47811E4
:10332000004801E068000020FEF7BCFD012003B06A
:10333000F0BD0000002200F005B8000062F30F228B
:1033400062F31F42401810F0030308D0C91A1FD3BC
:10335000DB0748BF00F8012D28BF20F8022D13001D
:1033600030B414461546103928BF20E93C00FAD87D
:10337000490728BF20E90C0048BF40F8042D890008
:1033800028BF20F8022D48BF00F8012D30BC70473F
:10339000C91818BF00F8012DCB0728BF00F8012D70
:1033A000704700003348344A82B0016841F470012C
:1033B00001603248016841F0010101600021816033
:1033C0000168114001602E494160016821F48021AB
:1033D00001600021C16001910091016841F48031D8
:1033E0000160016801F4003100910199491C0191CB
:1033F000009919B90199B1F5A06FF2D10168490C92
:1034000001F001010091009901292CD1016C41F0DA
:10341000805101641B490A6842F480420A60816855
:103420008160816841F400418160816841F4A0516C
:10343000816015494160016841F080710160016857
:103440008901FCD540F2056210490A60816889084B
:1034500089008160816841F002018160816801F02A
:103460000C010829FAD14FF000610948016002B04F
:103470007047000088ED00E0FFFFF6FE00380240D4
:10348000103000240070004019544007003C0240F6
:1034900008ED00E010B5074979441831064C7C442A
:1034A000163404E00A68081D511888470146A142F5
:1034B000F8D110BD080000002800000077F6FFFFDB
:1034C000280500006C0000200000000013ECFFFF46
:1034D0006C0000000402000000000020000000005A
:1034E0004EF68851CEF20001086840F47000086082
:1034F0004FF00070E1EE100A7047000000F009F88C
:10350000002801D0FFF7C6FF0020FEF79FFA00F069
:1035100002F80120704700F001B800000746384665
:1035200000F002F8FBE7000080B5C046C046024A42
:1035300011001820ABBEFBE7260002007047FEE733
:10354000FEE7FEE7FEE7704770477047FDF7AEBC49
:103550000148804701480047A5330008613500084D
:10356000C046C046FFF7BCFFFFF7C8FFFFF7E6BF46
:10357000FFF7E5BFFFF7E4BFFFF7E3BFFFF7E2BFE9
:10358000FFF7E1BFFFF7E0BFFFF7DFBFFFF7DEBFE9
:10359000FFF7FEBFFFF7FEBFFFF7FEBFFFF7FEBF5F
:1035A000FFF7FEBFFFF7FEBFFFF7FEBFFFF7FEBF4F
:1035B000FFF7FEBFFFF7FEBFFFF7FEBFFFF7FEBF3F
:1035C000FFF7FEBFFFF7FEBFFFF7FEBFFFF7FEBF2F
:1035D000FFF7FEBFFFF7FEBFFFF7FEBFFFF7FEBF1F
:1035E000FFF7FEBFFFF7FEBFFFF7FEBFFFF7FEBF0F
:1035F000FFF7FEBFFFF7FEBFFFF7FEBFFFF7FEBFFF
:10360000FFF7FEBFFFF7FEBFFFF7FEBFFFF7FEBFEE
:10361000FFF7FEBFFFF7FEBFFFF7FEBFFFF7FEBFDE
:10362000FFF7FEBFFFF7FEBFFFF7FEBFFFF7FEBFCE
:10363000FFF7FEBFFFF7FEBFFFF7FEBFFFF7FEBFBE
:10364000FFF7FEBFFFF7FEBFFFF7FEBFFFF7FEBFAE
:10365000FFF7FEBFFFF7FEBFFFF7FEBFFFF7FEBF9E
:10366000FFF7FEBFFFF7FEBFFFF7FEBFFFF7FEBF8E
:10367000FFF7FEBFFFF7FEBFFFF7FEBFFFF7FEBF7E
:10368000FFF7FEBFFFF7FEBFFFF7FEBFFFF7FEBF6E
:10369000FFF7FEBFFFF7FEBFFFF7FEBFFFF7FEBF5E
:1036A000FFF7FEBFFFF7FEBFFFF7FEBFFFF7FEBF4E
:1036B000FFF7FEBFFFF7FEBFFFF7FEBFFFF7FEBF3E
:1036C000FFF7FEBFFFF7FEBFFFF7FEBFFFF7FEBF2E
:1036D000FFF7FEBFFFF7FEBF000000000000000084
:1036E00000000000001402400014024000140240D8
:1036F0000014024000140240001402400014024072
:10370000001402400014024000000000000000000D
:103710000000000001020304010203040607080977
:103720000000000000000000000000000040000851
:103730000010014000000240000002404D3C2B1AE6
:043740008D7C6B5AB7
:040000050800356159
:00000001FF
