:020000040800F2
:10000000A8110020F9350008E5350008E73500089B
:10001000E9350008EB350008ED3500080000000068
:10002000000000000000000000000000EF350008A4
:10003000F135000800000000F3350008F535000830
:10004000393600083D3600084136000845360008BC
:10005000493600084D36000851360008553600086C
:10006000593600085D36000861360008653600081C
:10007000693600086D3600087136000875360008CC
:10008000793600087D36000881360008853600087C
:10009000893600088D36000891360008953600082C
:1000A000993600089D360008A1360008A5360008DC
:1000B000A9360008AD360008B1360008B53600088C
:1000C000B9360008BD360008C1360008C53600083C
:1000D000C9360008CD360008D1360008D5360008EC
:1000E000D9360008DD360008E1360008E53600089C
:1000F000E9360008ED360008F1360008F53600084C
:10010000F9360008FD3600080137000805370008F9
:10011000093700080D3700081137000815370008A7
:10012000193700081D370008213700082537000857
:10013000293700082D370008313700083537000807
:10014000393700083D3700084137000845370008B7
:10015000493700084D370008513700085537000867
:10016000593700085D370008613700086537000817
:10017000693700086D3700087137000875370008C7
:10018000793700087D37000880B5DFF8CC0600F02D
:1001900080FB012000F06EFB01214FF4001000F005
:1001A000BFFB0121012000F0BBFB0121022000F078
:1001B000B7FB0121042000F0B3FB0121082000F06F
:1001C000AFFB0121102000F0ABFB0121202000F04B
:1001D000A7FB0121402000F0A3FB0021012000F03B
:1001E000C1FB0121042000F0DEFB0121082000F00A
:1001F000DAFB01214FF4804000F0D5FB01214FF4E0
:10020000003000F0D0FB01214FF4002000F0CBFBC8
:1002100001214FF0007000F0C6FB01214FF080601B
:1002200000F0C1FB0121022000F0DFFB01211020C2
:1002300000F0DBFB01214FF4807000F0D6FB0121C0
:100240004FF4805000F0D1FBBDE8044001214FF491
:10025000804000F0CABB2DE9FC414FF4C050009033
:1002600002208DF8040000208DF8060001208DF892
:10027000070002208DF8050000A9DFF8E085404660
:1002800000F026FC09220C21404600F0DAFD09228C
:100290000B21404600F0D5FD6020009002208DF833
:1002A000040000208DF8060001208DF807000220D0
:1002B0008DF8050000A9DFF8A845204600F008FCED
:1002C00009220621204600F0BCFD09220521204616
:1002D00000F0B7FD0C20009000A902208DF804006A
:1002E00000208DF8060001208DF8070002208DF80F
:1002F0000500404600F0ECFB07220221404600F0DA
:10030000A0FD07220321404600F09BFD0320009042
:1003100000A902208DF8040000208DF806000120BD
:100320008DF8070002208DF80500404600F0D0FB54
:1003300008220021404600F084FD082201214046A9
:1003400000F07FFD4FF48050009001208DF80400F4
:1003500000208DF8060001208DF8070002208DF89E
:10036000050000A9DFF8FC54284600F0B1FB04208A
:10037000009001208DF8040000208DF80600012077
:100380008DF8070002208DF8050000A9DFF8D86479
:10039000304600F09DFBB020009000A901208DF8B0
:1003A000040000208DF8060001208DF807000220CF
:1003B0008DF80500404600F08BFB4020009000A91E
:1003C00000208DF804008DF8060001208DF807004C
:1003D00002208DF80500404600F07AFB4FF44060A3
:1003E000009000A901208DF8040000208DF806007F
:1003F00001208DF8070002208DF80500284600F046
:1004000067FB4FF47040009000A901208DF80400B4
:1004100000208DF8060001208DF8070002208DF8DD
:100420000500204600F054FB0820009000A903209E
:100430008DF804000020ADF8060002208DF80500BC
:10044000284600F045FB0720009001208DF80400AD
:1004500000208DF8060001208DF8070002208DF89D
:10046000050000A9DFF80474384600F031FB4FF4B2
:100470007C40009000A900208DF804008DF8060053
:1004800001208DF8070002208DF80500384600F0A5
:100490001FFB0120009000A900208DF804008DF8BA
:1004A000060001208DF8070002208DF80500204687
:1004B00000F00EFB0220009000A901208DF804003E
:1004C00000208DF8060001208DF8070002208DF82D
:1004D0000500204600F0FCFA1020009000A9012041
:1004E0008DF8040000208DF8060001208DF807002B
:1004F00002208DF80500284600F0EAFA202000903E
:1005000000A900208DF804008DF8060001208DF868
:10051000070002208DF80500284600F0D9FA402097
:10052000009000A902208DF8040000208DF806003C
:1005300001208DF8070003208DF80500284600F003
:10054000C7FA03220621284600F07BFC8020009099
:1005500000A901208DF8040000208DF8060001207C
:100560008DF8070002208DF80500284600F0B0FA4B
:100570004FF48070009000A901208DF80400002045
:100580008DF8060001208DF8070002208DF8050087
:10059000404600F09DFA4FF40070009000A9012041
:1005A0008DF8040000208DF8060001208DF807006A
:1005B00002208DF80500284600F08AFA4FF400600A
:1005C000009001208DF8040000208DF80600012025
:1005D0008DF8070002208DF8050000A9DFF8908251
:1005E000404600F075FA4FF40047009701208DF85F
:1005F000040000A900208DF8060001208DF80700F6
:1006000002208DF80500404600F062FA4FF4407079
:10061000009000A901208DF8040000208DF806004C
:1006200001208DF8070002208DF80500204600F01B
:100630004FFA4FF46050009000A901208DF804009B
:1006400000208DF8060001208DF8070002208DF8AB
:100650000500304600F03CFAFF20009000A9012080
:100660008DF8040000208DF8060001208DF80700A9
:1006700002208DF80500404600F02AFA4FF4E840C9
:10068000009000A901208DF8040000208DF80600DC
:1006900001208DF8070002208DF80500404600F08B
:1006A00017FA009701208DF8040000A900208DF8AA
:1006B000060001208DF8070002208DF8050028466D
:1006C00000F006FA4FF48040009000A901208DF858
:1006D000040000208DF8060001208DF8070002209C
:1006E0008DF80500284600F0F3F9BDE8F38130B538
:1006F00083B00420009001208DF8040000208DF8C4
:10070000060001208DF8070002208DF8050000A9E1
:10071000544C204600F0DCF94FF48070009000A9A2
:1007200001208DF8040000208DF8060001208DF8CE
:10073000070002208DF80500204600F0C9F980204E
:10074000009001208DF8040000208DF806000120A3
:100750008DF8070002208DF8050000A9404D2846BD
:1007600000F0B6F94FF40040009000A901208DF888
:10077000040000208DF8060001208DF807000220FB
:100780008DF80500204600F0A3F90421204600F072
:10079000CDFA4FF48071204600F0C8FA4FF40041C2
:1007A000204600F0C3FA8021284600F0BFFA03B0CB
:1007B00030BD80B5FFF7E8FCBDE801404BE538B53A
:1007C0000221274800F0B2FA264C1021204600F002
:1007D000ADFA8021204600F0A9FA254D4FF40061C2
:1007E000284600F0A3FA4FF40041284600F09EFA94
:1007F00004211D4800F09AFA4FF48041204600F091
:1008000069FA4FF40071204600F090FA4FF48071BD
:10081000124800F05FFA2046BDE834404FF4004132
:1008200000F084BA00B583B04FF44060009000A996
:1008300001208DF8040000208DF8060001208DF8BD
:10084000070002208DF80500054800F041F9FFF788
:100850004EFF03B000BD00008C09002000000240E4
:100860000004024000080240000C02400014024054
:100870000018024010B5040018BF012C05D040F24A
:1008800009210FF2DC1000F0A4FCDFF8A8010460DD
:1008900010BDDFF89C114A6802F00C02042A02D055
:1008A000082A03D01CE0DFF890211BE00A680B68DF
:1008B000C2F3805203F03F03002A14BFDFF878210F
:1008C000DFF87821B2FBF3F20B68C3F388135A43C5
:1008D0000B68C3F301435B1C5B00B2FBF3F201E066
:1008E000DFF8582102604B68DFF85421D0F800C0CF
:1008F000C3F303139B5C2CFA03F343604B68D0F8FB
:1009000004C0C3F382239B5C2CFA03F38360496821
:100910004368C1F34231895C23FA01F1C160704739
:1009200038B50446DFF81C010D46044200D12CB94D
:100930004FF488610FF2281000F04BFC65B1012DD7
:1009400005D00FF21C1040F2424100F042FCDFF8EB
:10095000F8000168214303E0DFF8EC000168A143DF
:10096000016031BD38B5044660080D46400000D135
:100970002CB940F27B410FF2E80000F02AFC65B18F
:10098000012D05D00FF2D80040F27C4100F021FC8F
:10099000DFF8B8000168214303E0DFF8B000016828
:1009A000A143016031BD38B50446DFF8A4000D460F
:1009B000044200D12CB940F2AD410FF2A40000F086
:1009C00008FC65B1012D05D00FF2940040F2AE4154
:1009D00000F0FFFBDFF87C000168214303E0DFF853
:1009E00074000168A143016031BD38B50446DFF8E9
:1009F00068000D46044200D12CB940F2D5410FF2F7
:100A0000600000F0E6FB65B1012D05D00FF250004B
:100A100040F2D64100F0DDFBDFF8400001682143E1
:100A200003E0DFF838000168A143016031BD000038
:100A3000043802404C00474240787D010024F40015
:100A40005004002000EE8B813038024038380240DC
:100A5000003601C940380240CCA0F8FF44380240BB
:100A6000433A5C546F6F6C735C4941522053797305
:100A700074656D735C576F726B73706163655F57FC
:100A80004C39465C574C5F465F4D6F6E69746F72B0
:100A90005F4941505C4C69627261726965735C5375
:100AA000544D3332463478785F53746450657269BC
:100AB00070685F4472697665725C7372635C7374AC
:100AC0006D3332663478785F7263632E63000000A2
:100AD0002DE9F84304460026DFF864040D468442FD
:100AE0001CBFDFF8600484421FD0DFF85C0484423E
:100AF0001CBFDFF85804844217D0DFF85404844246
:100B00001CBFDFF8500484420FD0DFF84C0484424D
:100B10001FBFDFF848048442DFF84404844204D055
:100B2000BB210FF2404000F054FB286820B90FF2BF
:100B30003440BC2100F04DFB2879002818BF012863
:100B400008D0022818BF032804D0BD210FF214409A
:100B500000F03FFBE87940B1012818BF022804D01B
:100B60000FF20040BE2100F034FB012000FA06F82D
:100B7000286808EA0000404546D177000320B840C5
:100B80006FEA0009206809EA0000206020682979DE
:100B9000B940084320602879012818BF02282AD1CB
:100BA0006879002818BF012808D0022818BF032838
:100BB00004D0D0210FF2AC3000F00BFBA06809EAA2
:100BC0000000A060A0686979B9400843A060A879D6
:100BD000002818BF012804D0D7210FF2883000F078
:100BE000F8FA606820EA080060606068A979B1409E
:100BF00089B208436060E06809EA0000E060E068EC
:100C0000E979B9400843E060761C102EADD3BDE809
:100C1000F18370B504460026DFF824030D468442B4
:100C20001CBFDFF82003844220D0DFF81C0384427D
:100C30001CBFDFF81803844218D0DFF81403844285
:100C40001CBFDFF81003844210D0DFF80C0384428D
:100C50001FBFDFF808038442DFF80403844205D095
:100C60004FF498710FF2FC2000F0B3FA012D18BF79
:100C7000022D29D0042D18BF082D25D0102D18BF06
:100C8000202D21D0402D18BF802D1DD0B5F5807F9F
:100C900018BFB5F5007F17D0B5F5806F18BFB5F553
:100CA000006F11D0B5F5805F18BFB5F5005F0BD0B0
:100CB000B5F5804F18BFB5F5004F05D00FF2A42051
:100CC00040F2311100F085FA2069284218BF012650
:100CD000304670BD38B5044699480D4684421CBF65
:100CE0009848844219D0984884421CBF974884424F
:100CF00013D0974884421CBF964884420DD0964832
:100D000084421FBF954884429548844205D040F2F2
:100D10007F110FF2502000F05CFA2DB90FF2442041
:100D20004FF4C07100F055FA258331BD38B5044643
:100D300083480D4684421CBF8248844219D08248B1
:100D400084421CBF8148844213D0814884421CBF26
:100D5000804884420DD0804884421FBF7F4884422F
:100D60007F48844205D04FF4C9710FF2F81000F0AB
:100D700030FA2DB90FF2EC1040F2931100F029FA7D
:100D8000658331BD70B504466D480D4616468442F4
:100D90001CBF6C48844219D06B4884421CBF6B480E
:100DA000844213D06A4884421CBF6A4884420DD0F2
:100DB000694884421FBF694884426948844205D01B
:100DC0004FF4D3710FF29C1000F003FA012D18BFFD
:100DD000022D29D0042D18BF082D25D0102D18BFA5
:100DE000202D21D0402D18BF802D1DD0B5F5807F3E
:100DF00018BFB5F5007F17D0B5F5806F18BFB5F5F2
:100E0000006F11D0B5F5805F18BFB5F5005F0BD04E
:100E1000B5F5804F18BFB5F5004F05D00FF244105F
:100E200040F2A71100F0D5F94EB1012E05D04FF4D4
:100E3000D4710FF2301000F0CCF9258370BD6583BA
:100E400070BD70B506463E480D46144686421CBF2E
:100E50003C48864219D03C4886421CBF3B488642EB
:100E600013D03B4886421CBF3A4886420DD03A48D0
:100E700086421FBF394886423948864205D040F233
:100E800017210FF2E00000F0A4F9002D18BF012D8A
:100E900021D0022D18BF032D1DD0042D18BF052D04
:100EA00019D0062D18BF072D15D0082D18BF092DF4
:100EB00011D00A2D18BF0B2D0DD00C2D18BF0D2DE4
:100EC00009D00E2D18BF0F2D05D00FF298004FF44A
:100ED000067100F07EF9002C18BF092C1ED0012CE1
:100EE00018BF022C1AD0032C18BF042C16D0052CC6
:100EF00018BF062C12D0072C18BF082C0ED00A2CB5
:100F000018BF0B2C0AD00C2C1CBF0D2C0F2C05D09D
:100F100040F219210FF24C0000F05BF9E80806EBF3
:100F2000800005F007018900026A0F238B409A4375
:100F3000026204FA01F1026A1143016270BD00000D
:100F4000000002400004024000080240000C024081
:100F5000001002400014024000180240001C024031
:100F600000200240433A5C546F6F6C735C494152FD
:100F70002053797374656D735C576F726B73706116
:100F800063655F574C39465C574C5F465F4D6F6EEB
:100F900069746F725F4941505C4C69627261726939
:100FA00065735C53544D3332463478785F537464C0
:100FB0005065726970685F4472697665725C7372BD
:100FC000635C73746D3332663478785F6770696F11
:100FD0002E6300002DE9FC4100F002F9FFF7E9FB68
:100FE000FFF7EDFB002000F002FA00F089FB07207C
:100FF000009001208DF8040000208DF806000120EB
:101000008DF8070002208DF8050000A9514C2046FC
:10101000FFF75EFD4FF47C40009000A900208DF8A2
:1010200004008DF8060001208DF8070002208DF8DD
:1010300005002046FFF74CFD474CFF2206212046C5
:1010400000F07EFB0020208106224FF4781120461C
:1010500000F0C4FAA178E078090441EA0060617800
:1010600040EA01202178084360633C49606B884274
:101070002AD0E06800220121FFF784FE20690122C6
:101080000221FFF77FFE606901220421FFF77AFE4B
:1010900000250FF2401604F118074FF0060836F845
:1010A000021B57F8040BFFF7B4FD401E8041C00F30
:1010B000690051FA80F5B8F10108F0D11C2D02BF8A
:1010C000606B274988420DD106224FF474112046E7
:1010D00000F084FA6079217941EA002060810120E2
:1010E00020721BE006224FF47C11204600F076FAB5
:1010F000A178E078090441EA0060617840EA0120C3
:101100002178084320632179607941EA00206081D9
:101110001449206B884205D10120607200F02CF840
:1011200000F0ADFB104C114920680840B0F1005FA1
:101130000ED100F0EDFE002000F0EEFE60680C49DC
:1011400008600C490860206880F3088808688047B8
:10115000FEE7000000140240040400204D3C2B1A5E
:101160008D7C6B5AD4C3B2A1004000080000FE2F52
:10117000880800208408002000B585B04FF4E130D5
:10118000009000A900200190ADF80800ADF80C0017
:101190000C20ADF80A00002000F0DAFE05B000BD1A
:1011A00080B5FFF73FFB00F0BEFE01F011F8012013
:1011B00001F01EF8012001F020F801F0ACF800F079
:1011C0007DFD002001F09AF8BDE80240002001F00A
:1011D00014B8FEE700040008001000200040008062
:1011E00080B501F0A1F8BDE80240F32001F038B964
:1011F00010B54C4800F047F8044600E00834592C7C
:1012000007D20221204601F09BF80828F6D00120E1
:1012100010BD002010BD2DE9F04104460E461546D4
:101220000027DFF8048103E02068001D20607F1C98
:10123000AF423CBF2068404511D23168206801F0C0
:10124000DBF8082808D1206856F8041B006888429B
:10125000EAD00220BDE8F0810120BDE8F081002045
:10126000BDE8F08110B52F4800F00DF8C40801F07A
:10127000F4F840F6FF71E040E140884201D10120DE
:1012800010BD002010BD0021A0F10062B2F5804F1A
:1012900045D326490918B1F5804F38BF08213ED300
:1012A00023490918B1F5804F38BF102137D32149A0
:1012B0000918B1F5804F38BF182130D31E490918DD
:1012C000B1F5803F38BF202129D31C490918B1F559
:1012D000003F38BF282122D319490918B1F5003F32
:1012E00038BF30211BD317490918B1F5003F38BF6B
:1012F000382114D314490918B1F5003F38BF4021F3
:101300000DD312490918B1F5003F38BF482106D363
:101310000F490818B0F5003F34BF50215821084646
:101320007047000000400008FCFF0F0800C0FFF7F6
:101330000080FFF70040FFF70000FFF70000FEF716
:101340000000FCF70000FAF70000F8F70000F6F7DD
:101350000000F4F700B50100DFF8000183B0016977
:101360004FF400724FF6FF5308D0194041610092CC
:1013700001218DF804108DF8051005E01940416138
:10138000009200218DF8041000A9FFF7A1FB03B023
:1013900000BD70B504460825DFF8C060E4B2E0097E
:1013A0004FF40071304602D0FFF794FC01E0FFF7E4
:1013B000BDFC4FF480713046FFF78CFC64004FF4A5
:1013C00080713046FFF7B2FC6D1EE7D14FF400711B
:1013D0003046FFF7ABFC4FF480713046FFF77AFCE4
:1013E0003046BDE870404FF48071FFF79FBC38B5C0
:1013F00004461A4D4FF400712846FFF76BFC01209C
:10140000FFF7A8FF4FF400712846FFF763FC4FF485
:1014100080712846FFF75EFC4FF400712846FFF705
:1014200085FC4FF480712846FFF780FCD020FFF741
:10143000B0FF0A20FFF7ADFF2046FFF7AAFF4FF4E9
:1014400000712846FFF772FC4FF480712846FFF7C1
:1014500041FC2846BDE8344002E0000000040240A0
:101460004FF40071FFF736BC38B5044600F027F999
:10147000DFF8C452002210212846FFF783FCD82051
:1014800000F0F3F82002000E00F0EFF82004000E48
:1014900000F0EBF8E0B200F0E8F801221021284655
:1014A000FFF770FCBDE8314014E12DE9F843044634
:1014B0000F46164600F003F9DFF87C920022102157
:1014C0004846FFF75FFC022000F0CFF83802000E1C
:1014D00000F0CBF83804000E00F0C7F8F8B200F0C6
:1014E000C4F82EB3012794F800800025761E002250
:1014F00020214846FFF746FCC5F1070007FA00F037
:101500004146014214BF0122002280214846FFF7D4
:1015100039FC012220214846FFF734FC402148468F
:10152000FFF777FB6D1C082DE1DB641C002EDAD180
:10153000012210214846FFF725FCBDE8F143C9E030
:101540002DE9F04180460D46E8B201464E42F6B222
:10155000170AD4B280B9002F39D07F1E4FF48072A1
:1015600029464046FFF7A1FFFFB205F5807508F553
:101570008078002FF1D129E067B9A64227DA3246F8
:1015800029464046FFF791FFA21BD2B2711906EB24
:1015900008001EE0921B92B2170AD4B232462946C6
:1015A0004046FFF782FF7519B04438000DD07F1E0A
:1015B0004FF4807229464046FFF777FFFFB205F5EA
:1015C000807508F58078002FF1D12CB1224629468C
:1015D0004046BDE8F04168E7BDE8F0812DE9F843F9
:1015E00080460F461646DFF85091002210214846EB
:1015F000FFF7C8FB032000F038F83802000E00F0B7
:1016000034F83804000E00F030F8F8B200F02DF88D
:101610003EB3012700240025761E002220214846E3
:10162000FFF7B0FBC5F1070007FA00F010F0A500C6
:1016300014BF0122002280214846FFF7A3FB0122AC
:1016400020214846FFF79EFB40214846FFF7E1FA7C
:101650006D1C40EA4404082DDFDB08F8014B002E26
:10166000D8D14846BDE8F84346E02DE9F0410446AC
:10167000002500260127DFF8C080002220214046F7
:10168000FFF780FBC6F1070007FA00F0044214BF21
:101690000122002280214046FFF774FB0122202115
:1016A0004046FFF76FFB40214046FFF7B2FA761C39
:1016B00040EA4505082EE0DBE8B2BDE8F08110B550
:1016C0001D4C002210212046FFF75CFB0620FFF78F
:1016D000CCFF0EE010B5184C002210212046FFF779
:1016E00051FB0520FFF7C1FFA520FFF7BEFFC00794
:1016F000FAD42046BDE8104001221021FFF742BB7A
:1017000010B50D4C002210212046FFF73BFB0122B3
:1017100010212046FFF736FB084C01224FF40061F0
:101720002046FFF72FFB2046BDE8104001224FF472
:101730008061FFF727BB0000000002400008024064
:1017400062F30F2262F31F4200B500BF13009646FA
:101750009446103928BFA0E80C50FAD85FEA417CC3
:1017600028BF0CC048BF40F8042BC90728BF20F889
:10177000022B48BF00F8012B00BD10B450F8041B29
:1017800081B102681218001D50F8043BDC0744BF09
:10179000A9F10104E31852F8044B43F8044B091F64
:1017A000F9D1EBE710BC704730B583B000A80FF259
:1017B00060110A2200F0E4FE0FF2601000F028FF32
:1017C0004E480078012802D100F082FF09E04C4821
:1017D000007801284DD100F09FFBFFF7E1FC00F0FD
:1017E0002DFF0446012C32DB0FF26C1000F010FFCD
:1017F0000FF28C1000F00CFF424D05F1080000F0D4
:1018000007FF214600A800F0E7FE0FF2AC1000F041
:10181000FFFE00A800F0FCFE0FF2B01000F0F8FE92
:101820000FF2B41000F0F4FE0FF2D01000F0F0FE52
:101830000FF2D01000F0ECFE334841686960296077
:10184000006880F308880846804703B030BD14F173
:10185000010F08BF0FF2D0100DD014F1020F08BF16
:101860000FF2042007D014F1030F08BF0FF2142069
:1018700001D00FF2282000F0CBFE03B030BD38B508
:101880000FF23824204600F0C3FE0FF270252846E0
:1018900000F0BEFE0FF2A42000F0BAFE284600F0D1
:1018A000B7FE0FF2D82000F0B3FE284600F0B0FEDD
:1018B0000FF2083000F0ACFE0FF2403000F0A8FE4E
:1018C0000FF2783000F0A4FE284600F0A1FE0FF2DF
:1018D000AC3000F09DFE204600F09AFE06A000F01D
:1018E00097FEFFF7BFFC401E80410849C00F08600B
:1018F000FFF75AFFFCE700000D0A00000C0400206F
:101900000D0400208408002000400008A4090020E5
:1019100020202020202020202020000057616974F2
:10192000696E6720666F72207468652066696C65F1
:1019300020746F2062652073656E74202E2E2E2019
:101940002870726573732027612720746F2061628D
:101950006F7274290A0D00000A0A0D2050726F6719
:1019600072616D6D696E6720436F6D706C65746533
:1019700064205375636365737366756C6C792100BD
:101980000A0D2D2D2D2D2D2D2D2D2D2D2D2D2D2DCA
:101990002D2D2D2D2D2D2D2D2D2D2D2D2D2D2D2D77
:1019A0002D2D0D0A2053656E642046696C65204E0E
:1019B000616D653A200000000A0D2053656E6420B9
:1019C00046696C652053697A653A20002042797433
:1019D00065730D0A000000002D2D2D2D2D2D2D2DB0
:1019E0002D2D2D2D2D2D2D2D2D2D2D2D2D2D2D2D27
:1019F0002D2D2D2D2D2D2D2D0A0000000D0A0D0A47
:101A0000000000004170706C69636174696F6E2042
:101A100050726F6772616D2052756E6E696E672EBF
:101A20002E2E2E2E0D0A00000A0A0D54686520691C
:101A30006D6167652073697A6520697320686967DD
:101A4000686572207468616E2074686520616C6CD2
:101A50006F776564207370616365206D656D6F726B
:101A600079210A0D000000000A0A0D5665726966A8
:101A700069636174696F6E206661696C6564210ACF
:101A80000D0000000D0A0A41626F727465642062E5
:101A90007920757365722E0A0D0000000A0D4661EB
:101AA000696C656420746F20726563656976652072
:101AB0007468652066696C65210A0D000D0A3D3D5C
:101AC0003D3D3D3D3D3D3D3D3D3D3D3D3D3D3D3D46
:101AD0003D3D3D3D3D3D3D3D3D3D3D3D3D3D3D3D36
:101AE0003D3D3D3D3D3D3D3D3D3D3D3D3D3D3D3D26
:101AF0003D3D3D3D3D3D3D3D000000000D0A3D208A
:101B000020202020202020202020202020202020D5
:101B100020202020202020202020202020202020C5
:101B200020202020202020202020202020202020B5
:101B3000202020202020203D000000000D0A3D2014
:101B400020202020202020202020202054616548B3
:101B500061204D6563686174726F6E6963732043C1
:101B60006F2E2C204C74642E20202020202020203A
:101B7000202020202020203D000000000D0A3D20D4
:101B8000496E2D4170706C69636174696F6E20508D
:101B9000726F6772616D6D696E67204170706C69FC
:101BA000636174696F6E2020202020202020202077
:101BB000202020202020203D000000000D0A3D2094
:101BC00050726F6A6563742020202020203A2057CD
:101BD0004C394620446973706C617920284D6F6ED2
:101BE00069746F72202620436C75737465722920A6
:101BF000202020202020203D000000000D0A3D2054
:101C0000456E7669726F6E6D656E7420203A204560
:101C10005741524D2076362E352C204C6962726128
:101C200072792076312E302E302020202020202066
:101C3000202020202020203D000000000D0A3D2013
:101C40002020202020202020202020202020205361
:101C5000544D333246347878205374616E64617227
:101C600064205065726970686572616C73204C699C
:101C7000627261727920203D000000000D0A3D2053
:101C8000427920454353204469762E206B75746554
:101C90006C662020202020202020202020202020B2
:101CA0002020202020202020202020202020202034
:101CB000202020202020203D0000000080B50021B1
:101CC000FF2000F06AFA0021942000F066FA00215B
:101CD0009E2000F062FA01219F2000F05EFA0021B0
:101CE000A02000F05AFA0021A12000F056FA0021AD
:101CF000A22000F052FA2221A32000F04EFA0E2179
:101D0000A42000F04AFA3221A52000F046FA002172
:101D1000A62000F042FA0021A72000F03EFA0021A0
:101D2000A82000F03AFA5021A92000F036FA00214C
:101D3000AA2000F032FA5521AB2000F02EFA002143
:101D4000AC2000F02AFA0021AD2000F026FA002194
:101D5000AE2000F022FA1121942000F01EFABDE816
:101D600004400221942000F018BA80B50021FF2021
:101D700000F013FA8021952000F00FFAD821962068
:101D800000F00BFA5521972000F007FA0621982061
:101D900000F003FA8021952000F0FFF9D921962068
:101DA00000F0FBF95021972000F0F7F90621982068
:101DB00000F0F3F98021952000F0EFF9DA21962068
:101DC00000F0EBF94421972000F0E7F90621982074
:101DD00000F0E3F98021952000F0DFF9DB21962067
:101DE00000F0DBF94121972000F0D7F90621982077
:101DF00000F0D3F98021952000F0CFF9DC21962066
:101E000000F0CBF95421972000F0C7F90621982063
:101E100000F0C3F98021952000F0BFF9DD21962064
:101E200000F0BBF94521972000F0B7F90621982072
:101E300000F0B3F98021952000F0AFF9DE21962063
:101E400000F0ABF92E21972000F0A7F90621982089
:101E500000F0A3F98021952000F09FF9DF21962062
:101E600000F09BF92E21972000F097F90621982089
:101E700000F093F98021952000F08FF9E021962061
:101E800000F08BF92E21972000F087F9BDE804407F
:101E90003AE080B50021FF2000F07FF90021942076
:101EA00000F07BF98021952000F077F980219C20BB
:101EB00000F073F900219D2000F06FF901219E20B0
:101EC00000F06BF971219F2000F067F90021942048
:101ED00000F063F9BDE8044000219E2000F05DB9E8
:101EE00010B504460021FF2000F057F9812195200C
:101EF00000F053F92146962000F04FF97F219720FA
:101F000000F04BF9BDE810400621982000F045B9DB
:101F100010219C2000F041B902464FF48051FFE7A8
:101F20000A48FEF72FBF10B5084C00224FF40041BD
:101F30002046FEF727FF642000F031FC2046BDE874
:101F4000104001224FF40041FEF71CBF0008024080
:101F5000F0B506460FF2BC000FF2BC0283B0354666
:101F600050F8250052F825200C4601211043FEF7B9
:101F7000D7FC1EB901211020FEF715FD0FF2AC00B1
:101F8000DFF88C6030F815200FF2980030F815104B
:101F900006EB8507D2B27868FEF753FF0FF2900088
:101FA00030F815200FF2800030F81510B868D2B262
:101FB000FEF747FF00208DF8060000A901208DF8EC
:101FC000070002208DF804000FF2500030F81500D1
:101FD000009002208DF805007868FEF779FD022058
:101FE0008DF8040000A90FF2380030F815000090B9
:101FF000B868FEF76DFD56F82500214600F0E6FBB7
:1020000056F82500012100F0A8FC03B0F0BD000047
:102010007004002001000000010000000002000028
:1020200000040000090000000A0000000700000092
:10203000070050F8041B61B150F8042BD30744BFCC
:10204000A9F101039A18002342F8043B091FFAD1B1
:10205000EFE7704700B501005F4883B001694FF4B6
:1020600000624FF2FF7308D01940416100920121D4
:102070008DF804108DF8051005E0194041610092BB
:1020800000218DF8041000A9FEF722FD03B000BD69
:1020900070B50446012000F06FFB08254E4EE4B2F7
:1020A000E0094FF40061304602D0FEF713FE01E074
:1020B000FEF73CFE012000F05FFB4FF480613046EC
:1020C000FEF708FE012000F057FB64004FF480612A
:1020D0003046FEF72BFE012000F04EFB6D1EDED1D8
:1020E0004FF400613046FEF721FE012000F044FB72
:1020F0004FF480613046FEF7EDFD012000F03CFB1F
:102100003046BDE870404FF48061FEF70FBE70B5F9
:1021100004460D46304E4FF400613046FEF7DAFDBE
:102120000120FFF797FF4FF400613046FEF7D2FD24
:102130004FF480613046FEF7CDFD012000F01CFB1E
:102140004FF400613046FEF7F1FD012000F014FB72
:102150004FF480613046FEF7E9FD8A20FFF798FFD3
:10216000E0B2FFF795FF2846FFF792FF4FF40061BA
:102170003046FEF7DBFD012000F0FEFA4FF48061EF
:102180003046FEF7A7FD012000F0F6FA3046BDE824
:1021900070404FF40061FEF79DBD80B5FFF7B7FFBB
:1021A000BDE8024010E010B5841C02E0FFF7AFFF6D
:1021B000A41C20786178FF2808BFFF29F6D10021F0
:1021C000FFF7A5FFBDE810404FF4FA7000F0D4BA55
:1021D00000BF0248E7E700000004024000000020C2
:1021E00080B5FFF7C2FDBDE80140FFF752BE000019
:1021F000024610213C48FEF7C5BD10B504462246F4
:1022000080213948FEF7BEFD3848047010BD30B556
:1022100089B01020ADF81400FA210020ADF81600A6
:10222000334C34480068B0FBF1F0401E80B2069099
:1022300005A90020ADF81C008DF81E00204600F016
:102240008FFC7020ADF8000041F27F350120ADF821
:10225000020002950420ADF8040000A90220ADF8A8
:102260000C000020ADF80E004FF48070ADF81000A7
:102270000020ADF81200204600F078FD0121204634
:1022800000F01EFD0121204600F054FE4FF47A704C
:1022900000F085FA154806214170458009B030BD2F
:1022A00038B5154C104D01280DD100224FF40071A6
:1022B0002846FEF767FD0A2000F071FA01224FF46C
:1022C000807120460CE000224FF480712046FEF71A
:1022D00059FD0A2000F063FA01224FF400712846EC
:1022E000BDE83840FEF74EBD00080240A0090020BE
:1022F000000401404C0400200000024080B5FF288B
:1023000008BF002004D001210020FFF769FF012051
:10231000BDE80240C4E780B540F6B83000F03FFAAF
:10232000BDE8014073E70000DFF8C801C16800297B
:1023300005D5DFF8C4110160DFF8C01101607047F6
:1023400070B5044600260D46002C18BF082C19D085
:10235000102C18BF182C15D0202C18BF282C11D0E9
:10236000302C18BF382C0DD0402C18BF482C09D069
:10237000502C18BF582C05D040F25B110FF2901072
:10238000FEF727FF6DB1012D30D0022D31D0032D86
:1023900005D00FF27C104FF4AE71FEF71AFF4FF428
:1023A000407600F06CF808281FD1DFF854512868F7
:1023B00020F44070286044F002012868304328600F
:1023C000286820F0F80028602868084328602868FA
:1023D00040F48030286000F052F8296821F00201B2
:1023E0002960296821F0F801296070BD4FF48076DA
:1023F000D7E74FF40076D4E770B504460D46A4F154
:102400000060DFF80011884221BF04F1604000F550
:10241000084040F20F21884205D34FF4FB710FF2C0
:10242000F000FEF7D6FE00F02AF8082814D1DFF8F5
:10243000D060306820F440703060306840F4007044
:102440003060306840F001003060256000F017F81F
:10245000316849084900316070BD2C4800887047D8
:1024600010B5044634F0F30000D12CB940F2C73166
:102470000FF29C00FEF7ADFE2348046010BD81B052
:1024800008208DF8000008211F480268D20348BFC9
:10249000012113D40268D20648BF05210ED4026878
:1024A00012F0EF0F18BF062108D10268920705D578
:1024B000072103E00268920748BF07218DF800104A
:1024C0009DF80010012910D102680821D20348BFED
:1024D0000121F3D40268D20648BF0521EED4026878
:1024E00012F0EF0FE6D00621E8E79DF8000001B0FA
:1024F00070470000043C024023016745AB89EFCDE3
:10250000103C0240FFFF0F000C3C0240163C024012
:10251000433A5C546F6F6C735C494152205379733A
:1025200074656D735C576F726B73706163655F5731
:102530004C39465C574C5F465F4D6F6E69746F72E5
:102540005F4941505C4C69627261726965735C53AA
:10255000544D3332463478785F53746450657269F1
:1025600070685F4472697665725C7372635C7374E1
:102570006D3332663478785F666C6173682E630001
:10258000103A07D330B4B1E83810103AA0E8381048
:10259000F9D230BC530724BFB1E80810A0E80810F6
:1025A00044BF51F8043B40F8043BD20724BF31F844
:1025B000022B20F8022B44BF0B7803707047083AB7
:1025C00007D3B1E80810083A40F8043B40F804CBC0
:1025D000F7D25307E4E70000F0B4164A00230024C2
:1025E0000A25B1FBF2F606F130071F5402FB161163
:1025F0000A265B1CB2FBF6F21E1816F8016C302E90
:1026000006BF002C0023641C6D1EEAD1F0BC70478D
:1026100038B50446084D09E0284600F0D2F980217B
:10262000284600F00DFA0028F9D0641C2178002912
:10263000F2D131BD00CA9A3B001001402DE9FC43A4
:102640002DED028B81B03F48FEF7D2FD3E4D3F4F4E
:1026500000269FED3F8B2CE0304600F0CDFC53EC84
:10266000182B00F0D7FC80468946204600F0C4FCB9
:1026700002460B464046494600F09EFD00F0C0FE73
:102680007630C0B2FFF72CFCB00200F580307860E5
:102690004FF4806279682846FEF7A0FF3D604FF452
:1026A0008072294607F10C00FEF7B5FD761CB86074
:1026B000F6B22A480488601C8642CDDB4FF47C10B9
:1026C000FEF7D2FE01B00120BDEC028BBDE8F6831F
:1026D000F0B583B04FF47810FEF7C6FE04224FF435
:1026E00078111D48FEF72CFF1648FEF781FD164DA8
:1026F000164E1A4F002413E0A00200F5202070604F
:102700004FF4806271682846FEF768FF35604FF429
:102710008072294606F10C00FEF77DFDB060641C56
:102720003988E4B2491C8C42E6DB4FF47810FEF79E
:102730009BFE04224FF478110948FEF701FF0120A7
:1027400003B0F0BD004000088404002060040020B5
:1027500000000000008040407C0400200E040020A7
:10276000800400200348016811B10168491E01601E
:10277000704700009C09002082B0002107E000990A
:10278000491C009100990529F9D30199491C01912F
:102790000199814238BF0021F3D302B0704782B063
:1027A0000021019144F2682108E0009A521C009235
:1027B000009A8A42F9D3019A521C0192019A8242EC
:1027C00038BF0022F3D302B070470000F0B50446D2
:1027D000DFF84C72DFF8606285B00D46BC421CBF6A
:1027E000DFF84002844213D0DFF83C0284421CBF71
:1027F000DFF8380284420BD0DFF8340284421CBF79
:10280000DFF83002844203D0EB213046FEF7E1FCD2
:10281000286818B1DFF82412884203D3EC2130462F
:10282000FEF7D7FCA888002818BFB0F5805F03D05A
:10283000ED213046FEF7CDFCE888002818BFB0F542
:10284000805F09D0B0F5005F18BFB0F5405F03D0DE
:10285000EE213046FEF7BDFC288900281CBFB0F5EC
:10286000806FB0F5C06F03D0EF213046FEF7B1FCAA
:1028700068894FF6F371084200D118B9F02130464B
:10288000FEF7A7FCA889F8B1B0F5807F1CBFB0F5B2
:10289000007FB0F5407F05D0F1213046FEF799FC6E
:1028A000A88988B1BC421CBFDFF8780184420BD0F4
:1028B000DFF8740184421CBFDFF87801844203D042
:1028C000F6213046FEF785FC208A4CF6FF71084061
:1028D000E988084320824EF6F311A0890840A988B0
:1028E00008432989084369890843A0814FF6FF41BD
:1028F000A08A0840A9890843A08200A8FDF7C9FF63
:10290000BC421BBFDFF82C0184420398029829685F
:1029100019225043A28912044CBF49008900B0FB20
:10292000F1F16420B1FBF0F000010209642303FB24
:102930001211A289120406D5C9003231B1FBF3F19C
:1029400001F0070105E009013231B1FBF3F101F0BB
:102950000F010843208105B0F0BD38B50446DFF80B
:10296000C0000D4684421CBFDFF8B800844215D079
:10297000DFF8B40084421CBFDFF8B00084420DD001
:10298000DFF8AC0084421CBFDFF8A800844205D009
:1029900040F29B110FF25810FEF71BFC5DB1012DA8
:1029A00005D00FF24C104FF4CE71FEF712FCA08947
:1029B00040F4005003E0A0894DF6FF710840A0816B
:1029C00031BD38B50446DFF858000D4684421CBFBF
:1029D000DFF85000844215D0DFF84C0084421CBF61
:1029E000DFF8480084420DD0DFF8440084421CBF69
:1029F000DFF84000844205D040F21D210FF2F000C4
:102A0000FEF7E7FBB5F5007F05DB0FF2E40040F2CF
:102A10001E21FEF7DEFBE805C00DA08031BD0000E1
:102A2000001001400044004000480040004C0040BD
:102A30000050004000140140F02A0008E1707200CC
:102A4000F8B504460026244F0D46BC421CBF23485F
:102A5000844211D0224884421CBF224884420BD0B9
:102A6000214884421CBF2148844205D040F2FC41E9
:102A70000FF27C00FEF7ADFB012D18BF802D24D096
:102A8000402D18BF202D20D0102D18BFB5F5807F08
:102A90001BD0B5F5007F07D0082D1CBF042D022DDB
:102AA00013D040F2FD410CE0BC421CBF0B488442F5
:102AB0000BD00B4884421CBF0C48844205D040F226
:102AC00002510FF22C00FEF784FB2088284218BF29
:102AD00001263046F2BD00000010014000440040D5
:102AE00000480040004C00400050004000140140ED
:102AF000433A5C546F6F6C735C4941522053797355
:102B000074656D735C576F726B73706163655F574B
:102B10004C39465C574C5F465F4D6F6E69746F72FF
:102B20005F4941505C4C69627261726965735C53C4
:102B3000544D3332463478785F537464506572690B
:102B400070685F4472697665725C7372635C7374FB
:102B50006D3332663478785F75736172742E6300FA
:102B600070B50446DFF824610D46B44218BFB4F1D5
:102B7000804F35D0DFF8180184421CBFDFF8140104
:102B800084422DD0DFF8100184421CBFDFF80C0115
:102B9000844225D0DFF8080184421CBFDFF804011D
:102BA00084421DD0DFF8000184421CBFDFF8FC0026
:102BB000844215D0DFF8F80084421CBFDFF8F4002F
:102BC00084420DD0DFF8F00084421CBFDFF8EC0037
:102BD000844205D040F21F11DFF88C01FEF7F9FAAC
:102BE0006888002818BF10280AD020281CBF402859
:102BF000602805D04FF49071DFF86C01FEF7E9FA18
:102C0000288900281CBFB0F5807FB0F5007F05D073
:102C100040F22111DFF85001FEF7DBFA2088B442C0
:102C20001CBFDFF880108C420ED0B4F1804F1CBF67
:102C3000DFF85C108C4207D0DFF858108C421CBFC4
:102C4000DFF854108C4204D14FF68F710840698828
:102C50000843DFF848108C421CBFDFF844108C4258
:102C600004D04FF6FF410840298908432080B44230
:102C70006868E0622888208519BFDFF82800844250
:102C8000A87A20860120A08270BD000000000140CB
:102C90000004004000080040000C0040001000400C
:102CA0000014004000040140004001400044014085
:102CB0000048014000180040001C00400020004077
:102CC00038B50446DFF834020D46844218BFB4F12B
:102CD000804F35D0DFF8280284421CBFDFF8240281
:102CE00084422DD0DFF8200284421CBFDFF83C0272
:102CF000844225D0DFF8380284421CBFDFF80C0282
:102D000084421DD0DFF8080284421CBFDFF80402B1
:102D1000844215D0DFF8000284421CBFDFF8FC01BA
:102D200084420DD0DFF8F80184421CBFDFF8F401C3
:102D3000844205D040F24D21DFF8EC01FEF749FA5C
:102D40005DB1012D05D0DFF8E00140F24E21FEF724
:102D500040FA208840F0010003E020884FF6FE7121
:102D60000840208031BD0000882F00082DE9F8437D
:102D70000446DFF888910D464C4518BFB4F1804FEA
:102D80002DD0DFF87C0184421CBFDFF8780184423B
:102D900025D0DFF8740184421CBFDFF87001844243
:102DA0001DD0DFF86C0184421CBFDFF8680184424B
:102DB00015D0DFF8640184421CBFDFF86001844253
:102DC0000DD0DFF85C0184421CBFDFF8580184425B
:102DD00005D040F29E21DFF85001FEF7FAF928886D
:102DE000002818BF10280DD0202818BF302809D07F
:102DF000602818BF702805D040F29F21DFF8280115
:102E0000FEF7E7F96888002818BF012805D04FF4BD
:102E10002871DFF81401FEF7DCF9A889002818BF33
:102E2000022805D040F2A121DFF8FC00FEF7D1F91D
:102E3000208C4FF6FE71084020844FF68C72208C57
:102E4000A788218B11402A8842EA01084FF6FD71BC
:102E50000840A9890843698841EA00064C451CBF1F
:102E6000DFF8A800844240D1A888002818BF0428B1
:102E700005D040F2BE21DFF8B000FEF7AAF9E889DC
:102E8000002818BF082805D040F2BF21DFF89800BD
:102E9000FEF79FF9688AB0F5007F18BF002805D0BB
:102EA0004FF43071DFF88000FEF793F9288AB0F50F
:102EB000807F18BF002805D040F2C121DFF86800EC
:102EC000FEF787F9E9894FF6F770304008434FF66F
:102ED000FB710840A98841EA00064FF6FF40298AA5
:102EE00038400843698A41EA0007A780A4F818809F
:102EF000A8686063FFE72684BDE8F1830000014015
:102F00000004004000080040000C004000040140A4
:102F100000400140004401400048014000180040CA
:102F2000001C004000200040882F000800100040D6
:102F30000014004038B5044610480D4684421CBFBA
:102F40000F48844205D040F6D201DFF83800FEF782
:102F500040F965B1012D05D0DFF8280040F6D30116
:102F6000FEF737F9B4F8440040F4004003E0B4F849
:102F700044004004400CA4F8440031BD000001406E
:102F800000040140882F0008433A5C546F6F6C7353
:102F90005C4941522053797374656D735C576F724D
:102FA0006B73706163655F574C39465C574C5F4685
:102FB0005F4D6F6E69746F725F4941505C4C69621E
:102FC0007261726965735C53544D3332463478785C
:102FD0005F5374645065726970685F4472697665A6
:102FE000725C7372635C73746D3332663478785FCD
:102FF00074696D2E63000000010000BF09D0B0FAB3
:1030000080F18840C91CC1F58461090501EBD0211C
:1030100040057047B0B581EA030C0CF0004C40F25B
:10302000FF7515EA11541DBF15EA1357AC42AF42A4
:1030300039E0E41923EA455343F48013C90241F00F
:10304000004141EA505EC7021100A7FB02020028BE
:103050004FF00000EEFB01204FF00001E3FB0721E1
:1030600018BF42F00102401800214941E3FB0E0164
:10307000A4F580640F0302D252004041494154F14B
:1030800001046CDD470872F1004250F1000051EB81
:103090000451A1F580115CBF41EA0C01B0BD4CEABE
:1030A00005510020B0BD05EA1357AC4214BFAF4232
:1030B00041E050EA410E1CBF52EA430E02E0614675
:1030C0000020B0BD24423C441BD15FEA070EF6D07D
:1030D000090302BF01460020AEF1140EB1FA81F7D8
:1030E000AEEB070401FA07FE0C37C7F1200100FA26
:1030F00007F7C8404EEA000E23EA455343F4801315
:10310000A2E733F00043B3FA83F704BFB2FA82FEBA
:1031100077440B3FE41BB7F1200E2FBF02FA0EF3EA
:10312000BB40C7F1200E22FA0EFE38BF43EA0E0361
:10313000BA40641C82E750EA410E14BF52EA430EC3
:103140006FF000014FF4001717EB430F8ABF1946C9
:1031500017EB410FB5E74CEA05510020B0BDD4F1A3
:103160000104B4F120070FDAC4F12007520828BF88
:1031700042F0010210FA07F501FA07F7E1BF2A430E
:10318000E0403843E1400FE0352C98DCC7F12004E3
:1031900052EA400220FA07F218BF42F0010231FA67
:1031A00007F0A1400A43002172F1004250F10000F3
:1031B00051EB0C01B0BD0000F0B540F2FF7581EAA3
:1031C000030C0CF0004C15EA11541DBF15EA1357FF
:1031D000AC42AF42E5E0BC41C1F31301C3F31303BA
:1031E000801A994143F4801304D2641E400049417F
:1031F00080185941C90241EA5051B1FBF3F603FB73
:103200001611A2FB0675D7EBC020A94102D2761E8B
:1032100080185941C90241EA5051B1FBF3FE03FB4A
:103220001E11A2FB0E75D7EBC020A94103D2AEF14F
:10323000010E80185941890241EA9051760546EA0B
:103240008E2EB1FBF3F603FB1611A2FB0675D7EB2E
:103250008020A94102D2761E80185941C90241EA54
:1032600050514EEA060EB1FBF3F603FB1611A2FB1A
:103270000675D7EBC020A94102D2761E80185941AD
:10328000C90241EA5051B1FBF3F703FB1711A2FB4E
:103290000735D3EBC020A94167F100070CBF0042FE
:1032A00047F0010766F3D5274FEA1E31B80814F539
:1032B000806412DDBD0775F1004250EB0E5051EBFA
:1032C000045111F5801F5CBF41EA0C01F0BD4CF0C8
:1032D0007F6141F0E0410020F0BDBD076D0840EA8C
:1032E0000E5041F48011D4F10104B4F120060ADA41
:1032F000C4F120060200E04001FA06F3E140184361
:10330000B24015430EE0342C13DCC6F1200445EA2C
:1033100040056D0820FA06F2154321FA06F0A14097
:103320000D43002175F1004250F1000051EB0C01FA
:10333000F0BD00205FEA0C01F0BDCFB992185B41EF
:10334000B3FA83F704BFB2FA82F6BF190B3FB7F1A5
:1033500020062FBF02FA06F3BB40C7F1200622FA6F
:1033600006F638BF3343BA401CB1E419641E33E794
:103370007F4231F00041B1FA81F404BFB0FA80F627
:10338000A4190B3CB4F120062FBF00FA06F1A140AE
:10339000C4F1200620FA06F638BF3143A0403C1B9A
:1033A0001AE7AC421ABF05EA1357AF4212E050EADF
:1033B00041061CBF52EA4306BFE750EA41073046C8
:1033C00061461CBF41EA0551F0BD52EA430C08BFFB
:1033D000C143F0BD00204FF4001616EB410F98BF1B
:1033E00016EB430F08BF16EB410F24BFC14305E0A6
:1033F00016EB430F0CBF61464CEA0551F0BD0000CF
:10340000F446400D40EAC120490006D200F00EF813
:10341000004248BF6FF00040604700F007F84FF0EF
:10342000004188428CBF08464042604740F000405F
:10343000490DA1F58061491C05D4D1F11F0154BF8C
:10344000C840C01770474FF0000070473348344AF7
:1034500082B0016841F4700101603248016841F0B6
:1034600001010160002181600168114001602E4965
:103470004160016821F4802101600021C160019157
:103480000091016841F480310160016801F400316C
:1034900000910199491C0191009919B90199B1F55F
:1034A000A06FF2D10168490C01F00101009100996F
:1034B00001292CD1016C41F0805101641B490A683B
:1034C00042F480420A6081688160816841F4004171
:1034D0008160816841F4A0518160154941600168B3
:1034E00041F08071016001688901FCD540F20562FC
:1034F00010490A608168890889008160816841F00B
:1035000002018160816801F00C010829FAD14FF0B5
:1035100000610948016002B07047000088ED00E0DA
:10352000FFFFF6FE0038024010300024007000401B
:1035300019544007003C024008ED00E010B507496F
:1035400079441831064C7C44163404E00A68081D9E
:10355000511888470146A142F8D110BD080000006B
:1035600028000000CFEAFFFF2405000084040020AB
:103570000000000007E2FFFF8404000004020000D6
:1035800000000020000000004EF68851CEF200013D
:10359000086840F4700008604FF00070E1EE100A17
:1035A0007047000000F009F8002801D0FFF7C6FFBF
:1035B0000020FDF70FFD00F002F80120704700F039
:1035C00001B800000746384600F002F8FBE70000AB
:1035D00080B5C046C046024A11001820ABBEFBE7CA
:1035E000260002007047FEE7FEE7FEE7FEE77047B1
:1035F00070477047FFF7B6B8014880470148004759
:103600004D34000809360008C046C046FFF7BCFF2D
:10361000FFF7C8FFFFF7E6BFFFF7E5BFFFF7E4BF1F
:10362000FFF7E3BFFFF7E2BFFFF7E1BFFFF7E0BF40
:10363000FFF7DFBFFFF7DEBFFFF7FEBFFFF7FEBFFD
:10364000FFF7FEBFFFF7FEBFFFF7FEBFFFF7FEBFAE
:10365000FFF7FEBFFFF7FEBFFFF7FEBFFFF7FEBF9E
:10366000FFF7FEBFFFF7FEBFFFF7FEBFFFF7FEBF8E
:10367000FFF7FEBFFFF7FEBFFFF7FEBFFFF7FEBF7E
:10368000FFF7FEBFFFF7FEBFFFF7FEBFFFF7FEBF6E
:10369000FFF7FEBFFFF7FEBFFFF7FEBFFFF7FEBF5E
:1036A000FFF7FEBFFFF7FEBFFFF7FEBFFFF7FEBF4E
:1036B000FFF7FEBFFFF7FEBFFFF7FEBFFFF7FEBF3E
:1036C000FFF7FEBFFFF7FEBFFFF7FEBFFFF7FEBF2E
:1036D000FFF7FEBFFFF7FEBFFFF7FEBFFFF7FEBF1E
:1036E000FFF7FEBFFFF7FEBFFFF7FEBFFFF7FEBF0E
:1036F000FFF7FEBFFFF7FEBFFFF7FEBFFFF7FEBFFE
:10370000FFF7FEBFFFF7FEBFFFF7FEBFFFF7FEBFED
:10371000FFF7FEBFFFF7FEBFFFF7FEBFFFF7FEBFDD
:10372000FFF7FEBFFFF7FEBFFFF7FEBFFFF7FEBFCD
:10373000FFF7FEBFFFF7FEBFFFF7FEBFFFF7FEBFBD
:10374000FFF7FEBFFFF7FEBFFFF7FEBFFFF7FEBFAD
:10375000FFF7FEBFFFF7FEBFFFF7FEBFFFF7FEBF9D
:10376000FFF7FEBFFFF7FEBFFFF7FEBFFFF7FEBF8D
:10377000FFF7FEBFFFF7FEBFFFF7FEBFFFF7FEBF7D
:10378000FF0000220193024003000400058D0603A0
:103790000702081409F30A0F0BD00CDC0D150E807C
:1037A0000F001000115C121313801480150016C353
:1037B0001730184419001A901B001C271D7F1E0883
:1037C0001F002050214222F023D824BC25B82644D3
:1037D000272A280029002A782B442C302D042EA5D6
:1037E0002FE03010310032003305349A3530360086
:1037F0003700388E39003A003B003C003D003E0067
:103800003F004000412042044322441845504620D6
:10381000470048CF49614A134B134C004D304E00CE
:103820004F005000512052FF5310542055FA5600BB
:103830005700580059005A005B305C005D305E0054
:103840005F00600061806280630164006580662CB7
:103850006700680069006A006B006C006D006E0014
:103860006F00706071807280738074807580768064
:10387000773F780A79007A307B007C1C7D087EF6E1
:103880007F088010810D82038300846785948618E9
:1038900087E888CA89028A0A8B048C008D008E0012
:1038A0008F00900091069206930694009540960032
:1038B0009700980099089A009B319C009D009E00FB
:1038C0009F01A000A100A200A322A40EA532A60081
:1038D000A700A800A950AA00AB44AC0FAD00AE00F1
:1038E000AF00B040B100B2CCB301B410B520B633D4
:1038F000B712B801B929BAE0BB12BC00BD0CBEC2F8
:10390000BF00C000C100C200C300C440C500C60063
:10391000C700C800C900CA00CB00CC00CD00CE0053
:10392000CF00D0C9D14CD2FFD307D400D53FD600A9
:10393000D700D800D900DA3DDBC3DCFCDD00DE00B7
:10394000DF00E000E100E200E300E400E500E60063
:10395000E700E800E900EA00EB00EC00ED00EE0013
:10396000EF00F000F120F200F300F416F500F6008D
:10397000F700F800F920FA90FB00FC40FD34FE004F
:10398000FF00FF010000014002BF038604000500A4
:1039900006000700080009000A000B000C000D00DB
:1039A0000E000F001000110012001300140015008B
:1039B00016001700180019001A001B001C001D003B
:1039C0001E001F00200021002200230024002500EB
:1039D00026002700280029002A002B002C002D009B
:1039E0002E002F0030F231AD3204338034843500A4
:1039F00036203700380039003A003B003C003D00DB
:103A00003E003F004000410042EE430044004500BC
:103A100046004700480049004A004B004C004D005A
:103A20004E004F005000510052005300540055000A
:103A300056005741580259005A005B005C005D0077
:103A40005E005F006000610062006300640065006A
:103A500066006700680069006A006B006C006D001A
:103A60006E006F00700071007200730074007500CA
:103A70007600775A7800797F7A017B0E7C007D2072
:103A80007E017FE2800081008207831F84648500BD
:103A900086008700880089008A028B4D8C008D008B
:103AA0008E028F0E900391599203935794009501C3
:103AB00096009700980099009A009B369C009D0103
:103AC0009E009F00A002A168A200A352A400A5240A
:103AD000A600A701A800A900AA00AB00AC00ADF6A3
:103AE000AE00AF6AB002B103B288B300B400B50053
:103AF000B600B700B800B900BA00BB00BC00BD00FA
:103B0000BE00BF00C005C1C7C203C303C45AC5116C
:103B1000C620C704C800C900CA00CB10CC04CD0021
:103B2000CE00CF24D000D1F0D2F0D3F0D420D500F5
:103B3000D610D700D842D910DA80DB80DC20DD0136
:103B4000DE00DF00E000E100E200E300E400E50069
:103B5000E600E700E800E900EA00EB00EC00ED0019
:103B6000EE00EF00F0F0F100F2ADF319F400F5E82B
:103B7000F600F7E8F800F900FA00FB00FC00FD0091
:103B8000FE00FF0100000000000000000000000037
:103B900000140240001402400014024000140240CD
:103BA00000140240001402400014024000140240BD
:103BB00000140240000000000000000000000000AF
:103BC000000000000102030406070809007A030A46
:103BD00000000000010203040102030406070809B3
:103BE000000000000000000000000000004000088D
:103BF0000010014000000240000002404D3C2B1A22
:043C00008D7C6B5AF2
:0400000508003609B0
:00000001FF
