:020000040800F2
:10000000480D00205D330008493300084B330008D9
:100010004D3300084F330008513300080000000042
:100020000000000000000000000000005333000842
:10003000553300080000000057330008593300080A
:100040009D330008A1330008A5330008A933000838
:10005000AD330008B1330008B5330008B9330008E8
:10006000BD330008C1330008C5330008C933000898
:10007000CD330008D1330008D5330008D933000848
:10008000DD330008E1330008E5330008E9330008F8
:10009000ED330008F1330008F5330008F9330008A8
:1000A000FD33000801340008053400080934000855
:1000B0000D34000811340008153400081934000804
:1000C0001D340008213400082534000829340008B4
:1000D0002D34000831340008353400083934000864
:1000E0003D34000841340008453400084934000814
:1000F0004D340008513400085534000859340008C4
:100100005D34000861340008653400086934000873
:100110006D34000871340008753400087934000823
:100120007D340008813400088534000889340008D3
:100130008D34000891340008953400089934000883
:100140009D340008A1340008A5340008A934000833
:10015000AD340008B1340008B5340008B9340008E3
:10016000BD340008C1340008C5340008C934000893
:10017000CD340008D1340008D5340008D934000843
:10018000DD340008E134000800B5DFF8A40A0021DE
:10019000017083B0012141708170C1700C21017127
:1001A000002141718171D0E90023CDE90023DDE90F
:1001B000000100F0DBFE03B000BDF0B58DB0DFF84C
:1001C000740A02A9016000A9416004A9816006A91E
:1001D000C16000219DF8080000F0FC008DF80800C7
:1001E00000F0F3008DF8080000F00F0040F0300040
:1001F0008DF8080002A8417081700721C1700021AC
:100200000171417901F0F00141F0010141713121A9
:100210004171422181712421C17108219DF80000A2
:1002200000F0FC008DF8000000F0F3008DF80000F5
:1002300000F0CF008DF8000000F03F008DF80000C6
:1002400000A8417010218170C17801F0F001C170E7
:100250000021C17041609DF8100000F0F0008DF8A1
:10026000100080208DF8100004A8417801F0F00102
:10027000417050214170817801F0F00141F0050199
:10028000817055218170C17801F0F00141F00801C1
:10029000C1702821C170017901F0F00141F007011E
:1002A000017127210171FF21417100200690002179
:1002B00006A841608160C16001618DF82C100FF6C5
:1002C000941000F01EFF0021002000F04CFD0021E2
:1002D000084600F048FD0021084600F044FD0024D7
:1002E00002AD00AE04AF15F8011B04F1080000F0E8
:1002F0003AFD052000F026FF16F8011B04F110005E
:1003000000F031FD052000F01DFF17F8011B04F17E
:10031000180000F028FD052000F014FF641C082CD4
:10032000E1DB0FF6481000F0ECFE002406AD15F8F6
:10033000011B04F1320000F016FD052000F002FF61
:10034000641C152CF3DB0024FF2104F1640000F091
:100350000AFD052000F0F6FE641C4F2CF4DB0FF6BE
:10036000241000F0CEFE0024FF2104F1C80000F0AC
:10037000FAFC052000F0E6FE641C1E2CF4DB0024D1
:10038000FF2104F1E60000F0EEFC052000F0DAFEAB
:10039000641C1D2CF4DB0FF6041000F0B2FEFFF716
:1003A000F3FE0FF6101000F0ACFE0DB0F0BD00B57E
:1003B00085B000A800F0EBFE012000F0D9FE01217D
:1003C000012000F02BFF0121022000F027FF012176
:1003D000042000F023FF0121082000F01FFF01216D
:1003E000102000F01BFF0121202000F017FF012149
:1003F000402000F013FF0121084600F031FF0121E9
:10040000042000F04EFF0121082000F04AFF0121E6
:100410004FF4804000F045FF01214FF4003000F020
:1004200040FF01214FF4002000F03BFF01214FF07D
:10043000007000F036FF01214FF0806000F031FFC6
:100440000121022000F04FFF0121102000F04BFF9E
:1004500001214FF4805000F046FF01214FF480400D
:1004600000F041FF05B000BD2DE9FC414FF4C05044
:10047000009002208DF8040000208DF80600012075
:100480008DF8070002208DF8050000A9DFF8A88785
:10049000404600F0A3FF09220C21404601F0F8F885
:1004A00009220B21404601F0F3F860200090022061
:1004B0008DF8040000208DF8060001208DF807005B
:1004C00002208DF8050000A9DFF87047204600F0F3
:1004D00085FF09220621204601F0DAF809220521CC
:1004E000204601F0D5F80C20009000A902208DF8DC
:1004F000040000208DF8060001208DF8070002207E
:100500008DF80500404600F069FF072202214046B1
:1005100001F0BEF807220321404601F0B9F84FF47C
:100520004067009701208DF8040000A900208DF895
:10053000060001208DF8070002208DF805002046F6
:1005400000F04CFF0320009000A902208DF8040069
:1005500000208DF8060001208DF8070002208DF89C
:100560000500404600F03AFF07220021404601F016
:100570008FF807220121404601F08AF84FF480509D
:10058000009001208DF8040000208DF80600012065
:100590008DF8070002208DF8050000A9DFF8A056AD
:1005A000284600F01BFF0420009001208DF8040075
:1005B00000208DF8060001208DF8070002208DF83C
:1005C000050000A9DFF87C66304600F007FFF02048
:1005D000009000A902208DF8040000208DF806008C
:1005E00001208DF8070002208DF80500404600F03C
:1005F000F5FE05220421404601F04AF805220521B6
:10060000404601F045F805220621404601F040F839
:1006100005220721404601F03BF8009701208DF8A4
:10062000040000A900208DF8060001208DF80700C5
:1006300002208DF80500284600F0D0FE4FF47040EF
:10064000009000A901208DF8040000208DF806001C
:1006500001208DF8070002208DF80500204600F0EB
:10066000BDFE0820009000A903208DF804000020A2
:10067000ADF8060002208DF80500284600F0AEFE19
:100680000720009001208DF8040000208DF806005E
:1006900001208DF8070002208DF8050000A9DFF881
:1006A000A875384600F09AFE4FF47C40009000A9EF
:1006B00000208DF804008DF8060001208DF8070059
:1006C00002208DF80500384600F088FE01200090D9
:1006D00000A900208DF804008DF8060001208DF897
:1006E000070002208DF80500204600F077FE02206A
:1006F000009000A901208DF8040000208DF806006C
:1007000001208DF8070002208DF80500204600F03A
:1007100065FE1020009000A901208DF80400002043
:100720008DF8060001208DF8070002208DF80500E5
:10073000284600F053FE2020009000A900208DF8EC
:1007400004008DF8060001208DF8070002208DF8C6
:100750000500284600F042FE4020009000A902203B
:100760008DF8040000208DF8060001208DF80700A8
:1007700003208DF80500284600F030FE03220621F4
:10078000284600F085FF8020009000A901208DF808
:10079000040000208DF8060001208DF807000220DB
:1007A0008DF80500284600F019FE4FF48070009087
:1007B00000A901208DF8040000208DF8060001201A
:1007C0008DF8070002208DF80500404600F006FE77
:1007D0004FF40070009000A901208DF80400002063
:1007E0008DF8060001208DF8070002208DF8050025
:1007F000284600F0F3FD4FF40060009001208DF8D2
:10080000040000208DF8060001208DF8070002206A
:100810008DF8050000A9DFF83484404600F0DEFDC5
:100820004FF40047009701208DF8040000A9002034
:100830008DF8060001208DF8070002208DF80500D4
:10084000404600F0CBFD4FF44070009000A901201D
:100850008DF8040000208DF8060001208DF80700B7
:1008600002208DF80500204600F0B8FD4FF46050DE
:10087000009000A901208DF8040000208DF80600EA
:1008800001208DF8070002208DF80500304600F0A9
:10089000A5FDFF20009000A901208DF80400002094
:1008A0008DF8060001208DF8070002208DF8050064
:1008B000404600F093FD4FF4E840009000A901206D
:1008C0008DF8040000208DF8060001208DF8070047
:1008D00002208DF80500404600F080FD4FF40050E6
:1008E000009000A900208DF804008DF8060001207A
:1008F0008DF8070002208DF80500284600F06EFDF7
:10090000009701208DF8040000A900208DF8060052
:1009100001208DF8070002208DF80500284600F020
:100920005DFD4CF20370009000A902208DF80400D8
:1009300000208DF8070002208DF80500304600F0F9
:100940004DFD0C220A21304600F0A2FE0C220921A6
:10095000304600F09DFE0C220821304600F098FE43
:100960000C220121304600F093FE0C22002130467B
:1009700000F08EFE0C220F21304600F089FE0C2282
:100980000E21304600F084FE4FF68070009000A9E2
:10099000AF4D284600F022FD0C220F21284600F022
:1009A00077FE0C220E21284600F072FE0C220D214B
:1009B000284600F06DFE0C221146284600F068FE25
:1009C0000C220B21284600F063FE0C220A21284647
:1009D00000F05EFE0C220921284600F059FE0C2290
:1009E0000821284600F054FE0C220721284600F07A
:1009F0004FFE7820009000A9304600F0EFFC0C225A
:100A00000421304600F044FE0C220521304600F05F
:100A10003FFE0C220621304600F03AFE0C22032154
:100A2000304600F035FE0320009000A9284600F073
:100A3000D5FC0C220021284600F02AFE0C220121C0
:100A4000284600F025FE802000900C220721204639
:100A500000F01EFE00A9204600F0C0FC802000909F
:100A600000A9304600F0BAFC0C220721304600F005
:100A70000FFE00F002F8BDE8F381F0B583B044F258
:100A80000710009001208DF8040000208DF806006A
:100A900001208DF8070002208DF8050000A9684CA0
:100AA000204600F09BFC4FF47E70009001208DF8F2
:100AB000040000208DF8060001208DF807000220B8
:100AC0008DF8050000A9604D284600F087FC4FF422
:100AD0004070009001208DF8040000208DF8060081
:100AE00001208DF8070002208DF8050000A9574E5F
:100AF000304600F073FC3C20009001208DF804008B
:100B000000208DF8060001208DF8070002208DF8E6
:100B1000050000A94E4F384600F060FC0121204638
:100B200000F08AFD0221204600F086FD04212046C7
:100B300000F082FD4FF48071204600F07DFD4FF4FF
:100B40008041204600F078FD0821284600F074FD21
:100B50001021284600F070FD2021284600F06CFD91
:100B60004021284600F068FD8021284600F064FD01
:100B70004FF48071284600F05FFD4FF40071284665
:100B800000F05AFD4FF48071304600F055FD4FF4EF
:100B90000071304600F050FD0421384600F04CFD55
:100BA0000821384600F048FD1021384600F044FD89
:100BB0002021384600F040FD03B0F0BD80B5FFF7BE
:100BC000F6FBBDE801404FE438B502211B4800F0B8
:100BD00033FD1B4C1021204600F02EFD80212046C5
:100BE00000F02AFD194D4FF40061284600F024FD65
:100BF0004FF40041284600F01FFD4FF4805120467D
:100C000000F01AFD04210F4800F016FD4FF40071AA
:100C1000204600F0E5FC4FF48071074800F00CFD21
:100C20002046BDE834404FF4004100F005BD00000F
:100C30003805002028050020000002400004024082
:100C400000080240000C024000140240001802405C
:100C5000001002400A0D496E697469616C697A6519
:100C6000203A2031302025250A0D0000496E697494
:100C700069616C697A65203A2033302025250A0D98
:100C800000000000496E697469616C697A65203AF8
:100C90002036302025250A0D00000000496E6974B9
:100CA00069616C697A65203A2039352025250A0D5D
:100CB00000000000496E697469616C697A65203AC8
:100CC000203130302025250A0D0A0D0000B5010025
:100CD000DFF8500183B001694FF400724FF6FF5303
:100CE00008D019404161009201218DF804108DF85F
:100CF000051005E019404161009200218DF80410B3
:100D000000A900F06BFB03B000BD70B504460825D8
:100D1000DFF81061E4B2E0094FF40071304602D010
:100D200000F05EFC01E000F087FC4FF4807130467B
:100D300000F056FC64004FF48071304600F07CFCFB
:100D40006D1EE7D14FF40071304600F075FC4FF492
:100D50008071304600F044FC3046BDE870404FF4EE
:100D6000807100F069BC70B504460D462D4E4FF4FD
:100D70000071304600F034FC0120FFF7A7FF4FF46C
:100D80000071304600F02CFC4FF48071304600F0CA
:100D900027FC4FF40071304600F04EFC4FF4807198
:100DA000304600F049FCA020FFF7AFFF2004000E02
:100DB000FFF7ABFFE0B25FE038B50446194D4FF4E2
:100DC0000071284600F00CFC0120FFF77FFF4FF474
:100DD0000071284600F004FC4FF48071284600F0B2
:100DE000FFFB4FF40071284600F026FC4FF48071A1
:100DF000284600F021FCD020FFF787FF0A20FFF7EC
:100E000084FF2046FFF781FF4FF40071284600F071
:100E100013FC4FF48071284600F0E2FB2846BDE841
:100E200034403BE00004024070B504460D46014EDC
:100E300002E000BF000402404FF40071304600F0B1
:100E4000CFFB0120FFF742FF4FF40071304600F066
:100E5000C7FB4FF48071304600F0C2FB4FF40071C5
:100E6000304600F0E9FB4FF48071304600F0E4FBBF
:100E7000D020FFF74AFF2046FFF747FF2846FFF73D
:100E800044FF4FF40071304600F0D6FB4FF4807100
:100E9000304600F0A5FB3046BDE870404FF40071CD
:100EA00000F09EBB64280CDA0A2190FBF1F10A01E4
:100EB00050FA82F001EB8102A0EB4201C9B2082096
:100EC000B2E7704701460D290DDA60B10A2091FBA7
:100ED000F0F0020151FA82F100EB8002A1EB420135
:100EE000C9B20720A0E77047014620290DDA60B19A
:100EF0000A2091FBF0F0020151FA82F100EB80022E
:100F0000A1EB4201C9B206208EE7704718280CDA1F
:100F10000A2190FBF1F10A0150FA82F001EB810203
:100F2000A0EB4201C9B204207EE770473C280CDAEE
:100F30000A2190FBF1F10A0150FA82F001EB8102E3
:100F4000A0EB4201C9B203206EE770473C280CDADF
:100F50000A2190FBF1F10A0150FA82F001EB8102C3
:100F6000A0EB4201C9B202205EE7704703B581B031
:100F700002210020FFF758FF9DF80400FFF792FFC1
:100F80009DF80500FFF79EFF9DF80600FFF7ACFFF8
:100F90009DF80710082903DA11B10520FFF744FF77
:100FA0009DF80800FFF7B2FF9DF80900FFF7BEFFAC
:100FB0009DF80A00FFF7CAFF00210020FFF734FF69
:100FC00003B05DF804EB002101202DE7F0B4564A90
:100FD000002300240A25B1FBF2F606F130071F5466
:100FE00002FB16110A265B1CB2FBF6F21E1816F85D
:100FF000016C302E06BF002C0023641C6D1EEAD14C
:10100000F0BC7047F0B40578002400221346302D60
:101010002FD14578782D18BF582D2AD1847814B94E
:10102000F0BC002070470224801C057815B90B60C5
:1010300001221AE0A5F14107062F21BFA5F16106A3
:10104000062EA5F130060A2E0FD2A5F130060A2E83
:1010500038BF303D03D3062F34BF373D573D641CA6
:10106000401C05EB03130B2CDFD30B2C22D30022E7
:1010700020E0255C0DB90B600EE02E466B2E18BFEC
:101080004B2E02D10CB1980205E06D2E18BF4D2EEB
:1010900004D11CB11805086001220BE0303D0A2D77
:1010A00008D203EB8305A6F13003641C03EB450370
:1010B0000B2CDED3F0BC1046704738B504461B4DF0
:1010C0002021284600F0F0FC10B1A88820700120F3
:1010D00032BD10B5154C2021204600F0E5FC00285B
:1010E000F9D0A088C0B210BD10B5104C0146204602
:1010F00000F09BFC8021204600F0D6FC0028F9D0AF
:1011000010BD38B50446094D09E0284600F08DFCB5
:101110008021284600F0C8FC0028F9D0641C217802
:101120000029F2D131BD000000CA9A3B00100140F5
:101130000348016811B10168491E01607047000051
:101140004005002082B00021019144F2682108E0AE
:10115000009A521C0092009A8A42F9D3019A521CBA
:101160000192019A824238BF0022F3D302B0704745
:1011700010B5040018BF012C05D040F209210FF270
:10118000DC1000F06BFDDFF8A801046010BDDFF893
:101190009C114A6802F00C02042A02D0082A03D0EB
:1011A0001CE0DFF890211BE00A680B68C2F3805254
:1011B00003F03F03002A14BFDFF87821DFF878211D
:1011C000B2FBF3F20B68C3F388135A430B68C3F303
:1011D00001435B1C5B00B2FBF3F201E0DFF8582136
:1011E00002604B68DFF85421D0F800C0C3F303134A
:1011F0009B5C2CFA03F343604B68D0F804C0C3F344
:1012000082239B5C2CFA03F3836049684368C1F333
:101210004231895C23FA01F1C160704738B5044658
:10122000DFF81C010D46044200D12CB94FF488614F
:101230000FF2281000F012FD65B1012D05D00FF25C
:101240001C1040F2424100F009FDDFF8F80001688F
:10125000214303E0DFF8EC000168A143016031BDE8
:1012600038B5044660080D46400000D12CB940F264
:101270007B410FF2E80000F0F1FC65B1012D05D0D3
:101280000FF2D80040F27C4100F0E8FCDFF8B80033
:101290000168214303E0DFF8B0000168A143016069
:1012A00031BD38B50446DFF8A4000D46044200D134
:1012B0002CB940F2AD410FF2A40000F0CFFC65B1B3
:1012C000012D05D00FF2940040F2AE4100F0C6FCB3
:1012D000DFF87C000168214303E0DFF87400016857
:1012E000A143016031BD38B50446DFF868000D4602
:1012F000044200D12CB940F2D5410FF2600000F059
:10130000ADFC65B1012D05D00FF2500040F2D64181
:1013100000F0A4FCDFF840000168214303E0DFF89F
:1013200038000168A143016031BD0000043802406B
:101330004C00474240787D010024F400000000206A
:1013400000EE8B813038024038380240003601C947
:1013500040380240CCA0F8FF44380240433A5C5485
:101360006F6F6C735C4941522053797374656D7370
:101370005C456D62656464656420576F726B62657D
:101380006E636820362E355C576F726B53706163E5
:10139000655C574C39465F4D6F6E69746F725F497B
:1013A00041505C4C69627261726965735C53544D63
:1013B0003332463478785F5374645065726970686C
:1013C0005F4472697665725C7372635C73746D33CB
:1013D00032663478785F7263632E63002DE9F843D8
:1013E00004460026DFF8A4030D4684421CBFDFF844
:1013F000A00384421FD0DFF89C0384421CBFDFF8A7
:101400009803844217D0DFF8940384421CBFDFF8AE
:10141000900384420FD0DFF88C0384421FBFDFF8B3
:1014200088038442DFF88403844204D0BB210FF296
:10143000803000F013FC286820B90FF27430BC2112
:1014400000F00CFC2879002818BF012808D00228D9
:1014500018BF032804D0BD210FF2543000F0FEFB6A
:10146000E87940B1012818BF022804D00FF24030BB
:10147000BE2100F0F3FB012000FA06F8286808EA14
:101480000000404546D177000320B8406FEA0009CC
:10149000206809EA0000206020682979B9400843E3
:1014A00020602879012818BF02282AD168790028ED
:1014B00018BF012808D0022818BF032804D0D02163
:1014C0000FF2EC2000F0CAFBA06809EA0000A0605F
:1014D000A0686979B9400843A060A879002818BFBE
:1014E000012804D0D7210FF2C82000F0B7FB6068B4
:1014F00020EA080060606068A979B14089B20843B9
:101500006060E06809EA0000E060E068E979B940FD
:101510000843E060761C102EADD3BDE8F18370B5B2
:1015200004460026DFF864020D4684421CBFDFF843
:101530006002844220D0DFF85C0284421CBFDFF8E6
:101540005802844218D0DFF8540284421CBFDFF8EE
:101550005002844210D0DFF84C0284421FBFDFF8F3
:1015600048028442DFF84402844205D04FF4987167
:101570000FF23C2000F072FB012D18BF022D29D084
:10158000042D18BF082D25D0102D18BF202D21D0D7
:10159000402D18BF802D1DD0B5F5807F18BFB5F543
:1015A000007F17D0B5F5806F18BFB5F5006F11D06B
:1015B000B5F5805F18BFB5F5005F0BD0B5F5804F6E
:1015C00018BFB5F5004F05D00FF2E41040F231110D
:1015D00000F044FB2069284218BF0126304670BD48
:1015E00038B5044669480D4684421CBF68488442A9
:1015F00019D0684884421CBF6748844213D06748AA
:1016000084421CBF664884420DD0664884421FBF96
:10161000654884426548844205D040F27F110FF24C
:10162000901000F01BFB2DB90FF284104FF4C07125
:1016300000F014FB258331BD38B5044653480D46F0
:1016400084421CBF5248844219D0524884421CBF75
:101650005148844213D0514884421CBF50488442B0
:101660000DD0504884421FBF4F4884424F488442A7
:1016700005D04FF4C9710FF2381000F0EFFA2DB910
:101680000FF22C1040F2931100F0E8FA658331BD9F
:1016900070B506463D480D46144686421CBF3C4880
:1016A000864219D03B4886421CBF3B48864213D035
:1016B0003A4886421CBF3A4886420DD03948864295
:1016C0001FBF394886423948864205D040F217216B
:1016D0000FF2DC0000F0C2FA002D18BF012D21D05E
:1016E000022D18BF032D1DD0042D18BF052D19D0B4
:1016F000062D18BF072D15D0082D18BF092D11D0A4
:101700000A2D18BF0B2D0DD00C2D18BF0D2D09D093
:101710000E2D18BF0F2D05D00FF294004FF4067157
:1017200000F09CFA002C18BF092C1ED0012C18BF09
:10173000022C1AD0032C18BF042C16D0052C18BF6D
:10174000062C12D0072C18BF082C0ED00A2C18BF5C
:101750000B2C0AD00C2C1CBF0D2C0F2C05D040F2EA
:1017600019210FF24C0000F079FAE80806EB80002E
:1017700005F007018900026A0F238B409A43026239
:1017800004FA01F1026A1143016270BD00000240D7
:101790000004024000080240000C02400010024019
:1017A0000014024000180240001C024000200240C9
:1017B000433A5C546F6F6C735C49415220537973A8
:1017C00074656D735C456D62656464656420576F14
:1017D000726B62656E636820362E355C576F726B74
:1017E00053706163655C574C39465F4D6F6E697429
:1017F0006F725F4941505C4C6962726172696573D6
:101800005C53544D3332463478785F53746450657A
:10181000726970685F4472697665725C7372635C4A
:1018200073746D3332663478785F6770696F2E63D6
:1018300000000000F0B50446DFF84C72DFF860628B
:1018400085B00D46BC421CBFDFF84002844213D075
:10185000DFF83C0284421CBFDFF8380284420BD020
:10186000DFF8340284421CBFDFF83002844203D028
:10187000EB21304600F0F2F9286818B1DFF82412A5
:10188000884203D3EC21304600F0E8F9A88800280C
:1018900018BFB0F5805F03D0ED21304600F0DEF9CF
:1018A000E888002818BFB0F5805F09D0B0F5005F68
:1018B00018BFB0F5405F03D0EE21304600F0CEF9FE
:1018C000288900281CBFB0F5806FB0F5C06F03D029
:1018D000EF21304600F0C2F968894FF6F3710842F3
:1018E00000D118B9F021304600F0B8F9A889F8B154
:1018F000B0F5807F1CBFB0F5007FB0F5407F05D00C
:10190000F121304600F0AAF9A88988B1BC421CBF79
:10191000DFF8780184420BD0DFF8740184421CBFE9
:10192000DFF87801844203D0F621304600F096F9C2
:10193000208A4CF6FF710840E988084320824EF661
:10194000F311A0890840A9880843298908436989B7
:101950000843A0814FF6FF41A08A0840A9890843A7
:10196000A08200A8FFF713FCBC421BBFDFF82C01CC
:10197000844203980298296819225043A2891204CC
:101980004CBF49008900B0FBF1F16420B1FBF0F0DD
:1019900000010209642303FB1211A289120406D577
:1019A000C9003231B1FBF3F101F0070105E0090193
:1019B0003231B1FBF3F101F00F010843208105B092
:1019C000F0BD38B50446DFF8C0000D4684421CBFA8
:1019D000DFF8B800844215D0DFF8B40084421CBFA1
:1019E000DFF8B00084420DD0DFF8AC0084421CBFA9
:1019F000DFF8A800844205D040F29B110FF2581086
:101A000000F02CF95DB1012D05D00FF24C104FF410
:101A1000CE7100F023F9A08940F4005003E0A089C2
:101A20004DF6FF710840A08131BD38B50446DFF89E
:101A300058000D4684421CBFDFF85000844215D088
:101A4000DFF84C0084421CBFDFF8480084420DD010
:101A5000DFF8440084421CBFDFF84000844205D018
:101A600040F21D210FF2F00000F0F8F8B5F5007F0C
:101A700005DB0FF2E40040F21E2100F0EFF8E8056C
:101A8000C00DA08031BD00000010014000440040A6
:101A900000480040004C004000500040001401404D
:101AA000581B0008E1707200F8B504460026244F68
:101AB0000D46BC421CBF2348844211D022488442B8
:101AC0001CBF224884420BD0214884421CBF2148BD
:101AD000844205D040F2FC410FF27C0000F0BEF8D9
:101AE000012D18BF802D24D0402D18BF202D20D0CF
:101AF000102D18BFB5F5807F1BD0B5F5007F07D03E
:101B0000082D1CBF042D022D13D040F2FD410CE026
:101B1000BC421CBF0B4884420BD00B4884421CBF04
:101B20000C48844205D040F202510FF22C0000F024
:101B300095F82088284218BF01263046F2BD0000E3
:101B4000001001400044004000480040004C0040AC
:101B50000050004000140140433A5C546F6F6C73B6
:101B60005C4941522053797374656D735C456D62B5
:101B7000656464656420576F726B62656E6368208C
:101B8000362E355C576F726B53706163655C574CD2
:101B900039465F4D6F6E69746F725F4941505C4C9E
:101BA00069627261726965735C53544D33324634B5
:101BB00078785F5374645065726970685F447269C5
:101BC0007665725C7372635C73746D3332663478FD
:101BD000785F75736172742E6300000000B585B084
:101BE00000F054F8FEF7EAFFFEF7EEFF0020FFF7E3
:101BF000E3F820211448FFF792FC90B94FF4E1304C
:101C0000009000A900200190ADF80800ADF80C008C
:101C10000C20ADF80A00002000F010F900F0EDF9FA
:101C200010E00A480A4A01681140B1F1005F09D189
:101C30004168084A1160084A1160006880F308880A
:101C400008468047FEE70000000802400040000808
:101C50000000FE2F200000201C000020FEE710B432
:101C600050F8041B81B102681218001D50F8043BA3
:101C7000DC0744BFA9F10104E31852F8044B43F810
:101C8000044B091FF9D1EBE710BC704780B500F099
:101C9000E9FDBDE80240F32000F0EABE10B55B4864
:101CA00000F066F8044600E00834592C07D20221FF
:101CB000204600F0E3FD0828F6D0012010BD0020EA
:101CC00010BD2DE9F04104460E4615460027DFF809
:101CD000408103E02068001D20607F1CAF423CBFB4
:101CE0002068404511D23168206800F023FE0828A2
:101CF00008D1206856F8041B00688842EAD0022008
:101D0000BDE8F0810120BDE8F0810020BDE8F08150
:101D100010B53E4800F02CF8C40800F0A6FE40F6CE
:101D2000FF71E040E140884201D1012010BD002058
:101D300010BD00B583B00820019002200090334808
:101D400000F016F8019001200199C9088840C0F5FB
:101D50008050009000F01FFE0021009800F027FE48
:101D600000F07DFE082814BF0220012003B000BD52
:101D70000021A0F10062B2F5804F45D32549091832
:101D8000B1F5804F38BF08213ED323490918B1F57A
:101D9000804F38BF102137D320490918B1F5804F43
:101DA00038BF182130D31E490918B1F5803F38BF1C
:101DB000202129D31B490918B1F5003F38BF28213C
:101DC00022D319490918B1F5003F38BF30211BD380
:101DD00016490918B1F5003F38BF382114D314490A
:101DE0000918B1F5003F38BF40210DD3114909183A
:101DF000B1F5003F38BF482106D30F490818B0F5A8
:101E0000003F34BF50215821084670470040000869
:101E1000FCFF0F0800C0FFF70080FFF70040FFF74E
:101E20000000FFF70000FEF70000FCF70000FAF7E3
:101E30000000F8F70000F6F70000F4F7F0B50646EA
:101E40000FF2BC000FF2BC0283B0354650F82500FB
:101E500052F825200C4601211043FFF7DFF91EB987
:101E600001211020FFF71DFA0FF2AC00DFF88C60A3
:101E700030F815200FF2980030F8151006EB8507A2
:101E8000D2B27868FFF704FC0FF2900030F815200A
:101E90000FF2800030F81510B868D2B2FFF7F8FBE7
:101EA00000208DF8060000A901208DF8070002200F
:101EB0008DF804000FF2500030F815000090022059
:101EC0008DF805007868FFF789FA02208DF8040084
:101ED00000A90FF2380030F815000090B868FFF73D
:101EE0007DFA56F825002146FFF7A4FC56F8250098
:101EF0000121FFF766FD03B0F0BD000010000020D7
:101F000001000000010000000002000000040000C9
:101F1000090000000A00000007000000070050F858
:101F2000041B61B150F8042BD30744BFA9F101038E
:101F30009A18002342F8043B091FFAD1EFE77047D3
:101F400030B583B000A80FF218210A2200F042FE3B
:101F50000FF21820FFF7D5F87F4C04F10C0000F0C9
:101F600065FE0546012D31DB0FF23C20FFF7C9F875
:101F70000FF25C20FFF7C5F804F20C40FFF7C1F840
:101F8000294600A8FFF722F80FF27C20FFF7B9F8E6
:101F900000A8FFF7B6F80FF28420FFF7B2F80FF2AF
:101FA0008820FFF7AEF80FF2A420FFF7AAF80FF28F
:101FB000A420FFF7A6F869484168616021600068C5
:101FC00080F308880846804703B030BD15F1010F43
:101FD00008BF0FF2A4200CD015F1020F08BF0FF2BA
:101FE000D82006D015F1030F0CBF0FF2E8200FF236
:101FF000FC20FFF786F803B030BD38B50FF28C3403
:102000002046FFF77EF80FF2C4352846FFF779F82F
:102010000FF2F830FFF775F82846FFF772F80FF265
:102020002C40FFF76EF82846FFF76BF80FF25C4084
:10203000FFF767F80FF29440FFF763F80FF2CC4018
:10204000FFF75FF82846FFF75CF80FF20050FFF744
:1020500058F82046FFF755F83EA0FFF752F83E4CDF
:10206000FFF756FE401E8041C00FA06001E0FFF761
:1020700067FF0FF21850FFF744F8A06818B10FF28D
:102080004C50FFF73EF80FF28450FFF73AF80FF28A
:10209000BC50FFF736F80FF2F450FFF732F80FF2AA
:1020A0002C60FFF72EF80FF26460FFF72AF8FFF7B5
:1020B00010F83128DBD0322817D10FF25020FFF76B
:1020C00020F8FFF706F84328D3D14FF47C220FF213
:1020D0005821224800F02AFF00280CBF0FF28C2064
:1020E0000FF25C20FFF70DF8C3E7332809D11B4836
:1020F000416861602160006880F308880846804775
:10210000B7E7342808D10FF24460FEF7FAFFFEF774
:1021100054F80FF25C60E5E7302804BFA06801289E
:102120000FD1FFF706FE012802D0022806D0A0E753
:102130000FF26060FEF7E5FF002096E70FF2746093
:10214000D0E7A068002814BF0FF2D4600FF29060AF
:10215000C8E700000D0A00001C0000200040000835
:10216000202020202020202020200000576169749A
:10217000696E6720666F72207468652066696C6599
:1021800020746F2062652073656E74202E2E2E20C1
:102190002870726573732027612720746F20616235
:1021A0006F7274290A0D00000A0A0D2050726F67C1
:1021B00072616D6D696E6720436F6D706C657465DB
:1021C00064205375636365737366756C6C79210065
:1021D0000A0D2D2D2D2D2D2D2D2D2D2D2D2D2D2D72
:1021E0002D2D2D2D2D2D2D2D2D2D2D2D2D2D2D2D1F
:1021F0002D2D0D0A2053656E642046696C65204EB6
:10220000616D653A200000000A0D2053656E642060
:1022100046696C652053697A653A200020427974DA
:1022200065730D0A000000002D2D2D2D2D2D2D2D57
:102230002D2D2D2D2D2D2D2D2D2D2D2D2D2D2D2DCE
:102240002D2D2D2D2D2D2D2D0A0000000D0A0D0AEE
:10225000000000004170706C69636174696F6E20EA
:1022600050726F6772616D2052756E6E696E672E67
:102270002E2E2E2E0D0A00000A0A0D5468652069C4
:102280006D6167652073697A652069732068696785
:10229000686572207468616E2074686520616C6C7A
:1022A0006F776564207370616365206D656D6F7213
:1022B00079210A0D000000000A0A0D566572696650
:1022C00069636174696F6E206661696C6564210A77
:1022D0000D0000000D0A0A41626F7274656420628D
:1022E0007920757365722E0A0D0000000A0D466193
:1022F000696C656420746F2072656365697665201A
:102300007468652066696C65210A0D000A0A0D5320
:10231000656C6563742052656365697665204669FE
:102320006C650A0D0000000055706C6F6164656497
:10233000466C617368496D6167652E62696E000065
:102340000A0D4572726F72204F6363757272656415
:10235000207768696C65205472616E736D6974745E
:10236000696E672046696C650A0D00000A0D4669B2
:102370006C652075706C6F61646564207375636350
:1023800065737366756C6C79200A0D000D0A3D3D0E
:102390003D3D3D3D3D3D3D3D3D3D3D3D3D3D3D3D6D
:1023A0003D3D3D3D3D3D3D3D3D3D3D3D3D3D3D3D5D
:1023B0003D3D3D3D3D3D3D3D3D3D3D3D3D3D3D3D4D
:1023C0003D3D3D3D3D3D3D3D000000000D0A3D20B1
:1023D00020202020202020202020202020202020FD
:1023E00020202020202020202020202020202020ED
:1023F00020202020202020202020202020202020DD
:10240000202020202020203D000000000D0A3D203B
:1024100020202020202020202020202054616548DA
:1024200061204D6563686174726F6E6963732043E8
:102430006F2E2C204C74642E202020202020202061
:10244000202020202020203D000000000D0A3D20FB
:10245000496E2D4170706C69636174696F6E2050B4
:10246000726F6772616D6D696E67204170706C6923
:10247000636174696F6E202020202020202020209E
:10248000202020202020203D000000000D0A3D20BB
:1024900050726F6A6563742020202020203A2057F4
:1024A0004C3946204D6F6E69746F722020202020B9
:1024B000202020202020202020202020202020201C
:1024C000202020202020203D000000000D0A3D207B
:1024D000456E7669726F6E6D656E7420203A204588
:1024E0005741524D2076362E352C204C6962726150
:1024F00072792076312E302E30202020202020208E
:10250000202020202020203D000000000D0A3D203A
:102510002020202020202020202020202020205388
:10252000544D333246347878205374616E6461724E
:1025300064205065726970686572616C73204C69C3
:10254000627261727920203D000000000D0A3D207A
:10255000427920454353204469762E206B7574657B
:102560006C662020202020202020202020202020D9
:10257000202020202020202020202020202020205B
:10258000202020202020203D000000000D0A3D3D9D
:102590003D3D3D3D3D3D3D3D3D3D3D3D3D3D3D3D6B
:1025A0003D3D204D61696E204D656E75203D3D3D80
:1025B0003D3D3D3D3D3D3D3D3D3D3D3D3D3D3D3D4B
:1025C0003D3D3D3D3D3D3D3D0D0A0A002020446915
:1025D0007361626C65207468652077726974652028
:1025E00070726F74656374696F6E202853544D3335
:1025F000324634303720496E7465726E616C204605
:102600006C6173682920300D0A0A00002020446F95
:10261000776E6C6F6164204170706C69636174697E
:102620006F6E20746F207468652053544D333246AA
:1026300034303720496E7465726E616C20466C616F
:102640007368202D2D20310D0A0A000020205570BE
:102650006C6F61642020204170706C6963617469E3
:102660006F6E2066726F6D20202053544D333246BA
:1026700034303720496E7465726E616C20466C612F
:102680007368202D2D20320D0A0A00002020457885
:10269000656375746520546865204E6577205072B7
:1026A0006F6772616D202D2D2D2D2D2D2D2D2D2D32
:1026B0002D2D2D2D2D2D2D2D2D2D2D2D2D2D2D2D4A
:1026C0002D2D2D2D2D20330D0A0A000020204545EB
:1026D00050524F4D20496E697469616C697A61741A
:1026E000696F6E202D2D2D2D2D2D2D2D2D2D2D2D68
:1026F0002D2D2D2D2D2D2D2D2D2D2D2D2D2D2D2D0A
:102700002D2D2D2D2D20340D0A0A00003D3D3D3D7F
:102710003D3D3D3D3D3D3D3D3D3D3D3D3D3D3D3DE9
:102720003D3D3D3D3D3D3D3D3D3D3D3D3D3D3D3DD9
:102730003D3D3D3D3D3D3D3D3D3D3D3D3D3D3D3DC9
:102740003D3D3D3D3D3D0D0A0A00000045455052CE
:102750004F4D20496E697469616C697A6528436CD4
:10276000656172292053746172742E2E2E0A0D0039
:10277000454550524F4D20496E697469616C697AC4
:102780006528436C6561722920456E642E2E2E0AE1
:102790000D00000057726974652050726F74656394
:1027A00074696F6E2064697361626C65642E2E2E8D
:1027B0000D0A00004572726F723A20466C617368B0
:1027C00020777269746520756E70726F74656374BA
:1027D000696F6E206661696C65642E2E2E0D0A008D
:1027E000496E76616C6964204E756D626572202158
:1027F000203D3D3E20546865206E756D62657220F7
:1028000073686F756C6420626520656974686572B1
:1028100020312C20322C2033206F7220340D000008
:10282000496E76616C6964204E756D626572202117
:10283000203D3D3E20546865206E756D62657220B6
:1028400073686F756C642062652065697468657271
:1028500020302C20312C20322C2033206F72203459
:102860000D000000DFF89C02C168002905D5DFF8E3
:1028700098120160DFF894120160704770B5044649
:1028800000260D46002C18BF082C19D0102C18BF9C
:10289000182C15D0202C18BF282C11D0302C18BF84
:1028A000382C0DD0402C18BF482C09D0502C18BF04
:1028B000582C05D040F25B110FF27420FFF7CEF9CF
:1028C0006DB1012D30D0022D31D0032D05D00FF286
:1028D00060204FF4AE71FFF7C1F94FF4407600F07D
:1028E000D6F808281FD1DFF82852286820F4407055
:1028F000286044F00201286830432860286820F0EE
:10290000F8002860286808432860286840F4803070
:10291000286000F0BCF8296821F0020129602968CC
:1029200021F0F801296070BD4FF48076D7E74FF4AD
:102930000076D4E770B504460D46A4F10060DFF8D8
:10294000D411884221BF04F1604000F5084040F2F4
:102950000F21884205D34FF4FB710FF2D410FFF71B
:102960007DF900F094F8082814D1DFF8A4613068EC
:1029700020F440703060306840F40070306030689F
:1029800040F001003060256000F081F831684908AE
:102990004900316070BDDFF88401C168C90705D501
:1029A000DFF87C110160DFF87C110160704738B5F9
:1029B0000446200B0D46000300D12CB940F2B6218D
:1029C0000FF26C10FFF74AF9002D18BF012D05D04A
:1029D0000FF25C1040F2B721FFF740F908208DF8A4
:1029E00000000821DFF830010268D20348BF01214E
:1029F00013D40268D20648BF05210ED4026812F033
:102A0000EF0F18BF062108D10268920705D50721EC
:102A100003E00268920748BF07218DF800109DF877
:102A20000010012910D102680821D20348BF0121FA
:102A3000F3D40268D20648BF0521EED4026812F032
:102A4000EF0FE6D00621E8E79DF80010082905D130
:102A50004189002D14BFA1432143418131BD32483A
:102A6000017841F00201017011E0304800887047A0
:102A700010B5044634F0F30000D12CB940F2C73150
:102A80000FF2AC00FFF7EAF82348046010BD81B0F4
:102A900008208DF8000008211F480268D20348BFB3
:102AA000012113D40268D20648BF05210ED4026862
:102AB00012F0EF0F18BF062108D10268920705D562
:102AC000072103E00268920748BF07218DF8001034
:102AD0009DF80010012910D102680821D20348BFD7
:102AE0000121F3D40268D20648BF0521EED4026862
:102AF00012F0EF0FE6D00621E8E79DF8000001B0E4
:102B000070470000043C024023016745AB89EFCDCC
:102B1000103C0240FFFF0F000C3C0240083C02400A
:102B20003B2A19087F6E5D4C143C0240163C024063
:102B3000433A5C546F6F6C735C4941522053797314
:102B400074656D735C456D62656464656420576F80
:102B5000726B62656E636820362E355C576F726BE0
:102B600053706163655C574C39465F4D6F6E697495
:102B70006F725F4941505C4C696272617269657342
:102B80005C53544D3332463478785F5374645065E7
:102B9000726970685F4472697665725C7372635CB7
:102BA00073746D3332663478785F666C6173682E47
:102BB0006300000062B38B0708D0521E11F8013B7E
:102BC00000F8013B00F024808B07F6D1830740F02A
:102BD000208000BF103A07D330B4B1E83810103A63
:102BE000A0E83810F9D230BC530724BFB1E8081070
:102BF000A0E8081044BF51F8043B40F8043BD2075A
:102C000024BF31F8022B20F8022B44BF0B7803704D
:102C10007047083A07D3B1E80810083A40F8043B77
:102C200040F804CBF7D25307E4E700002DE9F14F59
:102C3000ADF5856D00200190002461480390029459
:102C400008AD02E00620FEF74FFA002602E043201E
:102C5000FEF74AFA4FF480180027C14600A8FEF795
:102C60002CFAA9F10109012810D0B9F1000FF5D112
:102C700002980128A8BF641C062CE8DB1820FEF788
:102C800033FA1820FEF730FA0020BCE09DF800006F
:102C9000012825D0022820D004283FD018280CD0A5
:102CA000412818BF6128E3D11820FEF71DFA18202B
:102CB000FEF71AFA6FF00200A5E000A8FEF7FDF992
:102CC000A8F10108012803D0B8F1000FF5D1CFE732
:102CD0009DF800001828CBD126E04FF4806700E073
:102CE00080278DF820000DF1210907F1040AC34661
:102CF0004846FEF7E2F9ABF1010B012803D0BBF126
:102D0000000FF5D1B4E709F10109BAF1010AEED1DA
:102D1000A978687881F0FF018842A9D100243800A1
:102D200090D0B7F1FF3F01D10620ABE76878F1B250
:102D3000884218BF15208BD1002E4CD1E87800288E
:102D400044D000200DF123011E4A04E011F8013B9C
:102D500002F8013B401C0B780BB1FF28F6DD194A45
:102D600084540020491C04AA04E011F8013B02F835
:102D7000013B401C0B78202B01D01028F5DB04A967
:102D8000445401A904A8FEF73DF901980E49884270
:102D900008D31820FEF7A8F91820FEF7A5F94FF080
:102DA000FF3030E00648FEF779FF0620FEF79CF979
:102DB0004320FEF799F90120761C02904AE700BFF4
:102DC000004000082804002002C00F000620FEF783
:102DD0008BF9019817E03A46DDF828040DF123013C
:102DE000FFF7E8FEDDF82814BA0803A8FEF769FF2C
:102DF00008B90620DDE71820FEF776F91820FEF75F
:102E000073F96FF001000DF22C4DBDE8F08F30B575
:102E1000044683B001202070002500206070FF2050
:102E2000A07004F2030005E011F8013B00F8013B3B
:102E30006D1CADB20B780BB1FF2DF5DD281900210B
:102E4000C17000A81168FEF7C1F8281D80B200A962
:102E500004E011F8012B0255401C80B20A78002AC8
:102E6000F7D1832804DAC0F18301001900F068F972
:102E700003B030BD78B40C46B3F5806F04D34FF483
:102E800080631946022505E08021802B2CBF80231A
:102E90009BB2012525706270D243A270DA1C042A0D
:102EA00008DB04F203021D4610F8016B02F8016B07
:102EB0006D1EF9D199420ADBDB1C9BB2CA1CD11AE8
:102EC000934204DA181978BC1A2200F03DB971BC9B
:102ED000704741F4807141F2210240004900CB0566
:102EE00048BF401CC30348BF5040CB03F5D580B258
:102EF000704738B5044600200D1903E014F8011B93
:102F0000FFF7E7FFAC42F9D30021FFF7E2FFBDE88E
:102F100034400021DDE738B504460D0005D014F833
:102F2000010BFEF7E1F86D1EF9D131BD2DE9F44F2B
:102F3000ADF5A26D06460025002001AA11F8013B5F
:102F400002F8013BC01C11F8013B02F8013BFF28CD
:102F500011F8013B02F8013BF0D10DF5A26201A985
:102F600041A8FFF754FF42F21078832141A8FFF7F0
:102F7000D2FF41A88021C01CFFF7BBFF0746000A13
:102F8000FEF7B2F8F8B2FEF7AFF8474600A8FEF732
:102F900094F87F1E012807D0002FF7D16D1C0A2D51
:102FA000E3D30A2D05D3C3E09DF800000628F6D12F
:102FB000F7E7DDF810750124002F52D03B46E2B24E
:102FC00041A93046FFF756FF00208DF8000000258C
:102FD000B7F5806F2CBF4FF480694FF0800909F17D
:102FE00003000DF5827A1FFA80FB1AF8010BFEF739
:102FF0007BF8BBF1010BF8D141A84946C01CFFF793
:1030000078FF8246000AFEF76FF85FFA8AF0FEF753
:103010006BF8DFF824A000A8FEF74FF8AAF1010A28
:1030200001280BD0BAF1000FF5D16D1C0A2DCFD3BA
:103030000A2DC1D37CE000BFA08601009DF80000EE
:103040000628F2D14E44B94509D2A0B2A7EB090730
:10305000B0F57C7F18BF441CEAD1FF206BE000274D
:10306000E6E700208DF8000000250420FEF73CF87C
:10307000464600A8FEF721F8761E012802D0002E51
:10308000F7D103E09DF80000062802D06D1C0A2D40
:10309000EBD30A2D4CD201208DF804010026FF202D
:1030A0008DF80601002541A88DF800608DF80551C6
:1030B0008021C01C00F044F8832141A8FFF72BFFBA
:1030C00041A88021C01CFFF714FF0746000AFEF745
:1030D0000BF8F8B2FEF708F8474600A8FDF7EDFF39
:1030E0007F1E012807D0002FF7D16D1C0A2DE3D3D6
:1030F0000A2D06D31CE09DF800000628F6D1012613
:10310000F6E70420FDF7F0FF474600A8FDF7D5FFDE
:103110007F1E012802D0002FF7D103E09DF80000A8
:10312000062803D06D1C0EB90A2DEAD30A2D01D34F
:10313000E8B200E000200DF2145DBDE8F08F000061
:10314000002200F005B8000062F30F2262F31F4274
:10315000401810F0030308D0C91A1FD3DB0748BF7B
:1031600000F8012D28BF20F8022D130030B41446BA
:103170001546103928BF20E93C00FAD8490728BF76
:1031800020E90C0048BF40F8042D890028BF20F832
:10319000022D48BF00F8012D30BC7047C91818BF78
:1031A00000F8012DCB0728BF00F8012D7047000063
:1031B0003348344A82B0016841F4700101603248FA
:1031C000016841F001010160002181600168114046
:1031D00001602E494160016821F4802101600021D5
:1031E000C16001910091016841F480310160016882
:1031F00001F4003100910199491C0191009919B91C
:103200000199B1F5A06FF2D10168490C01F00101FB
:103210000091009901292CD1016C41F08051016489
:103220001B490A6842F480420A60816881608168B3
:1032300041F400418160816841F4A05181601549E9
:103240004160016841F08071016001688901FCD52D
:1032500040F2056210490A6081688908890081602E
:10326000816841F002018160816801F00C01082948
:10327000FAD14FF000610948016002B070470000C8
:1032800088ED00E0FFFFF6FE003802401030002419
:103290000070004019544007003C024008ED00E077
:1032A00010B5074979441831064C7C44163404E0C3
:1032B0000A68081D511888470146A142F8D110BD7F
:1032C000080000002800000057ECFFFF2805000060
:1032D0001C0000200000000087E9FFFF1C00000028
:1032E0000402000000000020000000004EF688519B
:1032F000CEF20001086840F4700008604FF00070E2
:10330000E1EE100A7047000000F009F8002801D033
:10331000FFF7C6FF0020FEF761FC00F002F8012075
:10332000704700F001B800000746384600F002F888
:10333000FBE7000080B5C046C046024A11001820D5
:10334000ABBEFBE7260002007047FEE7FEE7FEE7A4
:10335000FEE7704770477047FDF7EABE01488047B7
:1033600001480047B13100086D330008C046C0462F
:10337000FFF7BCFFFFF7C8FFFFF7E6BFFFF7E5BFAA
:10338000FFF7E4BFFFF7E3BFFFF7E2BFFFF7E1BFDF
:10339000FFF7E0BFFFF7DFBFFFF7DEBFFFF7FEBFBE
:1033A000FFF7FEBFFFF7FEBFFFF7FEBFFFF7FEBF51
:1033B000FFF7FEBFFFF7FEBFFFF7FEBFFFF7FEBF41
:1033C000FFF7FEBFFFF7FEBFFFF7FEBFFFF7FEBF31
:1033D000FFF7FEBFFFF7FEBFFFF7FEBFFFF7FEBF21
:1033E000FFF7FEBFFFF7FEBFFFF7FEBFFFF7FEBF11
:1033F000FFF7FEBFFFF7FEBFFFF7FEBFFFF7FEBF01
:10340000FFF7FEBFFFF7FEBFFFF7FEBFFFF7FEBFF0
:10341000FFF7FEBFFFF7FEBFFFF7FEBFFFF7FEBFE0
:10342000FFF7FEBFFFF7FEBFFFF7FEBFFFF7FEBFD0
:10343000FFF7FEBFFFF7FEBFFFF7FEBFFFF7FEBFC0
:10344000FFF7FEBFFFF7FEBFFFF7FEBFFFF7FEBFB0
:10345000FFF7FEBFFFF7FEBFFFF7FEBFFFF7FEBFA0
:10346000FFF7FEBFFFF7FEBFFFF7FEBFFFF7FEBF90
:10347000FFF7FEBFFFF7FEBFFFF7FEBFFFF7FEBF80
:10348000FFF7FEBFFFF7FEBFFFF7FEBFFFF7FEBF70
:10349000FFF7FEBFFFF7FEBFFFF7FEBFFFF7FEBF60
:1034A000FFF7FEBFFFF7FEBFFFF7FEBFFFF7FEBF50
:1034B000FFF7FEBFFFF7FEBFFFF7FEBFFFF7FEBF40
:1034C000FFF7FEBFFFF7FEBFFFF7FEBFFFF7FEBF30
:1034D000FFF7FEBFFFF7FEBFFFF7FEBFFFF7FEBF20
:1034E000FFF7FEBF00000000010203040102030415
:1034F00006070809001001400000024000000240D9
:040000050800336D4F
:00000001FF
