:020000040800F2
:10000000680D0020513400083D3400083F340008DA
:100010004134000843340008453400080000000063
:10002000000000000000000000000000473400084D
:1000300049340008000000004B3400084D3400082B
:100040009134000895340008993400089D34000864
:10005000A1340008A5340008A9340008AD34000814
:10006000B1340008B5340008B9340008BD340008C4
:10007000C1340008C5340008C9340008CD34000874
:10008000D1340008D5340008D9340008DD34000824
:10009000E1340008E5340008E9340008ED340008D4
:1000A000F1340008F5340008F9340008FD34000884
:1000B0000135000805350008093500080D35000830
:1000C0001135000815350008193500081D350008E0
:1000D0002135000825350008293500082D35000890
:1000E0003135000835350008393500083D35000840
:1000F0004135000845350008493500084D350008F0
:100100005135000855350008593500085D3500089F
:100110006135000865350008693500086D3500084F
:100120007135000875350008793500087D350008FF
:100130008135000885350008893500088D350008AF
:100140009135000895350008993500089D3500085F
:10015000A1350008A5350008A9350008AD3500080F
:10016000B1350008B5350008B9350008BD350008BF
:10017000C1350008C5350008C9350008CD3500086F
:10018000D1350008D535000800B5DFF8640B002133
:10019000017083B0012141708170C1700C21017127
:1001A000002141718171D0E90023CDE90023DDE90F
:1001B000000100F03BFF03B000BDF0B58DB0DFF8EB
:1001C000340B02A9016000A9416004A9816006A95D
:1001D000C16000219DF8080000F0FC008DF80800C7
:1001E00000F0F3008DF8080000F00F0040F0300040
:1001F0008DF8080002A8417081700721C1700021AC
:100200000171417901F0F00141F0010141713121A9
:100210004171422181712421C17108219DF80000A2
:1002200000F0FC008DF8000000F0F3008DF80000F5
:1002300000F0CF008DF8000000F03F008DF80000C6
:1002400000A8417010218170C17801F0F001C170E7
:100250000021C17041609DF8100000F0F0008DF8A1
:10026000100080208DF8100004A8417801F0F00102
:10027000417050214170817801F0F00141F0050199
:10028000817055218170C17801F0F00141F00801C1
:10029000C1702821C170017901F0F00141F007011E
:1002A000017127210171FF21417100200690002179
:1002B00006A841608160C16001618DF82C100FF6C5
:1002C000542000F023FF0021002000F0ACFD0021AD
:1002D000084600F0A8FD0021084600F0A4FD002417
:1002E00002AD00AE04AF15F8011B04F1080000F0E8
:1002F0009AFD052000F02AFF16F8011B04F11000FA
:1003000000F091FD052000F021FF17F8011B04F11A
:10031000180000F088FD052000F018FF641C082C70
:10032000E1DB0FF6082000F0F1FE002406AD15F821
:10033000011B04F1320000F076FD052000F006FFFD
:10034000641C152CF3DB0024FF2104F1640000F091
:100350006AFD052000F0FAFE641C4F2CF4DB0FF65A
:10036000E41000F0D3FE0024FF2104F1C80000F0E7
:100370005AFD052000F0EAFE641C1E2CF4DB00246C
:10038000FF2104F1E60000F04EFD052000F0DEFE46
:10039000641C1D2CF4DB0FF6C41000F0B7FEFFF751
:1003A000F3FE0FF6D01000F0B1FE0DB0F0BD00B5B9
:1003B00085B000A800F0EFFE012000F0DDFE012175
:1003C000012000F02FFF0121022000F02BFF01216E
:1003D000042000F027FF0121082000F023FF012165
:1003E000102000F01FFF0121202000F01BFF012141
:1003F000402000F017FF0121084600F035FF0121E1
:10040000042000F052FF0121082000F04EFF0121DE
:100410004FF4804000F049FF01214FF4003000F01C
:1004200044FF01214FF4002000F03FFF01214FF075
:10043000007000F03AFF01214FF0806000F035FFBE
:100440000121022000F053FF0121102000F04FFF96
:1004500001214FF4805000F04AFF01214FF4804009
:1004600000F045FF05B000BD2DE9F04F83B04FF41B
:10047000C050009002208DF8040000208DF8060086
:1004800001208DF8070002208DF8050000A9DFF893
:100490006868304600F09CFF09220C21304601F0CC
:1004A00050F909220B21304601F04BF960200090F1
:1004B00002208DF8040000208DF8060001208DF840
:1004C000070002208DF8050000A9DFF830884046BB
:1004D00000F07EFF09220621404601F032F9092290
:1004E0000521404601F02DF90C20009000A90220C2
:1004F0008DF8040000208DF8060001208DF807001B
:1005000002208DF80500304600F062FF072202212C
:10051000304601F016F907220321304601F011F9A7
:100520000320009000A902208DF8040000208DF81F
:10053000060001208DF8070002208DF805003046E6
:1005400000F046FF07220021304601F0FAF80722AA
:100550000121304601F0F5F801208DF804004FF438
:10056000805500208DF80600009501208DF80700C9
:1005700002208DF8050000A9DFF88497484600F0B6
:1005800027FF0420009001208DF8040000208DF842
:10059000060001208DF8070002208DF8050000A953
:1005A000DFF860A7504600F013FFB020009000A9CC
:1005B00001208DF8040000208DF8060001208DF840
:1005C000070002208DF80500304600F001FF4020B2
:1005D000009000A900208DF804008DF8060001208D
:1005E0008DF8070002208DF80500304600F0F0FE7F
:1005F0004FF44064009401208DF8040000A900200D
:100600008DF8060001208DF8070002208DF8050006
:10061000484600F0DDFE009401208DF8040000A99A
:1006200000208DF8060001208DF8070002208DF8CB
:100630000500404600F0CCFE4FF47040009000A949
:1006400002208DF8040000208DF8060001208DF8AE
:10065000070002208DF80500404600F0B9FE052293
:100660000C21404601F06DF805220D21404601F0B5
:1006700068F805220E21404601F063F805220F219B
:10068000404601F05EF80820009000A903208DF894
:10069000040000208DF80700484600F099FE4FF452
:1006A000F860009000208DF804008DF8060001200D
:1006B0008DF8070002208DF8050000A9DFF84846F4
:1006C000204600F085FE0120009000A900208DF852
:1006D00004008DF8060001208DF8070002208DF837
:1006E0000500404600F074FE0220009000A90120A1
:1006F0008DF8040000208DF8060001208DF8070019
:1007000002208DF80500404600F062FE10200090A7
:1007100000A901208DF8040000208DF806000120BA
:100720008DF8070002208DF80500484600F050FEC5
:100730002020009000A900208DF804008DF806000C
:1007400001208DF8070002208DF80500484600F0D2
:100750003FFE4020009000A902208DF804000020F8
:100760008DF8060001208DF8070003208DF80500A4
:10077000484600F02DFE03220621484600F0E1FF26
:100780008020009000A901208DF8040000208DF841
:10079000060001208DF8070002208DF8050048466C
:1007A00000F016FE4FF48070009000A901208DF833
:1007B000040000208DF8060001208DF807000220BB
:1007C0008DF80500304600F003FE4FF400760096E9
:1007D00001208DF8040000A900208DF806000120FA
:1007E0008DF8070002208DF80500484600F0F0FD66
:1007F0004FF40067009701208DF8040000208DF869
:10080000060001208DF8070002208DF8050000A9E0
:10081000DFF8F8B4584600F0DBFD4FF400400090DC
:1008200000A901208DF8040000208DF806000120A9
:100830008DF8070002208DF80500584600F0C8FD2D
:100840004FF44070009000A901208DF804000020B2
:100850008DF8060001208DF8070002208DF80500B4
:10086000404600F0B5FD4FF4E070009000A9012073
:100870008DF8040000208DF8060001208DF8070097
:1008800002208DF80500584600F0A2FD4FF480408C
:10089000009000A901208DF8040000208DF80600CA
:1008A00001208DF8070002208DF80500484600F071
:1008B0008FFD4FF40050009000A900208DF8040037
:1008C0008DF8060001208DF8070002208DF8050044
:1008D000484600F07DFD009701208DF8040000A936
:1008E00000208DF8060001208DF8070002208DF809
:1008F0000500204600F06CFD4CF20370009000A94A
:1009000002208DF8040000208DF8070002208DF8E9
:100910000500504600F05CFD0C220A21504600F014
:1009200010FF0C220921504600F00BFF0C22082179
:10093000504600F006FF0C220121504600F001FF56
:100940000C220021504600F0FCFE0C220F215046E4
:1009500000F0F7FE0C220E21504600F0F2FE4FF69A
:100960008070009000A9EA4F384600F031FD0C225B
:100970000F21384600F0E5FE0C220E21384600F02B
:10098000E0FE0C220D21384600F0DBFE0C220C218B
:10099000384600F0D6FE0C220B21384600F0D1FE7E
:1009A0000C220A21384600F0CCFE0C2209213846E0
:1009B00000F0C7FE0C220821384600F0C2FE0C22CF
:1009C0000721384600F0BDFE4FF23F00009000A91D
:1009D000204600F0FDFC0C220F21204600F0B1FE65
:1009E0000C220E21204600F0ACFE0C220D212046E8
:1009F00000F0A7FE0C221146204600F0A2FE0C22B9
:100A00000521204600F09DFE0C220421204600F026
:100A100098FE0C220321204600F093FE0C220221B6
:100A2000204600F08EFE0C220121204600F089FEB7
:100A30000C220021204600F084FE46F23F00009088
:100A400000A9584600F0C4FC0C220E21584600F0C4
:100A500078FE0C220D21584600F073FE0C22052171
:100A6000584600F06EFE0C220421584600F069FE44
:100A70000C220321584600F064FE0C220221584645
:100A800000F05FFE0C220121584600F05AFE0C22B5
:100A90000021584600F055FE4FF46050009000A928
:100AA000504600F095FC0C220D21504600F049FE06
:100AB0000C221146504600F044FE0C220B215046F9
:100AC00000F03FFE7C20009000A9384600F080FC3A
:100AD0000C220221384600F034FE0C220621384652
:100AE00000F02FFE0C220521384600F02AFE0C22D1
:100AF0000421384600F025FE0C220321384600F080
:100B000020FE7820009000A9504600F061FC0C22E5
:100B10000421504600F015FE0C220521504600F03D
:100B200010FE0C220621504600F00BFE0C22032181
:100B3000504600F006FE0320009000A9384600F061
:100B400047FC0C220021384600F0FBFD0C2201215D
:100B5000384600F0F6FD8020009000A9504600F0D5
:100B600037FC0C220721504600F0EBFD009600A94F
:100B7000584600F02DFC0C220921584600F0E1FDFA
:100B80004FF48060009000A9584600F021FC0C2230
:100B90000A21584600F0D5FD009500A9584600F0FE
:100BA00017FC0C221146584600F0CBFD00F003F86C
:100BB00003B0BDE8F08F30B583B004200090012071
:100BC0008DF8040000208DF8060001208DF8070044
:100BD00002208DF8050000A9494C204600F0F8FBE2
:100BE0004FF48070009000A901208DF804000020CF
:100BF0008DF8060001208DF8070002208DF8050011
:100C0000204600F0E5FB8020009001208DF80400D4
:100C100000208DF8060001208DF8070002208DF8D5
:100C2000050000A9354D284600F0D2FB4FF40040E6
:100C3000009000A901208DF8040000208DF8060026
:100C400001208DF8070002208DF80500204600F0F5
:100C5000BFFB0421204600F0E9FC4FF480712046E0
:100C600000F0E4FC4FF40041204600F0DFFC80215E
:100C7000284600F0DBFC03B030BD80B5FFF797FBE2
:100C8000BDE80140FFF7F0BB38B502211B4800F07A
:100C9000CDFC1B4C1021204600F0C8FC80212046D2
:100CA00000F0C4FC194D4FF40061284600F0BEFC72
:100CB0004FF40041284600F0B9FC4FF48051204623
:100CC00000F0B4FC04210F4800F0B0FC4FF40071B8
:100CD000204600F07FFC4FF48071074800F0A6FC2E
:100CE0000948BDE834404FF4006100F09FBC0000AB
:100CF0005805002038050020000002400004024092
:100D000000080240000C024000140240001802409B
:100D1000001002400A0D496E697469616C697A6558
:100D2000203A2031302025250A0D0000496E6974D3
:100D300069616C697A65203A2033302025250A0DD7
:100D400000000000496E697469616C697A65203A37
:100D50002036302025250A0D00000000496E6974F8
:100D600069616C697A65203A2039352025250A0D9C
:100D700000000000496E697469616C697A65203A07
:100D8000203130302025250A0D0A0D0000B5010064
:100D9000DFF8500183B001694FF400724FF6FF5342
:100DA00008D019404161009201218DF804108DF89E
:100DB000051005E019404161009200218DF80410F2
:100DC00000A900F005FB03B000BD70B5044608257E
:100DD000DFF81061E4B2E0094FF40071304602D050
:100DE00000F0F8FB01E000F021FC4FF48071304688
:100DF00000F0F0FB64004FF48071304600F016FC08
:100E00006D1EE7D14FF40071304600F00FFC4FF437
:100E10008071304600F0DEFB3046BDE870404FF494
:100E2000807100F003BC70B504460D462D4E4FF4A2
:100E30000071304600F0CEFB0120FFF7A7FF4FF412
:100E40000071304600F0C6FB4FF48071304600F070
:100E5000C1FB4FF40071304600F0E8FB4FF48071A5
:100E6000304600F0E3FBA020FFF7AFFF2004000EA8
:100E7000FFF7ABFFE0B25FE038B50446194D4FF421
:100E80000071284600F0A6FB0120FFF77FFF4FF41A
:100E90000071284600F09EFB4FF48071284600F058
:100EA00099FB4FF40071284600F0C0FB4FF48071AD
:100EB000284600F0BBFBD020FFF787FF0A20FFF792
:100EC00084FF2046FFF781FF4FF40071284600F0B1
:100ED000ADFB4FF48071284600F07CFB2846BDE84E
:100EE00034403BE00004024070B504460D46014E1C
:100EF00002E000BF000402404FF40071304600F0F1
:100F000069FB0120FFF742FF4FF40071304600F00B
:100F100061FB4FF48071304600F05CFB4FF40071D0
:100F2000304600F083FB4FF48071304600F07EFBCA
:100F3000D020FFF74AFF2046FFF747FF2846FFF77C
:100F400044FF4FF40071304600F070FB4FF48071A5
:100F5000304600F03FFB3046BDE870404FF4007172
:100F600000F038BB64280CDA0A2190FBF1F10A0189
:100F700050FA82F001EB8102A0EB4201C9B20820D5
:100F8000B2E7704701460D290DDA60B10A2091FBE6
:100F9000F0F0020151FA82F100EB8002A1EB420174
:100FA000C9B20720A0E77047014620290DDA60B1D9
:100FB0000A2091FBF0F0020151FA82F100EB80026D
:100FC000A1EB4201C9B206208EE7704718280CDA5F
:100FD0000A2190FBF1F10A0150FA82F001EB810243
:100FE000A0EB4201C9B204207EE770473C280CDA2E
:100FF0000A2190FBF1F10A0150FA82F001EB810223
:10100000A0EB4201C9B203206EE770473C280CDA1E
:101010000A2190FBF1F10A0150FA82F001EB810202
:10102000A0EB4201C9B202205EE7704703B581B070
:1010300002210020FFF758FF9DF80400FFF792FF00
:101040009DF80500FFF79EFF9DF80600FFF7ACFF37
:101050009DF80710082903DA11B10520FFF744FFB6
:101060009DF80800FFF7B2FF9DF80900FFF7BEFFEB
:101070009DF80A00FFF7CAFF00210020FFF734FFA8
:1010800003B05DF804EB002101202DE7F0B4284AFD
:10109000002300240A25B1FBF2F606F130071F54A5
:1010A00002FB16110A265B1CB2FBF6F21E1816F89C
:1010B000016C302E06BF002C0023641C6D1EEAD18B
:1010C000F0BC704738B504461A4D2021284600F080
:1010D00039FD10B1A8882070012032BD10B5154C23
:1010E0002021204600F02EFD0028F9D0A088C0B2B3
:1010F00010BD10B50F4C0146204600F0E4FC8021E5
:10110000204600F01FFD0028F9D010BD38B5044678
:10111000084D09E0284600F0D6FC8021284600F062
:1011200011FD0028F9D0641C21780029F2D131BDCD
:1011300000CA9A3B001001400348016811B10168E0
:10114000491E0160704700006005002082B0002148
:10115000019144F2682108E0009A521C0092009A22
:101160008A42F9D3019A521C0192019A824238BFF5
:101170000022F3D302B0704710B5040018BF012C51
:1011800005D040F209210FF2DC1000F0CDFDDFF8B0
:10119000A801046010BDDFF89C114A6802F00C023F
:1011A000042A02D0082A03D01CE0DFF890211BE0BB
:1011B0000A680B68C2F3805203F03F03002A14BF91
:1011C000DFF87821DFF87821B2FBF3F20B68C3F384
:1011D00088135A430B68C3F301435B1C5B00B2FBEB
:1011E000F3F201E0DFF8582102604B68DFF8542188
:1011F000D0F800C0C3F303139B5C2CFA03F34360E5
:101200004B68D0F804C0C3F382239B5C2CFA03F331
:10121000836049684368C1F34231895C23FA01F174
:10122000C160704738B50446DFF81C010D46044222
:1012300000D12CB94FF488610FF2281000F074FD32
:1012400065B1012D05D00FF21C1040F2424100F0B3
:101250006BFDDFF8F8000168214303E0DFF8EC00E4
:101260000168A143016031BD38B5044660080D46F0
:10127000400000D12CB940F27B410FF2E80000F0B1
:1012800053FD65B1012D05D00FF2D80040F27C412D
:1012900000F04AFDDFF8B8000168214303E0DFF801
:1012A000B0000168A143016031BD38B50446DFF8E4
:1012B000A4000D46044200D12CB940F2AD410FF21A
:1012C000A40000F031FD65B1012D05D00FF29400AE
:1012D00040F2AE4100F028FDDFF87C0001682143B8
:1012E00003E0DFF874000168A143016031BD38B547
:1012F0000446DFF868000D46044200D12CB940F2E4
:10130000D5410FF2600000F00FFD65B1012D05D051
:101310000FF2500040F2D64100F006FDDFF8400029
:101320000168214303E0DFF838000168A143016050
:1013300031BD0000043802404C00474240787D0136
:101340000024F4000000002000EE8B8130380240C1
:1013500038380240003601C940380240CCA0F8FFBE
:1013600044380240433A5C546F6F6C735C574C399D
:10137000465C574C3946204D6F6E69746F72202D54
:101380002053544D33325F494150202D53545F5503
:1013900070646174655C4C69627261726965735CEA
:1013A00053544D3332463478785F537464506572C9
:1013B0006970685F4472697665725C7372635C73AE
:1013C000746D3332663478785F7263632E63000025
:1013D0002DE9F84304460026DFF864040D468442F4
:1013E0001CBFDFF8600484421FD0DFF85C04844235
:1013F0001CBFDFF85804844217D0DFF8540484423D
:101400001CBFDFF8500484420FD0DFF84C04844244
:101410001FBFDFF848048442DFF84404844204D04C
:10142000BB210FF2404000F07FFC286820B90FF28A
:101430003440BC2100F078FC2879002818BF01282E
:1014400008D0022818BF032804D0BD210FF2144091
:1014500000F06AFCE87940B1012818BF022804D0E6
:101460000FF20040BE2100F05FFC012000FA06F8F8
:10147000286808EA0000404546D177000320B840BC
:101480006FEA0009206809EA0000206020682979D5
:10149000B940084320602879012818BF02282AD1C2
:1014A0006879002818BF012808D0022818BF03282F
:1014B00004D0D0210FF2AC3000F036FCA06809EA6D
:1014C0000000A060A0686979B9400843A060A879CD
:1014D000002818BF012804D0D7210FF2883000F06F
:1014E00023FC606820EA080060606068A979B14068
:1014F00089B208436060E06809EA0000E060E068E3
:10150000E979B9400843E060761C102EADD3BDE800
:10151000F18370B504460026DFF824030D468442AB
:101520001CBFDFF82003844220D0DFF81C03844274
:101530001CBFDFF81803844218D0DFF8140384427C
:101540001CBFDFF81003844210D0DFF80C03844284
:101550001FBFDFF808038442DFF80403844205D08C
:101560004FF498710FF2FC2000F0DEFB012D18BF44
:10157000022D29D0042D18BF082D25D0102D18BFFD
:10158000202D21D0402D18BF802D1DD0B5F5807F96
:1015900018BFB5F5007F17D0B5F5806F18BFB5F54A
:1015A000006F11D0B5F5805F18BFB5F5005F0BD0A7
:1015B000B5F5804F18BFB5F5004F05D00FF2A42048
:1015C00040F2311100F0B0FB2069284218BF01261B
:1015D000304670BD38B5044699480D4684421CBF5C
:1015E0009848844219D0984884421CBF9748844246
:1015F00013D0974884421CBF964884420DD0964829
:1016000084421FBF954884429548844205D040F2E9
:101610007F110FF2502000F087FB2DB90FF244200C
:101620004FF4C07100F080FB258331BD38B504460E
:1016300083480D4684421CBF8248844219D08248A8
:1016400084421CBF8148844213D0814884421CBF1D
:10165000804884420DD0804884421FBF7F48844226
:101660007F48844205D04FF4C9710FF2F81000F0A2
:101670005BFB2DB90FF2EC1040F2931100F054FB1C
:10168000658331BD70B504466D480D4616468442EB
:101690001CBF6C48844219D06B4884421CBF6B4805
:1016A000844213D06A4884421CBF6A4884420DD0E9
:1016B000694884421FBF694884426948844205D012
:1016C0004FF4D3710FF29C1000F02EFB012D18BFC8
:1016D000022D29D0042D18BF082D25D0102D18BF9C
:1016E000202D21D0402D18BF802D1DD0B5F5807F35
:1016F00018BFB5F5007F17D0B5F5806F18BFB5F5E9
:10170000006F11D0B5F5805F18BFB5F5005F0BD045
:10171000B5F5804F18BFB5F5004F05D00FF2441056
:1017200040F2A71100F000FB4EB1012E05D04FF49E
:10173000D4710FF2301000F0F7FA258370BD658385
:1017400070BD70B506463E480D46144686421CBF25
:101750003C48864219D03C4886421CBF3B488642E2
:1017600013D03B4886421CBF3A4886420DD03A48C7
:1017700086421FBF394886423948864205D040F22A
:1017800017210FF2E00000F0CFFA002D18BF012D55
:1017900021D0022D18BF032D1DD0042D18BF052DFB
:1017A00019D0062D18BF072D15D0082D18BF092DEB
:1017B00011D00A2D18BF0B2D0DD00C2D18BF0D2DDB
:1017C00009D00E2D18BF0F2D05D00FF298004FF441
:1017D000067100F0A9FA002C18BF092C1ED0012CAC
:1017E00018BF022C1AD0032C18BF042C16D0052CBD
:1017F00018BF062C12D0072C18BF082C0ED00A2CAC
:1018000018BF0B2C0AD00C2C1CBF0D2C0F2C05D094
:1018100040F219210FF24C0000F086FAE80806EBBE
:10182000800005F007018900026A0F238B409A436C
:10183000026204FA01F1026A1143016270BD000004
:10184000000002400004024000080240000C024078
:10185000001002400014024000180240001C024028
:1018600000200240433A5C546F6F6C735C574C39F4
:10187000465C574C3946204D6F6E69746F72202D4F
:101880002053544D33325F494150202D53545F55FE
:1018900070646174655C4C69627261726965735CE5
:1018A00053544D3332463478785F537464506572C4
:1018B0006970685F4472697665725C7372635C73A9
:1018C000746D3332663478785F6770696F2E6300A9
:1018D000F0B50446DFF84C72DFF8606285B00D4663
:1018E000BC421CBFDFF84002844213D0DFF83C0248
:1018F00084421CBFDFF8380284420BD0DFF8340288
:1019000084421CBFDFF83002844203D0EB21304612
:1019100000F00AFA286818B1DFF82412884203D3CD
:10192000EC21304600F000FAA888002818BFB0F576
:10193000805F03D0ED21304600F0F6F9E8880028FA
:1019400018BFB0F5805F09D0B0F5005F18BFB0F5E3
:10195000405F03D0EE21304600F0E6F928890028E8
:101960001CBFB0F5806FB0F5C06F03D0EF213046DB
:1019700000F0DAF968894FF6F371084200D118B91E
:10198000F021304600F0D0F9A889F8B1B0F5807F99
:101990001CBFB0F5007FB0F5407F05D0F121304687
:1019A00000F0C2F9A88988B1BC421CBFDFF87801F9
:1019B00084420BD0DFF8740184421CBFDFF8780149
:1019C000844203D0F621304600F0AEF9208A4CF66E
:1019D000FF710840E988084320824EF6F311A08980
:1019E0000840A98808432989084369890843A081D8
:1019F0004FF6FF41A08A0840A9890843A08200A8A9
:101A0000FFF7C9FBBC421BBFDFF82C0184420398DF
:101A10000298296819225043A28912044CBF490038
:101A20008900B0FBF1F16420B1FBF0F00001020984
:101A3000642303FB1211A289120406D5C9003231B6
:101A4000B1FBF3F101F0070105E009013231B1FB0F
:101A5000F3F101F00F010843208105B0F0BD38B566
:101A60000446DFF8C0000D4684421CBFDFF8B80012
:101A7000844215D0DFF8B40084421CBFDFF8B00008
:101A800084420DD0DFF8AC0084421CBFDFF8A80010
:101A9000844205D040F29B110FF2581000F044F937
:101AA0005DB1012D05D00FF24C104FF4CE7100F056
:101AB0003BF9A08940F4005003E0A0894DF6FF7186
:101AC0000840A08131BD38B50446DFF858000D4606
:101AD00084421CBFDFF85000844215D0DFF84C0070
:101AE00084421CBFDFF8480084420DD0DFF8440078
:101AF00084421CBFDFF84000844205D040F21D2123
:101B00000FF2F00000F010F9B5F5007F05DB0FF2E1
:101B1000E40040F21E2100F007F9E805C00DA080A6
:101B200031BD00000010014000440040004800406A
:101B3000004C00400050004000140140F41B00081D
:101B4000E1707200F8B504460026244F0D46BC42F1
:101B50001CBF2348844211D0224884421CBF224823
:101B600084420BD0214884421CBF2148844205D0C6
:101B700040F2FC410FF27C0000F0D6F8012D18BFB6
:101B8000802D24D0402D18BF202D20D0102D18BF1F
:101B9000B5F5807F1BD0B5F5007F07D0082D1CBFA1
:101BA000042D022D13D040F2FD410CE0BC421CBFBD
:101BB0000B4884420BD00B4884421CBF0C48844223
:101BC00005D040F202510FF22C0000F0ADF8208851
:101BD000284218BF01263046F2BD00000010014027
:101BE0000044004000480040004C004000500040CD
:101BF00000140140433A5C546F6F6C735C574C396E
:101C0000465C574C3946204D6F6E69746F72202DBB
:101C10002053544D33325F494150202D53545F556A
:101C200070646174655C4C69627261726965735C51
:101C300053544D3332463478785F53746450657230
:101C40006970685F4472697665725C7372635C7315
:101C5000746D3332663478785F75736172742E6395
:101C60000000000010B584B000F076F8FFF705F82A
:101C7000FFF70AF80020FFF7FFF800F0F8F9244C0E
:101C8000FF220621204600F013FA06224FF47C11B1
:101C9000204600F05AF9A178E078090441EA006092
:101CA000617840EA012021780843E0602179607979
:101CB00041EA002020814FF47C1000F025F9E06813
:101CC0001449884212D14FF4E130009000A900205D
:101CD0000190ADF80800ADF80C000C20ADF80A003A
:101CE000002000F013FA00F0DEFA10E00A480B4A78
:101CF00001681140B1F1005F09D14168084A1160E3
:101D0000084A1160006880F3088808468047FEE7AB
:101D100048050020D4C3B2A1004000080000FE2FF7
:101D2000300400202C040020FEE710B450F8041BFF
:101D300081B102681218001D50F8043BDC0744BF53
:101D4000A9F10104E31852F8044B43F8044B091FAE
:101D5000F9D1EBE710BC704780B500F0DBFEBDE8C1
:101D60000240F32000F0DCBF10B55B4800F066F8DD
:101D7000044600E00834592C07D20221204600F026
:101D8000D5FE0828F6D0012010BD002010BD2DE999
:101D9000F04104460E4615460027DFF8408103E077
:101DA0002068001D20607F1CAF423CBF206840457A
:101DB00011D23168206800F015FF082808D120688A
:101DC00056F8041B00688842EAD00220BDE8F08182
:101DD0000120BDE8F0810020BDE8F08110B53E484B
:101DE00000F02CF8C40800F098FF40F6FF71E040C6
:101DF000E140884201D1012010BD002010BD00B596
:101E000083B00820019002200090334800F016F8BB
:101E1000019001200199C9088840C0F580500090C8
:101E200000F011FF0021009800F019FF00F06FFF93
:101E3000082814BF0220012003B000BD0021A0F13A
:101E40000062B2F5804F45D325490918B1F5804F9E
:101E500038BF08213ED323490918B1F5804F38BF58
:101E6000102137D320490918B1F5804F38BF182108
:101E700030D31E490918B1F5803F38BF202129D33E
:101E80001B490918B1F5003F38BF282122D3194951
:101E90000918B1F5003F38BF30211BD31649091886
:101EA000B1F5003F38BF382114D314490918B1F5F2
:101EB000003F38BF40210DD311490918B1F5003F4B
:101EC00038BF482106D30F490818B0F5003F34BF8A
:101ED000502158210846704700400008FCFF0F08B9
:101EE00000C0FFF70080FFF70040FFF70000FFF79A
:101EF0000000FEF70000FCF70000FAF70000F8F71A
:101F00000000F6F70000F4F738B5044600F08EF84C
:101F1000DFF89451002210212846FFF7B3FBD820A8
:101F200000F05AF82002000E00F056F82004000ECF
:101F300000F052F8E0B200F04FF8012210212846DC
:101F4000FFF7A0FBBDE831407BE02DE9F843804678
:101F50000F461646DFF85091002210214846FFF741
:101F600091FB032000F038F83802000E00F034F83E
:101F70003804000E00F030F8F8B200F02DF83EB34F
:101F8000012700240025761E002220214846FFF765
:101F900079FBC5F1070007FA00F010F0A50014BFA7
:101FA0000122002280214846FFF76CFB01222021FC
:101FB0004846FFF767FB40214846FFF7AAFA6D1C29
:101FC00040EA4404082DDFDB08F8014B002ED8D18D
:101FD0004846BDE8F84346E02DE9F04104460025B7
:101FE00000260127DFF8C080002220214046FFF7AD
:101FF00049FBC6F1070007FA00F0044214BF0122B2
:10200000002280214046FFF73DFB0122202140466F
:10201000FFF738FB40214046FFF77BFA761C40EA89
:102020004505082EE0DBE8B2BDE8F08110B51E4C96
:10203000002210212046FFF725FB0620FFF7CCFFEA
:102040000EE010B5184C002210212046FFF71AFBB5
:102050000520FFF7C1FFA520FFF7BEFFC007FAD498
:102060002046BDE8104001221021FFF70BBB10B540
:102070000D4C002210212046FFF704FB0122102105
:102080002046FFF7FFFA094C01224FF40061204679
:10209000FFF7F8FA2046BDE8104001224FF48061B6
:1020A000FFF7F0BA00000000000002400008024004
:1020B00062F30F2262F31F4200B500BF1300964681
:1020C0009446103928BFA0E80C50FAD85FEA417C4A
:1020D00028BF0CC048BF40F8042BC90728BF20F810
:1020E000022B48BF00F8012B00BD50F8041B61B162
:1020F00050F8042BD30744BFA9F101039A18002319
:1021000042F8043B091FFAD1EFE77047F0B50646E5
:102110000FF2BC000FF2BC0283B0354650F8250028
:1021200052F825200C4601211043FFF77BF81EB919
:1021300001211020FFF7B9F80FF2AC00DFF88C6036
:1021400030F815200FF2980030F8151006EB8507CF
:10215000D2B27868FFF7F5FA0FF2900030F8152048
:102160000FF2800030F81510B868D2B2FFF7E9FA24
:1021700000208DF8060000A901208DF8070002203C
:102180008DF804000FF2500030F815000090022086
:102190008DF805007868FFF71BF902208DF8040020
:1021A00000A90FF2380030F815000090B868FFF76A
:1021B0000FF956F825002146FFF78AFB56F825004F
:1021C0000121FFF74CFC03B0F0BD0000200000200F
:1021D00001000000010000000002000000040000F7
:1021E000090000000A0000000700000007000000CE
:1021F00030B583B000A80FF218210A2200F028FEA3
:102200000FF21820FEF782FF00F0E3FF0446012CD6
:1022100032DB0FF24420FEF779FF0FF26420FEF765
:1022200075FF794D05F10C00FEF770FF214600A8FF
:10223000FEF72CFF0FF28020FEF768FF00A8FEF7E4
:1022400065FF0FF28820FEF761FF0FF28C20FEF78A
:102250005DFF0FF2A820FEF759FF0FF2A820FEF74E
:1022600055FF6A48416869602960006880F3088802
:102270000846804703B030BD14F1010F08BF0FF2CC
:10228000A8200CD014F1020F08BF0FF2DC2006D0FA
:1022900014F1030F0CBF0FF2EC200FF20030FEF729
:1022A00035FF03B030BD38B50FF290342046FEF74D
:1022B0002DFF0FF2C8352846FEF728FF0FF2FC303D
:1022C000FEF724FF2846FEF721FF0FF23040FEF70D
:1022D0001DFF2846FEF71AFF0FF26040FEF716FFBB
:1022E0000FF29840FEF712FF0FF2D040FEF70EFFFC
:1022F0002846FEF70BFF0FF20450FEF707FF2046BB
:10230000FEF704FF3FA0FEF701FF3F4CFFF766FD1D
:10231000401E8041C00FA06001E0FFF769FFFFF79A
:1023200067FF0FF21850FEF7F1FEA06818B10FF228
:102330004C50FEF7EBFE0FF28450FEF7E7FE0FF273
:10234000BC50FEF7E3FE0FF2F450FEF7DFFE0FF293
:102350002C60FEF7DBFE0FF26460FEF7D7FEFEF79F
:10236000BDFE3128D9D0322817D10FF25020FEF708
:10237000CDFEFEF7B3FE4328D1D14FF47C220FF2FD
:102380005821224800F01FFE00280CBF0FF28C20BD
:102390000FF25C20FEF7BAFEC1E7332809D11B48D3
:1023A000416861602160006880F3088808468047C2
:1023B000B5E7342808D10FF24460FEF7A7FEFDF719
:1023C000FCFE0FF25C60E5E7302804BFA06801283E
:1023D0000FD1FFF714FD012802D0022806D09EE796
:1023E0000FF26060FEF792FE002094E70FF2746037
:1023F000D0E7A068002814BF0FF2D4600FF29060FD
:10240000C8E700000D0A00002C040020004000086E
:1024100020202020202020202020000057616974E7
:10242000696E6720666F72207468652066696C65E6
:1024300020746F2062652073656E74202E2E2E200E
:102440002870726573732027612720746F20616282
:102450006F7274290A0D00000A0A0D2050726F670E
:1024600072616D6D696E6720436F6D706C65746528
:1024700064205375636365737366756C6C792100B2
:102480000A0D2D2D2D2D2D2D2D2D2D2D2D2D2D2DBF
:102490002D2D2D2D2D2D2D2D2D2D2D2D2D2D2D2D6C
:1024A0002D2D0D0A2053656E642046696C65204E03
:1024B000616D653A200000000A0D2053656E6420AE
:1024C00046696C652053697A653A20002042797428
:1024D00065730D0A000000002D2D2D2D2D2D2D2DA5
:1024E0002D2D2D2D2D2D2D2D2D2D2D2D2D2D2D2D1C
:1024F0002D2D2D2D2D2D2D2D0A0000000D0A0D0A3C
:10250000000000004170706C69636174696F6E2037
:1025100050726F6772616D2052756E6E696E672EB4
:102520002E2E2E2E0D0A00000A0A0D546865206911
:102530006D6167652073697A6520697320686967D2
:10254000686572207468616E2074686520616C6CC7
:102550006F776564207370616365206D656D6F7260
:1025600079210A0D000000000A0A0D56657269669D
:1025700069636174696F6E206661696C6564210AC4
:102580000D0000000D0A0A41626F727465642062DA
:102590007920757365722E0A0D0000000A0D4661E0
:1025A000696C656420746F20726563656976652067
:1025B0007468652066696C65210A0D000A0A0D536E
:1025C000656C65637420526563656976652046694C
:1025D0006C650A0D0000000055706C6F61646564E5
:1025E000466C617368496D6167652E62696E0000B3
:1025F0000A0D4572726F72204F6363757272656463
:10260000207768696C65205472616E736D697474AB
:10261000696E672046696C650A0D00000A0D4669FF
:102620006C652075706C6F6164656420737563639D
:1026300065737366756C6C79200A0D000D0A3D3D5B
:102640003D3D3D3D3D3D3D3D3D3D3D3D3D3D3D3DBA
:102650003D3D3D3D3D3D3D3D3D3D3D3D3D3D3D3DAA
:102660003D3D3D3D3D3D3D3D3D3D3D3D3D3D3D3D9A
:102670003D3D3D3D3D3D3D3D000000000D0A3D20FE
:10268000202020202020202020202020202020204A
:10269000202020202020202020202020202020203A
:1026A000202020202020202020202020202020202A
:1026B000202020202020203D000000000D0A3D2089
:1026C0002020202020202020202020205461654828
:1026D00061204D6563686174726F6E696373204336
:1026E0006F2E2C204C74642E2020202020202020AF
:1026F000202020202020203D000000000D0A3D2049
:10270000496E2D4170706C69636174696F6E205001
:10271000726F6772616D6D696E67204170706C6970
:10272000636174696F6E20202020202020202020EB
:10273000202020202020203D000000000D0A3D2008
:1027400050726F6A6563742020202020203A205741
:102750004C394620446973706C617920284D6F6E46
:1027600069746F72202620436C757374657229201A
:10277000202020202020203D000000000D0A3D20C8
:10278000456E7669726F6E6D656E7420203A2045D5
:102790005741524D2076362E352C204C696272619D
:1027A00072792076312E302E3020202020202020DB
:1027B000202020202020203D000000000D0A3D2088
:1027C00020202020202020202020202020202053D6
:1027D000544D333246347878205374616E6461729C
:1027E00064205065726970686572616C73204C6911
:1027F000627261727920203D000000000D0A3D20C8
:10280000427920454353204469762E206B757465C8
:102810006C66202020202020202020202020202026
:1028200020202020202020202020202020202020A8
:10283000202020202020203D000000000D0A3D3DEA
:102840003D3D3D3D3D3D3D3D3D3D3D3D3D3D3D3DB8
:102850003D3D204D61696E204D656E75203D3D3DCD
:102860003D3D3D3D3D3D3D3D3D3D3D3D3D3D3D3D98
:102870003D3D3D3D3D3D3D3D0D0A0A002020446962
:102880007361626C65207468652077726974652075
:1028900070726F74656374696F6E202853544D3382
:1028A000324634303720496E7465726E616C204652
:1028B0006C6173682920300D0A0A00002020446FE3
:1028C000776E6C6F6164204170706C6963617469CC
:1028D0006F6E20746F207468652053544D333246F8
:1028E00034303720496E7465726E616C20466C61BD
:1028F0007368202D2D20310D0A0A0000202055700C
:102900006C6F61642020204170706C696361746930
:102910006F6E2066726F6D20202053544D33324607
:1029200034303720496E7465726E616C20466C617C
:102930007368202D2D20320D0A0A000020204578D2
:10294000656375746520546865204E657720507204
:102950006F6772616D202D2D2D2D2D2D2D2D2D2D7F
:102960002D2D2D2D2D2D2D2D2D2D2D2D2D2D2D2D97
:102970002D2D2D2D2D20330D0A0A00002020454538
:1029800050524F4D20496E697469616C697A617467
:10299000696F6E202D2D2D2D2D2D2D2D2D2D2D2DB5
:1029A0002D2D2D2D2D2D2D2D2D2D2D2D2D2D2D2D57
:1029B0002D2D2D2D2D20340D0A0A00003D3D3D3DCD
:1029C0003D3D3D3D3D3D3D3D3D3D3D3D3D3D3D3D37
:1029D0003D3D3D3D3D3D3D3D3D3D3D3D3D3D3D3D27
:1029E0003D3D3D3D3D3D3D3D3D3D3D3D3D3D3D3D17
:1029F0003D3D3D3D3D3D0D0A0A000000454550521C
:102A00004F4D20496E697469616C697A6528436C21
:102A1000656172292053746172742E2E2E0A0D0086
:102A2000454550524F4D20496E697469616C697A11
:102A30006528436C6561722920456E642E2E2E0A2E
:102A40000D00000057726974652050726F746563E1
:102A500074696F6E2064697361626C65642E2E2EDA
:102A60000D0A00004572726F723A20466C617368FD
:102A700020777269746520756E70726F7465637407
:102A8000696F6E206661696C65642E2E2E0D0A00DA
:102A9000496E76616C6964204E756D6265722021A5
:102AA000203D3D3E20546865206E756D6265722044
:102AB00073686F756C6420626520656974686572FF
:102AC00020312C20322C2033206F7220340D000056
:102AD000496E76616C6964204E756D626572202165
:102AE000203D3D3E20546865206E756D6265722004
:102AF00073686F756C6420626520656974686572BF
:102B000020302C20312C20322C2033206F722034A6
:102B10000D000000DFF89C02C168002905D5DFF830
:102B200098120160DFF894120160704770B5044696
:102B300000260D46002C18BF082C19D0102C18BFE9
:102B4000182C15D0202C18BF282C11D0302C18BFD1
:102B5000382C0DD0402C18BF482C09D0502C18BF51
:102B6000582C05D040F25B110FF27420FFF7DCF80F
:102B70006DB1012D30D0022D31D0032D05D00FF2D3
:102B800060204FF4AE71FFF7CFF84FF4407600F0BD
:102B9000D6F808281FD1DFF82852286820F44070A2
:102BA000286044F00201286830432860286820F03B
:102BB000F8002860286808432860286840F48030BE
:102BC000286000F0BCF8296821F00201296029681A
:102BD00021F0F801296070BD4FF48076D7E74FF4FB
:102BE0000076D4E770B504460D46A4F10060DFF826
:102BF000D411884221BF04F1604000F5084040F242
:102C00000F21884205D34FF4FB710FF2D410FFF768
:102C10008BF800F094F8082814D1DFF8A46130682C
:102C200020F440703060306840F4007030603068EC
:102C300040F001003060256000F081F831684908FB
:102C40004900316070BDDFF88401C168C90705D54E
:102C5000DFF87C110160DFF87C110160704738B546
:102C60000446200B0D46000300D12CB940F2B621DA
:102C70000FF26C10FFF758F8002D18BF012D05D08A
:102C80000FF25C1040F2B721FFF74EF808208DF8E4
:102C900000000821DFF830010268D20348BF01219B
:102CA00013D40268D20648BF05210ED4026812F080
:102CB000EF0F18BF062108D10268920705D507213A
:102CC00003E00268920748BF07218DF800109DF8C5
:102CD0000010012910D102680821D20348BF012148
:102CE000F3D40268D20648BF0521EED4026812F080
:102CF000EF0FE6D00621E8E79DF80010082905D17E
:102D00004189002D14BFA1432143418131BD324887
:102D1000017841F00201017011E0304800887047ED
:102D200010B5044634F0F30000D12CB940F2C7319D
:102D30000FF2AC00FEF7F8FF2348046010BD81B02D
:102D400008208DF8000008211F480268D20348BF00
:102D5000012113D40268D20648BF05210ED40268AF
:102D600012F0EF0F18BF062108D10268920705D5AF
:102D7000072103E00268920748BF07218DF8001081
:102D80009DF80010012910D102680821D20348BF24
:102D90000121F3D40268D20648BF0521EED40268AF
:102DA00012F0EF0FE6D00621E8E79DF8000001B031
:102DB00070470000043C024023016745AB89EFCD1A
:102DC000103C0240FFFF0F000C3C0240083C024058
:102DD0003B2A19087F6E5D4C143C0240163C0240B1
:102DE000433A5C546F6F6C735C574C39465C574C7C
:102DF0003946204D6F6E69746F72202D2053544DEB
:102E000033325F494150202D53545F5570646174D3
:102E1000655C4C69627261726965735C53544D33D1
:102E200032463478785F5374645065726970685FB5
:102E30004472697665725C7372635C73746D33326D
:102E4000663478785F666C6173682E6300000000FA
:102E5000103A07D330B4B1E83810103AA0E838106F
:102E6000F9D230BC530724BFB1E80810A0E808101D
:102E700044BF51F8043B40F8043BD20724BF31F86B
:102E8000022B20F8022B44BF0B7803707047083ADE
:102E900007D3B1E80810083A40F8043B40F804CBE7
:102EA000F7D25307E4E7000030B5044683B00120B1
:102EB0002070002500206070FF20A07004F2030045
:102EC00005E011F8013B00F8013B6D1CADB20B7839
:102ED0000BB1FF2DF5DD28190021C17000A8116884
:102EE000FEF7D4F8281D80B200A904E011F8012BE8
:102EF0000255401C80B20A78002AF7D1832804DAF0
:102F0000C0F18301001900F095F903B030BD78B429
:102F10000C46B3F5806F04D34FF480631946022545
:102F200005E08021802B2CBF80239BB201252570DA
:102F30006270D243A270DA1C042A08DB04F2030296
:102F40001D4610F8016B02F8016B6D1EF9D1994214
:102F50000ADBDB1C9BB2CA1CD11A934204DA181993
:102F600078BC1A2200F06AB971BC704741F48071D4
:102F700041F2210240004900CB0548BF401CC30379
:102F800048BF5040CB03F5D580B2704738B50446F2
:102F900000200D1903E014F8011BFFF7E7FFAC4216
:102FA000F9D30021FFF7E2FFBDE834400021DDE75F
:102FB00038B504460D0005D014F8010BFEF799F85A
:102FC0006D1EF9D131BD2DE9F44FADF5A26D064668
:102FD0000025002001AA11F8013B02F8013BC01CAA
:102FE00011F8013B02F8013BFF2811F8013B02F800
:102FF000013BF0D10DF5A26201A941A8FFF754FFF2
:1030000042F21078832141A8FFF7D2FF41A8802126
:10301000C01CFFF7BBFF0746000AFEF76AF8F8B2CC
:10302000FEF767F8474600A8FEF74CF87F1E012818
:1030300007D0002FF7D16D1C0A2DE3D30A2D05D33D
:10304000C0E09DF800000628F6D1F7E7DDF810751E
:103050000124002F4FD03B46E2B241A93046FFF792
:1030600056FF00208DF800000025B7F5806F2CBFBB
:103070004FF480694FF0800909F103000DF5827A61
:103080001FFA80FB1AF8010BFEF733F8BBF1010BB6
:10309000F8D141A84946C01CFFF778FF8246000AD4
:1030A000FEF727F85FFA8AF0FEF723F8DFF874A13D
:1030B00000A8FEF707F8AAF1010A012808D0BAF122
:1030C000000FF5D16D1C0A2DCFD30A2DC1D379E0A5
:1030D0009DF800000628F5D14E44B94509D2A0B2AA
:1030E000A7EB0907B0F57C7F18BF441CEDD1FF208A
:1030F0006BE00027E9E700208DF8000000250420A0
:10310000FDF7F7FF464600A8FDF7DCFF761E012815
:1031100002D0002EF7D103E09DF80000062802D06F
:103120006D1C0A2DEBD30A2D4CD201208DF8040121
:103130000026FF208DF80601002541A88DF80060CB
:103140008DF805518021C01C00F074F8832141A83E
:10315000FFF72EFF41A88021C01CFFF717FF07468D
:10316000000AFDF7C6FFF8B2FDF7C3FF474600A807
:10317000FDF7A8FF7F1E012807D0002FF7D16D1C97
:103180000A2DE3D30A2D06D31CE09DF80000062883
:10319000F6D10126F6E70420FDF7ABFF474600A86D
:1031A000FDF790FF7F1E012802D0002FF7D103E02A
:1031B0009DF80000062803D06D1C0EB90A2DEAD335
:1031C0000A2D01D3E8B200E000200DF2145DBDE845
:1031D000F08FF0B583B01248FEF7C6FD124D134EC6
:1031E000134F002413E0A00200F5803070604FF40C
:1031F000806271682846FEF7A8FE35604FF4807241
:10320000294606F10C00FEF7C2FDB060641C398847
:10321000E4B2491C8C42E6DB012003B0F0BD0000A3
:1032200000400008A08601002C00002010000020B3
:1032300050050020002200F005B8000062F30F22C4
:1032400062F31F42401810F0030308D0C91A1FD3BD
:10325000DB0748BF00F8012D28BF20F8022D13001E
:1032600030B414461546103928BF20E93C00FAD87E
:10327000490728BF20E90C0048BF40F8042D890009
:1032800028BF20F8022D48BF00F8012D30BC704740
:10329000C91818BF00F8012DCB0728BF00F8012D71
:1032A000704700003348344A82B0016841F470012D
:1032B00001603248016841F0010101600021816034
:1032C0000168114001602E494160016821F48021AC
:1032D00001600021C16001910091016841F48031D9
:1032E0000160016801F4003100910199491C0191CC
:1032F000009919B90199B1F5A06FF2D10168490C93
:1033000001F001010091009901292CD1016C41F0DB
:10331000805101641B490A6842F480420A60816856
:103320008160816841F400418160816841F4A0516D
:10333000816015494160016841F080710160016858
:103340008901FCD540F2056210490A60816889084C
:1033500089008160816841F002018160816801F02B
:103360000C010829FAD14FF000610948016002B050
:103370007047000088ED00E0FFFFF6FE00380240D5
:10338000103000240070004019544007003C0240F7
:1033900008ED00E010B5074979441831064C7C442B
:1033A000163404E00A68081D511888470146A142F6
:1033B000F8D110BD08000000280000002FEDFFFF2D
:1033C000380500002C000020000000005FE9FFFF2E
:1033D0002C0000000402000000000020000000009B
:1033E0004EF68851CEF20001086840F47000086083
:1033F0004FF00070E1EE100A7047000000F009F88D
:10340000002801D0FFF7C6FF0020FEF72BFC00F0DC
:1034100002F80120704700F001B800000746384666
:1034200000F002F8FBE7000080B5C046C046024A43
:1034300011001820ABBEFBE7260002007047FEE734
:10344000FEE7FEE7FEE7704770477047FDF774BE82
:103450000148804701480047A53200086134000850
:10346000C046C046FFF7BCFFFFF7C8FFFFF7E6BF47
:10347000FFF7E5BFFFF7E4BFFFF7E3BFFFF7E2BFEA
:10348000FFF7E1BFFFF7E0BFFFF7DFBFFFF7DEBFEA
:10349000FFF7FEBFFFF7FEBFFFF7FEBFFFF7FEBF60
:1034A000FFF7FEBFFFF7FEBFFFF7FEBFFFF7FEBF50
:1034B000FFF7FEBFFFF7FEBFFFF7FEBFFFF7FEBF40
:1034C000FFF7FEBFFFF7FEBFFFF7FEBFFFF7FEBF30
:1034D000FFF7FEBFFFF7FEBFFFF7FEBFFFF7FEBF20
:1034E000FFF7FEBFFFF7FEBFFFF7FEBFFFF7FEBF10
:1034F000FFF7FEBFFFF7FEBFFFF7FEBFFFF7FEBF00
:10350000FFF7FEBFFFF7FEBFFFF7FEBFFFF7FEBFEF
:10351000FFF7FEBFFFF7FEBFFFF7FEBFFFF7FEBFDF
:10352000FFF7FEBFFFF7FEBFFFF7FEBFFFF7FEBFCF
:10353000FFF7FEBFFFF7FEBFFFF7FEBFFFF7FEBFBF
:10354000FFF7FEBFFFF7FEBFFFF7FEBFFFF7FEBFAF
:10355000FFF7FEBFFFF7FEBFFFF7FEBFFFF7FEBF9F
:10356000FFF7FEBFFFF7FEBFFFF7FEBFFFF7FEBF8F
:10357000FFF7FEBFFFF7FEBFFFF7FEBFFFF7FEBF7F
:10358000FFF7FEBFFFF7FEBFFFF7FEBFFFF7FEBF6F
:10359000FFF7FEBFFFF7FEBFFFF7FEBFFFF7FEBF5F
:1035A000FFF7FEBFFFF7FEBFFFF7FEBFFFF7FEBF4F
:1035B000FFF7FEBFFFF7FEBFFFF7FEBFFFF7FEBF3F
:1035C000FFF7FEBFFFF7FEBFFFF7FEBFFFF7FEBF2F
:1035D000FFF7FEBFFFF7FEBF00000000010203047B
:1035E00001020304060708090000000000000000B3
:1035F00000000000004000080010014000000240F0
:043600000000024084
:04000005080034615A
:00000001FF
