:020000040800F2
:10000000380D002085260008712600087326000898
:1000100075260008772600087926000800000000F1
:100020000000000000000000000000007B26000827
:100030007D260008000000007F26000881260008B9
:10004000C5260008C9260008CD260008D1260008CC
:10005000D5260008D9260008DD260008E12600087C
:10006000E5260008E9260008ED260008F12600082C
:10007000F5260008F9260008FD26000801270008DB
:1000800005270008092700080D2700081127000888
:1000900015270008192700081D2700082127000838
:1000A00025270008292700082D27000831270008E8
:1000B00035270008392700083D2700084127000898
:1000C00045270008492700084D2700085127000848
:1000D00055270008592700085D27000861270008F8
:1000E00065270008692700086D27000871270008A8
:1000F00075270008792700087D2700088127000858
:1001000085270008892700088D2700089127000807
:1001100095270008992700089D270008A1270008B7
:10012000A5270008A9270008AD270008B127000867
:10013000B5270008B9270008BD270008C127000817
:10014000C5270008C9270008CD270008D1270008C7
:10015000D5270008D9270008DD270008E127000877
:10016000E5270008E9270008ED270008F127000827
:10017000F5270008F9270008FD27000801280008D6
:10018000052800080928000830B583B000A80FF240
:10019000B4110A2200F0BCFB0FF2B41000F095FC81
:1001A000654C204600F0A8FC0546012D19DB0FF236
:1001B000DC1000F08AFC04F5806000F086FC294623
:1001C00000A800F0E7FB0FF2182000F07EFC00A86A
:1001D00000F07BFC0FF2142000F077FC0FF21820E7
:1001E00012E015F1010F08BF0FF224200CD015F119
:1001F000020F08BF0FF2582006D015F1030F0CBFF5
:100200000FF268200FF27C2000F05FFC03B030BDDD
:1002100080B50FF2902000F058FC00F03EFC43281F
:1002200010D10FF29C2145484FF47C2200F0E4FDF0
:10023000002814BF0FF2A0200FF2C820BDE8024032
:1002400000F043BC01BD38B50FF2D824204600F0C1
:100250003CFC0FF21C3000F038FC0FF260352846F1
:1002600000F033FC0FF2A03000F02FFC284600F025
:100270002CFC0FF2E03000F028FC204600F025FCBA
:100280000FF21C4000F021FC2D4C00F011FF401E2D
:100290008041C00FA06001E0FFF776FF0FF2084039
:1002A00000F013FC0FF2404000F00FFC0FF278401A
:1002B00000F00BFC0FF2B04000F007FCA06818B192
:1002C0000FF2E44000F001FC0FF21C5000F0FDFBC7
:1002D00000F0E3FB3128DFD0322802D1FFF798FF8E
:1002E000DCE7332809D11548416861602160006866
:1002F00080F3088808468047D0E7342804BFA06808
:10030000012811D100F0E5FE012802D0022806D014
:10031000C4E70FF2145000F0D8FB0020BAE70FF248
:10032000285000F0D2FBB9E7A068002814BF0FF2F4
:1003300080500FF24050F4E72800002000400008F1
:100340002805002020202020202020202020000020
:1003500057616974696E6720666F722074686520E2
:1003600066696C6520746F2062652073656E742009
:100370002E2E2E202870726573732027612720741B
:100380006F2061626F7274290A0D00000A0A0D2045
:1003900050726F6772616D6D696E6720436F6D702B
:1003A0006C65746564205375636365737366756CFF
:1003B0006C79210A0D2D2D2D2D2D2D2D2D2D2D2D31
:1003C0002D2D2D2D2D2D2D2D2D2D2D2D2D2D2D2D5D
:1003D0002D2D2D2D2D0D0A204E616D653A2000002A
:1003E0000A0D2053697A653A200000002042797492
:1003F00065730D0A000000002D2D2D2D2D2D2D2DA6
:100400002D2D2D2D2D2D2D2D2D2D2D0A00000000F3
:100410000A0A0D54686520696D6167652073697A01
:100420006520697320686967686572207468616E09
:100430002074686520616C6C6F77656420737061EF
:100440006365206D656D6F7279210A0D00000000F3
:100450000A0A0D566572696669636174696F6E2078
:100460006661696C6564210A0D0000000D0A0A418D
:10047000626F7274656420627920757365722E0AEA
:100480000D0000000A0D4661696C656420746F20E0
:1004900072656365697665207468652066696C6558
:1004A000210A0D000A0A0D53656C656374205265BC
:1004B00063656976652046696C650A0D0000000079
:1004C00055706C6F61646564466C617368496D61F9
:1004D00067652E62696E00000A0D4572726F7220A8
:1004E0004F63637572726564207768696C65205428
:1004F00072616E736D697474696E672046696C65AC
:100500000A0D00000A0D46696C652075706C6F61FC
:10051000646564207375636365737366756C6C7969
:10052000200A0D000D0A3D3D3D3D3D3D3D3D3D3D1B
:100530003D3D3D3D3D3D3D3D3D3D3D3D3D3D3D3DEB
:100540003D3D3D3D3D3D3D3D3D3D3D3D3D3D3D3DDB
:100550003D3D3D3D3D3D3D3D3D3D3D3D3D3D3D3DCB
:100560003D3D3D3D3D3D3D3D3D3D3D3D00000000AF
:100570000D0A3D2020202020202020202020202087
:100580002028432920434F5059524947485420328C
:100590003031312053544D6963726F656C656374FB
:1005A000726F6E696373202020202020202020207D
:1005B000202020202020203D000000000D0A3D20AA
:1005C000202020202020202020202020202020202B
:1005D000202020202020202020202020202020201B
:1005E000202020202020202020202020202020200B
:1005F00020202020202020202020202020202020FB
:100600002020203D000000000D0A3D202053544DC5
:1006100033324634787820496E2D4170706C6963AE
:100620006174696F6E2050726F6772616D6D696E73
:1006300067204170706C69636174696F6E20202857
:1006400056657273696F6E20312E302E3029203D31
:10065000000000000D0A3D20202020202020202026
:10066000202020202020202020202020202020208A
:10067000202020202020202020204279204D43448B
:10068000204170706C69636174696F6E205465619C
:100690006D202020202020202020203D0000000070
:1006A0000D0A0D0A000000000D0A3D3D3D3D3D3D97
:1006B0003D3D3D3D3D3D3D3D3D3D3D3D204D616927
:1006C0006E204D656E75203D3D3D3D3D3D3D3D3DC2
:1006D0003D3D3D3D3D3D3D3D3D3D3D3D3D3D3D3D4A
:1006E0003D3D3D0D0A0A00002020446F776E6C6F7F
:1006F000616420496D61676520546F2074686520CE
:1007000053544D33324634787820496E7465726E96
:10071000616C20466C617368202D2D2D2D2D2D2DA3
:1007200020310D0A0A000000202055706C6F6164B2
:1007300020496D6167652046726F6D207468652081
:1007400053544D33324634787820496E7465726E56
:10075000616C20466C617368202D2D2D2D2D2D2D63
:1007600020320D0A0A000000202045786563757468
:100770006520546865204E65772050726F677261FE
:100780006D202D2D2D2D2D2D2D2D2D2D2D2D2D2D66
:100790002D2D2D2D2D2D2D2D2D2D2D2D2D2D2D2D89
:1007A00020330D0A0A000000202044697361626C46
:1007B00065207468652077726974652070726F7443
:1007C000656374696F6E202D2D2D2D2D2D2D2D2DF2
:1007D0002D2D2D2D2D2D2D2D2D2D2D2D2D2D2D2D49
:1007E00020340D0A0A0000003D3D3D3D3D3D3D3DAC
:1007F0003D3D3D3D3D3D3D3D3D3D3D3D3D3D3D3D29
:100800003D3D3D3D3D3D3D3D3D3D3D3D3D3D3D3D18
:100810003D3D3D3D3D3D3D3D3D3D3D3D3D3D3D3D08
:100820003D3D0D0A0A000000577269746520507240
:100830006F74656374696F6E2064697361626C655F
:10084000642E2E2E0D0A00004572726F723A2046F9
:100850006C61736820777269746520756E70726F51
:1008600074656374696F6E206661696C65642E2EB1
:100870002E0D0A00496E76616C6964204E756D62BA
:1008800065722021203D3D3E20546865206E756DC7
:100890006265722073686F756C642062652065699B
:1008A0007468657220312C2032206F7220330D0065
:1008B000496E76616C6964204E756D6265722021A7
:1008C000203D3D3E20546865206E756D6265722046
:1008D00073686F756C642062652065697468657201
:1008E00020312C20322C2033206F7220340D000058
:1008F00062B38B0708D0521E11F8013B00F8013B90
:1009000000F024808B07F6D1830740F0208000BFE1
:10091000103A07D330B4B1E83810103AA0E83810D4
:10092000F9D230BC530724BFB1E80810A0E8081082
:1009300044BF51F8043B40F8043BD20724BF31F8D0
:10094000022B20F8022B44BF0B7803707047083A43
:1009500007D3B1E80810083A40F8043B40F804CB4C
:10096000F7D25307E4E710B450F8041B81B10268D2
:100970001218001D50F8043BDC0744BFA9F1010424
:10098000E31852F8044B43F8044B091FF9D1EBE785
:1009900010BC7047F0B4564A002300240A25B1FB6E
:1009A000F2F606F130071F5402FB16110A265B1CF3
:1009B000B2FBF6F21E1816F8016C302E06BF002CA2
:1009C0000023641C6D1EEAD1F0BC7047F0B40578BA
:1009D000002400221346302D2FD14578782D18BFE2
:1009E000582D2AD1847814B9F0BC00207047022415
:1009F000801C057815B90B6001221AE0A5F14107AA
:100A0000062F21BFA5F16106062EA5F130060A2E9C
:100A10000FD2A5F130060A2E38BF303D03D3062F82
:100A200034BF373D573D641C401C05EB03130B2CB2
:100A3000DFD30B2C22D3002220E0255C0DB90B6004
:100A40000EE02E466B2E18BF4B2E02D10CB1980231
:100A500005E06D2E18BF4D2E04D11CB1180508609D
:100A600001220BE0303D0A2D08D203EB8305A6F1ED
:100A70003003641C03EB45030B2CDED3F0BC1046A3
:100A8000704738B504461B4D2021284600F0E0FC95
:100A900010B1A8882070012032BD10B5154C20215E
:100AA000204600F0D5FC0028F9D0A088C0B210BDC7
:100AB00010B5104C0146204600F08BFC80212046EA
:100AC00000F0C6FC0028F9D010BD38B50446094D29
:100AD00009E0284600F07DFC8021284600F0B8FCA3
:100AE0000028F9D0641C21780029F2D131BD000022
:100AF00000CA9A3B004800402DE9F14FADF5856DE5
:100B000000200190002461480390029408AD02E0A7
:100B10000620FFF7CDFF002602E04320FFF7C8FFC5
:100B20004FF480180027C14600A8FFF7AAFFA9F1DB
:100B30000109012810D0B9F1000FF5D10298012860
:100B4000A8BF641C062CE8DB1820FFF7B1FF1820B3
:100B5000FFF7AEFF0020BCE09DF80000012825D083
:100B6000022820D004283FD018280CD0412818BFD4
:100B70006128E3D11820FFF79BFF1820FFF798FFAB
:100B80006FF00200A5E000A8FFF77BFFA8F10108C5
:100B9000012803D0B8F1000FF5D1CFE79DF8000090
:100BA0001828CBD126E04FF4806700E080278DF82D
:100BB00020000DF1210907F1040AC3464846FFF75A
:100BC00060FFABF1010B012803D0BBF1000FF5D1A1
:100BD000B4E709F10109BAF1010AEED1A978687800
:100BE00081F0FF018842A9D10024380090D0B7F1EC
:100BF000FF3F01D10620ABE76878F1B2884218BF09
:100C000015208BD1002E4CD1E878002844D000204C
:100C10000DF123011E4A04E011F8013B02F8013BEB
:100C2000401C0B780BB1FF28F6DD194A84540020D4
:100C3000491C04AA04E011F8013B02F8013B401CE6
:100C40000B78202B01D01028F5DB04A9445401A90E
:100C500004A8FFF7BBFE01980E49884208D318206C
:100C6000FFF726FF1820FFF723FF4FF0FF3030E09B
:100C7000064800F0E3F90620FFF71AFF4320FFF7CC
:100C800017FF0120761C02904AE700BF00400008D1
:100C90002804002002C00F000620FFF709FF01987A
:100CA00017E03A46DDF828040DF12301FFF720FE96
:100CB000DDF82814BA0803A800F0D3F908B9062013
:100CC000DDE71820FFF7F4FE1820FFF7F1FE6FF0C4
:100CD00001000DF22C4DBDE8F08F30B5044683B015
:100CE00001202070002500206070FF20A07004F219
:100CF000030005E011F8013B00F8013B6D1CADB2AB
:100D00000B780BB1FF2DF5DD28190021C17000A86B
:100D10001168FFF73FFE281D80B200A904E011F81A
:100D2000012B0255401C80B20A78002AF7D1832893
:100D300004DAC0F18301001900F024FC03B030BDD7
:100D400078B40C46B3F5806F04D34FF48063194632
:100D5000022505E08021802B2CBF80239BB201253A
:100D600025706270D243A270DA1C042A08DB04F2F8
:100D700003021D4610F8016B02F8016B6D1EF9D1DC
:100D800099420ADBDB1C9BB2CA1CD11A934204DADB
:100D9000181978BC1A2200F0F9BB71BC704741F4F5
:100DA000807141F2210240004900CB0548BF401C40
:100DB000C30348BF5040CB03F5D580B2704738B568
:100DC000044600200D1903E014F8011BFFF7E7FFAC
:100DD000AC42F9D30021FFF7E2FFBDE83440002127
:100DE000DDE738B504460D0005D014F8010BFFF718
:100DF0005FFE6D1EF9D131BD2DE9F44FADF5A26D49
:100E000006460025002001AA11F8013B02F8013B2B
:100E1000C01C11F8013B02F8013BFF2811F8013B0F
:100E200002F8013BF0D10DF5A26201A941A8FFF73C
:100E300054FF42F21078832141A8FFF7D2FF41A866
:100E40008021C01CFFF7BBFF0746000AFFF730FEFA
:100E5000F8B2FFF72DFE474600A8FFF712FE7F1EEF
:100E6000012807D0002FF7D16D1C0A2DE3D30A2DDE
:100E700005D3C3E09DF800000628F6D1F7E7DDF8BA
:100E800010750124002F52D03B46E2B241A93046F2
:100E9000FFF756FF00208DF800000025B7F5806FA2
:100EA0002CBF4FF480694FF0800909F103000DF564
:100EB000827A1FFA80FB1AF8010BFFF7F9FDBBF1EC
:100EC000010BF8D141A84946C01CFFF778FF8246C4
:100ED000000AFFF7EDFD5FFA8AF0FFF7E9FDDFF8A2
:100EE00024A000A8FFF7CDFDAAF1010A01280BD02C
:100EF000BAF1000FF5D16D1C0A2DCFD30A2DC1D345
:100F00007CE000BFA08601009DF800000628F2D119
:100F10004E44B94509D2A0B2A7EB0907B0F57C7FD2
:100F200018BF441CEAD1FF206BE00027E6E7002051
:100F30008DF8000000250420FFF7BAFD464600A802
:100F4000FFF79FFD761E012802D0002EF7D103E0A7
:100F50009DF80000062802D06D1C0A2DEBD30A2D47
:100F60004CD201208DF804010026FF208DF80601E7
:100F7000002541A88DF800608DF805518021C01C26
:100F800000F000FB832141A8FFF72BFF41A880213F
:100F9000C01CFFF714FF0746000AFFF789FDF8B2EF
:100FA000FFF786FD474600A8FFF76BFD7F1E01286F
:100FB00007D0002FF7D16D1C0A2DE3D30A2D06D3DD
:100FC0001CE09DF800000628F6D10126F6E7042073
:100FD000FFF76EFD474600A8FFF753FD7F1E01286F
:100FE00002D0002FF7D103E09DF80000062803D0BF
:100FF0006D1C0EB90A2DEAD30A2D01D3E8B200E028
:1010000000200DF2145DBDE8F08F50F8041B61B1B3
:1010100050F8042BD30744BFA9F101039A18002309
:1010200042F8043B091FFAD1EFE7704780B500F0A2
:10103000E1FABDE80240F32000F0E2BB10B55B48E6
:1010400000F066F8044600E00834592C07D202216B
:10105000204600F0DBFA0828F6D0012010BD002061
:1010600010BD2DE9F04104460E4615460027DFF875
:10107000408103E02068001D20607F1CAF423CBF20
:101080002068404511D23168206800F01BFB082819
:1010900008D1206856F8041B00688842EAD0022074
:1010A000BDE8F0810120BDE8F0810020BDE8F081BD
:1010B00010B53E4800F02CF8C40800F09EFB40F646
:1010C000FF71E040E140884201D1012010BD0020C5
:1010D00010BD00B583B00820019002200090334875
:1010E00000F016F8019001200199C9088840C0F568
:1010F0008050009000F017FB0021009800F01FFBCB
:1011000000F075FB082814BF0220012003B000BDC9
:101110000021A0F10062B2F5804F45D3254909189E
:10112000B1F5804F38BF08213ED323490918B1F5E6
:10113000804F38BF102137D320490918B1F5804FAF
:1011400038BF182130D31E490918B1F5803F38BF88
:10115000202129D31B490918B1F5003F38BF2821A8
:1011600022D319490918B1F5003F38BF30211BD3EC
:1011700016490918B1F5003F38BF382114D3144976
:101180000918B1F5003F38BF40210DD311490918A6
:10119000B1F5003F38BF482106D30F490818B0F514
:1011A000003F34BF502158210846704700400008D6
:1011B000FCFF0F0800C0FFF70080FFF70040FFF7BB
:1011C0000000FFF70000FEF70000FCF70000FAF750
:1011D0000000F8F70000F6F70000F4F7F0B5044659
:1011E000DFF84C72DFF8606285B00D46BC421CBF70
:1011F000DFF84002844213D0DFF83C0284421CBF77
:10120000DFF8380284420BD0DFF8340284421CBF7E
:10121000DFF83002844203D0EB21304600F0CCFBF3
:10122000286818B1DFF82412884203D3EC21304635
:1012300000F0C2FBA888002818BFB0F5805F03D07B
:10124000ED21304600F0B8FBE888002818BFB0F563
:10125000805F09D0B0F5005F18BFB0F5405F03D0E4
:10126000EE21304600F0A8FB288900281CBFB0F50D
:10127000806FB0F5C06F03D0EF21304600F09CFBCB
:1012800068894FF6F371084200D118B9F021304651
:1012900000F092FBA889F8B1B0F5807F1CBFB0F5D3
:1012A000007FB0F5407F05D0F121304600F084FB8F
:1012B000A88988B1BC421CBFDFF8780184420BD0FA
:1012C000DFF8740184421CBFDFF87801844203D048
:1012D000F621304600F070FB208A4CF6FF71084082
:1012E000E988084320824EF6F311A0890840A988B6
:1012F00008432989084369890843A0814FF6FF41C3
:10130000A08A0840A9890843A08200A800F056FBE3
:10131000BC421BBFDFF82C01844203980298296865
:1013200019225043A28912044CBF49008900B0FB26
:10133000F1F16420B1FBF0F000010209642303FB2A
:101340001211A289120406D5C9003231B1FBF3F1A2
:1013500001F0070105E009013231B1FBF3F101F0C1
:101360000F010843208105B0F0BD38B50446DFF811
:10137000C0000D4684421CBFDFF8B800844215D07F
:10138000DFF8B40084421CBFDFF8B00084420DD007
:10139000DFF8AC0084421CBFDFF8A800844205D00F
:1013A00040F29B110FF2581000F006FB5DB1012DC9
:1013B00005D00FF24C104FF4CE7100F0FDFAA08969
:1013C00040F4005003E0A0894DF6FF710840A08171
:1013D00031BD38B50446DFF858000D4684421CBFC5
:1013E000DFF85000844215D0DFF84C0084421CBF67
:1013F000DFF8480084420DD0DFF8440084421CBF6F
:10140000DFF84000844205D040F21D210FF2F000C9
:1014100000F0D2FAB5F5007F05DB0FF2E40040F2F0
:101420001E2100F0C9FAE805C00DA08031BD000002
:10143000001001400044004000480040004C0040C3
:10144000005000400014014000150008E1707200D7
:10145000F8B504460026244F0D46BC421CBF234865
:10146000844211D0224884421CBF224884420BD0BF
:10147000214884421CBF2148844205D040F2FC41EF
:101480000FF27C0000F098FA012D18BF802D24D0B7
:10149000402D18BF202D20D0102D18BFB5F5807F0E
:1014A0001BD0B5F5007F07D0082D1CBF042D022DE1
:1014B00013D040F2FD410CE0BC421CBF0B488442FB
:1014C0000BD00B4884421CBF0C48844205D040F22C
:1014D00002510FF22C0000F06FFA2088284218BF4A
:1014E00001263046F2BD00000010014000440040DB
:1014F00000480040004C00400050004000140140F3
:10150000433A5C546F6F6C735C494152205379735A
:1015100074656D735C456D62656464656420576FC6
:10152000726B62656E636820362E355C576F726B26
:1015300053706163655C574C39465F446973706CE6
:1015400061795F4941505C4C69627261726965738F
:101550005C53544D3332463478785F53746450652D
:10156000726970685F4472697665725C7372635CFD
:1015700073746D3332663478785F75736172742E6C
:1015800063000000002200F005B8000062F30F22A3
:1015900062F31F42401810F0030308D0C91A1FD38A
:1015A000DB0748BF00F8012D28BF20F8022D1300EB
:1015B00030B414461546103928BF20E93C00FAD84B
:1015C000490728BF20E90C0048BF40F8042D8900D6
:1015D00028BF20F8022D48BF00F8012D30BC70470D
:1015E000C91818BF00F8012DCB0728BF00F8012D3E
:1015F00070470000DFF89C02C168002905D5DFF8BC
:1016000098120160DFF894120160704770B50446CB
:1016100000260D46002C18BF082C19D0102C18BF1E
:10162000182C15D0202C18BF282C11D0302C18BF06
:10163000382C0DD0402C18BF482C09D0502C18BF86
:10164000582C05D040F25B110FF2742000F0B4F971
:101650006DB1012D30D0022D31D0032D05D00FF208
:1016600060204FF4AE7100F0A7F94FF4407600F01F
:10167000D6F808281FD1DFF82852286820F44070D7
:10168000286044F00201286830432860286820F070
:10169000F8002860286808432860286840F48030F3
:1016A000286000F0BCF8296821F00201296029684F
:1016B00021F0F801296070BD4FF48076D7E74FF430
:1016C0000076D4E770B504460D46A4F10060DFF85B
:1016D000D411884221BF04F1604000F5084040F277
:1016E0000F21884205D34FF4FB710FF2D41000F0A4
:1016F00063F900F094F8082814D1DFF8A461306889
:1017000020F440703060306840F400703060306821
:1017100040F001003060256000F081F83168490830
:101720004900316070BDDFF88401C168C90705D583
:10173000DFF87C110160DFF87C110160704738B57B
:101740000446200B0D46000300D12CB940F2B6210F
:101750000FF26C1000F030F9002D18BF012D05D0EC
:101760000FF25C1040F2B72100F026F908208DF846
:1017700000000821DFF830010268D20348BF0121D0
:1017800013D40268D20648BF05210ED4026812F0B5
:10179000EF0F18BF062108D10268920705D507216F
:1017A00003E00268920748BF07218DF800109DF8FA
:1017B0000010012910D102680821D20348BF01217D
:1017C000F3D40268D20648BF0521EED4026812F0B5
:1017D000EF0FE6D00621E8E79DF80010082905D1B3
:1017E0004189002D14BFA1432143418131BD3248BD
:1017F000017841F00201017011E030480088704723
:1018000010B5044634F0F30000D12CB940F2C731D2
:101810000FF2AC0000F0D0F82348046010BD81B096
:1018200008208DF8000008211F480268D20348BF35
:10183000012113D40268D20648BF05210ED40268E4
:1018400012F0EF0F18BF062108D10268920705D5E4
:10185000072103E00268920748BF07218DF80010B6
:101860009DF80010012910D102680821D20348BF59
:101870000121F3D40268D20648BF0521EED40268E4
:1018800012F0EF0FE6D00621E8E79DF8000001B066
:1018900070470000043C024023016745AB89EFCD4F
:1018A000103C0240FFFF0F000C3C0240083C02408D
:1018B0003B2A19087F6E5D4C143C0240163C0240E6
:1018C000433A5C546F6F6C735C4941522053797397
:1018D00074656D735C456D62656464656420576F03
:1018E000726B62656E636820362E355C576F726B63
:1018F00053706163655C574C39465F446973706C23
:1019000061795F4941505C4C6962726172696573CB
:101910005C53544D3332463478785F537464506569
:10192000726970685F4472697665725C7372635C39
:1019300073746D3332663478785F666C6173682EC9
:101940006300000000B585B0FFF770FB00210220A6
:1019500000F036F9022000F08AF990B94FF4E13036
:10196000009000A900200190ADF80800ADF80C002F
:101970000C20ADF80A00002000F083F9FEF763FCAC
:1019800010E00948094A01681140B1F1005F09D12E
:101990004168074A1160074A1160006880F30888AF
:1019A00008468047FEE70000004000080000FE2FC8
:1019B0002C05002028050020FEE70000DFF8581164
:1019C0004A6802F00C02042A02D0082A03D01CE064
:1019D000DFF848211BE00A680B68C2F3805203F06D
:1019E0003F03002A14BFDFF83421DFF83421B2FBB3
:1019F000F3F20B68C3F388135A430B68C3F3014334
:101A00005B1C5B00B2FBF3F201E0DFF81421026023
:101A10004B68DFF81021D0F800C0C3F303139B5CC0
:101A20002CFA03F343604B68D0F804C0C3F382235D
:101A30009B5C2CFA03F3836049684368C1F342312D
:101A4000895C23FA01F1C160704738B50446DFF8BC
:101A5000D8000D46044200D12CB94FF488610FF232
:101A6000E000FFF7A9FF65B1012D05D00FF2D0000E
:101A700040F24241FFF7A0FFDFF8B00001682143C8
:101A800003E0DFF8A8000168A143016031BD38B56B
:101A90000446DFF89C000D46044200D12CB940F208
:101AA000AD410FF29C00FFF787FF65B1012D05D016
:101AB0000FF28C0040F2AE41FFF77EFFDFF87400BA
:101AC0000168214303E0DFF86C000168A143016075
:101AD00031BD38B50446DFF860000D46044200D140
:101AE0002CB940F2D5410FF25800FFF765FF65B100
:101AF000012D05D00FF2480040F2D641FFF75CFF00
:101B0000DFF838000168214303E0DFF830000168A6
:101B1000A143016031BD00000438024040787D01DE
:101B20000024F4000000002000EE8B8130380240D9
:101B3000003601C940380240CCA0F8FF44380240CA
:101B4000433A5C546F6F6C735C4941522053797314
:101B500074656D735C456D62656464656420576F80
:101B6000726B62656E636820362E355C576F726BE0
:101B700053706163655C574C39465F446973706CA0
:101B800061795F4941505C4C696272617269657349
:101B90005C53544D3332463478785F5374645065E7
:101BA000726970685F4472697665725C7372635CB7
:101BB00073746D3332663478785F7263632E6300BA
:101BC00070B505460FF28C1086B02C460E4650F8C4
:101BD00024000121FFF739FF01214FF48040FFF776
:101BE00078FF00208DF810008DF8130003A90FF284
:101BF0005C1030F814000390DFF8480150F824001E
:101C000000F0CEF8012E30D10FF2641030F814102D
:101C10000FF2541030F81400C9B2C0B200F094FAB8
:101C20000FF23C1030F81400019000208DF80800ED
:101C3000002D14BF0C2008208DF8090001208DF81C
:101C40000A0001A800F012FB0FF22C1030F814006B
:101C50008DF800000F208DF801008DF802000120A2
:101C60008DF8030000A800F0A3FB06B070BD0FF2D2
:101C7000DC01DFF8D02031F8101052F8200000F01D
:101C800030B9F0B506460FF2F8000FF2F80283B053
:101C9000354650F8250052F825200C460121104306
:101CA000FFF7D3FE26B901214FF48020FFF7EFFEA6
:101CB0000FF2E400DFF8906030F815200FF2D0004A
:101CC00030F8151006EB8507D2B2786800F06AF993
:101CD0000FF2C80030F815200FF2B80030F81510D8
:101CE000B868D2B200F05EF900208DF8060000A9B5
:101CF00001208DF8070002208DF804000FF2880003
:101D000030F81500009002208DF80500786800F08A
:101D100047F802208DF8040000A90FF2700030F897
:101D200015000090B86800F03BF856F825002146F1
:101D3000FFF754FA56F825000121FFF716FB03B010
:101D4000F0BD0000100000201C0000200100002059
:101D500000800000010000000400000040000000BE
:101D600001000020008000000000020006000000CA
:101D700000000D000F0000000600280028000000F1
:101D8000040000000400000000040000000800003F
:101D90000A0000000B000000070000000700000020
:101DA0002DE9F84304460026DFF8F4020D4684428C
:101DB0001CBFDFF8F00284421FD0DFF8EC0284423F
:101DC0001CBFDFF8E802844217D0DFF8E402844247
:101DD0001CBFDFF8E00284420FD0DFF8DC0284424F
:101DE0001FBFDFF8D8028442DFF8D402844204D057
:101DF000BB210FF2D020FFF7DFFD286820B90FF2DA
:101E0000C420BC21FFF7D8FD2879002818BF01287D
:101E100008D0022818BF032804D0BD210FF2A42047
:101E2000FFF7CAFDE87940B1012818BF022804D0A5
:101E30000FF29020BE21FFF7BFFD012000FA06F847
:101E4000286808EA0000404546D177000320B840E2
:101E50006FEA0009206809EA0000206020682979FB
:101E6000B940084320602879012818BF02282AD1E8
:101E70006879002818BF012808D0022818BF032855
:101E800004D0D0210FF23C20FFF796FDA06809EAAC
:101E90000000A060A0686979B9400843A060A879F3
:101EA000002818BF012804D0D7210FF21820FFF70F
:101EB00083FD606820EA080060606068A979B1402D
:101EC00089B208436060E06809EA0000E060E06809
:101ED000E979B9400843E060761C102EADD3BDE827
:101EE000F18370B504460026DFF8B4010D46844244
:101EF0001CBFDFF8B001844220D0DFF8AC0184427F
:101F00001CBFDFF8A801844218D0DFF8A401844286
:101F10001CBFDFF8A001844210D0DFF89C0184428E
:101F20001FBFDFF898018442DFF89401844205D096
:101F30004FF498710FF28C10FFF73EFD012D18BF82
:101F4000022D29D0042D18BF082D25D0102D18BF23
:101F5000202D21D0402D18BF802D1DD0B5F5807FBC
:101F600018BFB5F5007F17D0B5F5806F18BFB5F570
:101F7000006F11D0B5F5805F18BFB5F5005F0BD0CD
:101F8000B5F5804F18BFB5F5004F05D00FF23410EE
:101F900040F23111FFF710FD2069284218BF0126D9
:101FA000304670BD70B506463D480D461446864223
:101FB0001CBF3C48864219D03B4886421CBF3B4868
:101FC000864213D03A4886421CBF3A4886420DD01A
:101FD000394886421FBF394886423948864205D073
:101FE00040F217210FF2DC00FFF7E6FC002D18BFCE
:101FF000012D21D0022D18BF032D1DD0042D18BF97
:10200000052D19D0062D18BF072D15D0082D18BF86
:10201000092D11D00A2D18BF0B2D0DD00C2D18BF76
:102020000D2D09D00E2D18BF0F2D05D00FF29400E5
:102030004FF40671FFF7C0FC002C18BF092C1ED00E
:10204000012C18BF022C1AD0032C18BF042C16D058
:10205000052C18BF062C12D0072C18BF082C0ED048
:102060000A2C18BF0B2C0AD00C2C1CBF0D2C0F2CCB
:1020700005D040F219210FF24C00FFF79DFCE80853
:1020800006EB800005F007018900026A0F238B40F0
:102090009A43026204FA01F1026A1143016270BDBF
:1020A000000002400004024000080240000C024010
:1020B000001002400014024000180240001C0240C0
:1020C00000200240433A5C546F6F6C735C4941528C
:1020D0002053797374656D735C456D6265646465E6
:1020E0006420576F726B62656E636820362E355CB4
:1020F000576F726B53706163655C574C39465F4430
:102100006973706C61795F4941505C4C69627261BE
:10211000726965735C53544D3332463478785F533B
:1021200074645065726970685F4472697665725C48
:102130007372635C73746D3332663478785F677082
:10214000696F2E630000000070B504000D4618BFD3
:10215000012811D0022818BF03280DD0042818BF69
:10216000052809D006281CBF0728082804D07C2190
:102170000FF27400FFF720FC2E0018BF012D20D0B5
:10218000022D18BF032D1CD0042D18BF052D18D00B
:10219000062D18BF072D14D0082D18BF092D10D0FB
:1021A0000A2D18BF0B2D0CD00C2D18BF0D2D08D0EB
:1021B0000E2D18BF0F2D04D00FF22C007D21FFF73C
:1021C000FBFB25F00301074A8B5805F00300800054
:1021D0000F258540AB438B5004FA00F08B58184311
:1021E000885070BD08380140433A5C546F6F6C737F
:1021F0005C4941522053797374656D735C456D621F
:10220000656464656420576F726B62656E636820F5
:10221000362E355C576F726B53706163655C574C3B
:1022200039465F446973706C61795F4941505C4C19
:1022300069627261726965735C53544D333246341E
:1022400078785F5374645065726970685F4472692E
:102250007665725C7372635C73746D333266347866
:10226000785F7379736366672E63000038B5044640
:102270002079002818BF042804D07C210FF2AC007C
:10228000FFF79AFB607908281CBF0C28102804D09F
:102290007D210FF29800FFF78FFB2068C10DC90563
:1022A00000D120B97E210FF28400FFF785FBA079D1
:1022B00080B3012806D00FF274007F21FFF77CFB6A
:1022C000A07938B3184801682268914301604168D9
:1022D00022689143416022798218136825682B4354
:1022E0001360826823689A438260C26823689A43B5
:1022F000C26062792368102A07D18168194381601E
:10230000C16822681143C16031BD50FA82F2106881
:10231000184307E0207900F1804202F59E321068F0
:1023200021688843106031BD003C0140433A5C5451
:102330006F6F6C735C4941522053797374656D7390
:102340005C456D62656464656420576F726B62659D
:102350006E636820362E355C576F726B5370616305
:10236000655C574C39465F446973706C61795F49AD
:1023700041505C4C69627261726965735C53544D83
:102380003332463478785F5374645065726970688C
:102390005F4472697665725C7372635C73746D33EB
:1023A00032663478785F657874692E6300000000C7
:1023B00070B50446E078002818BF012804D08721B2
:1023C0000FF28800FFF7F8FA6078102804DB882104
:1023D0000FF27800FFF7F0FAA078102804DB8921CB
:1023E0000FF26800FFF7E8FA2278E378114601203F
:1023F000E3B1124A1268637802F4E062C2F5E06267
:10240000120AC2F10405AB40A5780F2626FA02F2A3
:102410002A401A430A4B1201CA542178094B4A092F
:1024200001F01F01884043F8220070BD02F01F0236
:10243000054B4909904043F8210070BD0CED00E0C8
:1024400000E400E000E100E080E100E0433A5C5499
:102450006F6F6C735C4941522053797374656D736F
:102460005C456D62656464656420576F726B62657C
:102470006E636820362E355C576F726B53706163E4
:10248000655C574C39465F446973706C61795F498C
:1024900041505C4C69627261726965735C53544D62
:1024A0003332463478785F5374645065726970686B
:1024B0005F4472697665725C7372635C6D697363A5
:1024C0002E6300003348344A82B0016841F4700141
:1024D00001603248016841F0010101600021816022
:1024E0000168114001602E494160016821F480219A
:1024F00001600021C16001910091016841F48031C7
:102500000160016801F4003100910199491C0191B9
:10251000009919B90199B1F5A06FF2D10168490C80
:1025200001F001010091009901292CD1016C41F0C9
:10253000805101641B490A6842F480420A60816844
:102540008160816841F400418160816841F4A0515B
:10255000816015494160016841F080710160016846
:102560008901FCD540F2056210490A60816889083A
:1025700089008160816841F002018160816801F019
:102580000C010829FAD14FF000610948016002B03E
:102590007047000088ED00E0FFFFF6FE00380240C3
:1025A000103000240070004019544007003C0240E5
:1025B00008ED00E010B5074979441831064C7C4419
:1025C000163404E00A68081D511888470146A142E4
:1025D000F8D110BD08000000280000002FEAFFFF1E
:1025E0001005000028000020000000007BE3FFFF32
:1025F0002800000018020000000000200000000079
:102600004EF68851CEF20001086840F47000086070
:102610004FF00070E1EE100A7047000000F009F87A
:10262000002801D0FFF7C6FF0020FFF78BF900F06C
:1026300002F80120704700F001B800000746384654
:1026400000F002F8FBE7000080B5C046C046024A31
:1026500011001820ABBEFBE726000200034801680A
:1026600011B10168491E0160704700003405002067
:102670007047FEE7FEE7FEE7FEE7704770477047EA
:10268000FFF7ECBF0148804701480047C524000818
:1026900095260008C046C046FFF7B2FFFFF7BEFF11
:1026A000FFF7E6BFFFF7E5BFFFF7E4BFFFF7E3BFC4
:1026B000FFF7E2BFFFF7E1BFFFF7E0BFFFF7DFBFC4
:1026C000FFF7DEBFFFF7FEBFFFF7FEBFFFF7FEBF5E
:1026D000FFF7FEBFFFF7FEBFFFF7FEBFFFF7FEBF2E
:1026E000FFF7FEBFFFF7FEBFFFF7FEBFFFF7FEBF1E
:1026F000FFF7FEBFFFF7FEBFFFF7FEBFFFF7FEBF0E
:10270000FFF7FEBFFFF7FEBFFFF7FEBFFFF7FEBFFD
:10271000FFF7FEBFFFF7FEBFFFF7FEBFFFF7FEBFED
:10272000FFF7FEBFFFF7FEBFFFF7FEBFFFF7FEBFDD
:10273000FFF7FEBFFFF7FEBFFFF7FEBFFFF7FEBFCD
:10274000FFF7FEBFFFF7FEBFFFF7FEBFFFF7FEBFBD
:10275000FFF7FEBFFFF7FEBFFFF7FEBFFFF7FEBFAD
:10276000FFF7FEBFFFF7FEBFFFF7FEBFFFF7FEBF9D
:10277000FFF7FEBFFFF7FEBFFFF7FEBFFFF7FEBF8D
:10278000FFF7FEBFFFF7FEBFFFF7FEBFFFF7FEBF7D
:10279000FFF7FEBFFFF7FEBFFFF7FEBFFFF7FEBF6D
:1027A000FFF7FEBFFFF7FEBFFFF7FEBFFFF7FEBF5D
:1027B000FFF7FEBFFFF7FEBFFFF7FEBFFFF7FEBF4D
:1027C000FFF7FEBFFFF7FEBFFFF7FEBFFFF7FEBF3D
:1027D000FFF7FEBFFFF7FEBFFFF7FEBFFFF7FEBF2D
:1027E000FFF7FEBFFFF7FEBFFFF7FEBFFFF7FEBF1D
:1027F000FFF7FEBFFFF7FEBFFFF7FEBFFFF7FEBF0D
:10280000FFF7FEBFFFF7FEBFFFF7FEBF00000000AF
:102810000102030401020304060708090000024044
:102820000008024000180240004800400008024032
:04283000000802405A
:040000050800269534
:00000001FF
