:020000040800F2
:10000000680D002005340008F1330008F3330008C0
:10001000F5330008F7330008F9330008000000004A
:10002000000000000000000000000000FB3300089A
:10003000FD33000800000000FF3300080134000811
:1000400045340008493400084D3400085134000894
:1000500055340008593400085D3400086134000844
:1000600065340008693400086D34000871340008F4
:1000700075340008793400087D34000881340008A4
:1000800085340008893400088D3400089134000854
:1000900095340008993400089D340008A134000804
:1000A000A5340008A9340008AD340008B1340008B4
:1000B000B5340008B9340008BD340008C134000864
:1000C000C5340008C9340008CD340008D134000814
:1000D000D5340008D9340008DD340008E1340008C4
:1000E000E5340008E9340008ED340008F134000874
:1000F000F5340008F9340008FD3400080135000823
:1001000005350008093500080D35000811350008CF
:1001100015350008193500081D350008213500087F
:1001200025350008293500082D350008313500082F
:1001300035350008393500083D35000841350008DF
:1001400045350008493500084D350008513500088F
:1001500055350008593500085D350008613500083F
:1001600065350008693500086D35000871350008EF
:1001700075350008793500087D350008813500089F
:10018000853500088935000800B5DFF8640B0021CB
:10019000017083B0012141708170C1700C21017127
:1001A000002141718171D0E90023CDE90023DDE90F
:1001B000000100F03BFF03B000BDF0B58DB0DFF8EB
:1001C000340B02A9016000A9416004A9816006A95D
:1001D000C16000219DF8080000F0FC008DF80800C7
:1001E00000F0F3008DF8080000F00F0040F0300040
:1001F0008DF8080002A8417081700721C1700021AC
:100200000171417901F0F00141F0010141713121A9
:100210004171422181712421C17108219DF80000A2
:1002200000F0FC008DF8000000F0F3008DF80000F5
:1002300000F0CF008DF8000000F03F008DF80000C6
:1002400000A8417010218170C17801F0F001C170E7
:100250000021C17041609DF8100000F0F0008DF8A1
:10026000100080208DF8100004A8417801F0F00102
:10027000417050214170817801F0F00141F0050199
:10028000817055218170C17801F0F00141F00801C1
:10029000C1702821C170017901F0F00141F007011E
:1002A000017127210171FF21417100200690002179
:1002B00006A841608160C16001618DF82C100FF6C5
:1002C000542000F023FF0021002000F0ACFD0021AD
:1002D000084600F0A8FD0021084600F0A4FD002417
:1002E00002AD00AE04AF15F8011B04F1080000F0E8
:1002F0009AFD052000F02AFF16F8011B04F11000FA
:1003000000F091FD052000F021FF17F8011B04F11A
:10031000180000F088FD052000F018FF641C082C70
:10032000E1DB0FF6082000F0F1FE002406AD15F821
:10033000011B04F1320000F076FD052000F006FFFD
:10034000641C152CF3DB0024FF2104F1640000F091
:100350006AFD052000F0FAFE641C4F2CF4DB0FF65A
:10036000E41000F0D3FE0024FF2104F1C80000F0E7
:100370005AFD052000F0EAFE641C1E2CF4DB00246C
:10038000FF2104F1E60000F04EFD052000F0DEFE46
:10039000641C1D2CF4DB0FF6C41000F0B7FEFFF751
:1003A000F3FE0FF6D01000F0B1FE0DB0F0BD00B5B9
:1003B00085B000A800F0EFFE012000F0DDFE012175
:1003C000012000F02FFF0121022000F02BFF01216E
:1003D000042000F027FF0121082000F023FF012165
:1003E000102000F01FFF0121202000F01BFF012141
:1003F000402000F017FF0121084600F035FF0121E1
:10040000042000F052FF0121082000F04EFF0121DE
:100410004FF4804000F049FF01214FF4003000F01C
:1004200044FF01214FF4002000F03FFF01214FF075
:10043000007000F03AFF01214FF0806000F035FFBE
:100440000121022000F053FF0121102000F04FFF96
:1004500001214FF4805000F04AFF01214FF4804009
:1004600000F045FF05B000BD2DE9F04F83B04FF41B
:10047000C050009002208DF8040000208DF8060086
:1004800001208DF8070002208DF8050000A9DFF893
:100490006868304600F092FF09220C21304601F0D6
:1004A00046F909220B21304601F041F96020009005
:1004B00002208DF8040000208DF8060001208DF840
:1004C000070002208DF8050000A9DFF830884046BB
:1004D00000F074FF09220621404601F028F90922A4
:1004E0000521404601F023F90C20009000A90220CC
:1004F0008DF8040000208DF8060001208DF807001B
:1005000002208DF80500304600F058FF0722022136
:10051000304601F00CF907220321304601F007F9BB
:100520000320009000A902208DF8040000208DF81F
:10053000060001208DF8070002208DF805003046E6
:1005400000F03CFF07220021304601F0F0F80722BE
:100550000121304601F0EBF801208DF804004FF442
:10056000805500208DF80600009501208DF80700C9
:1005700002208DF8050000A9DFF88497484600F0B6
:100580001DFF0420009001208DF8040000208DF84C
:10059000060001208DF8070002208DF8050000A953
:1005A000DFF860A7504600F009FFB020009000A9D6
:1005B00001208DF8040000208DF8060001208DF840
:1005C000070002208DF80500304600F0F7FE4020BD
:1005D000009000A900208DF804008DF8060001208D
:1005E0008DF8070002208DF80500304600F0E6FE89
:1005F0004FF44064009401208DF8040000A900200D
:100600008DF8060001208DF8070002208DF8050006
:10061000484600F0D3FE009401208DF8040000A9A4
:1006200000208DF8060001208DF8070002208DF8CB
:100630000500404600F0C2FE4FF47040009000A953
:1006400002208DF8040000208DF8060001208DF8AE
:10065000070002208DF80500404600F0AFFE05229D
:100660000C21404601F063F805220D21404601F0BF
:100670005EF805220E21404601F059F805220F21AF
:10068000404601F054F80820009000A903208DF89E
:10069000040000208DF80700484600F08FFE4FF45C
:1006A000F860009000208DF804008DF8060001200D
:1006B0008DF8070002208DF8050000A9DFF84846F4
:1006C000204600F07BFE0120009000A900208DF85C
:1006D00004008DF8060001208DF8070002208DF837
:1006E0000500404600F06AFE0220009000A90120AB
:1006F0008DF8040000208DF8060001208DF8070019
:1007000002208DF80500404600F058FE10200090B1
:1007100000A901208DF8040000208DF806000120BA
:100720008DF8070002208DF80500484600F046FECF
:100730002020009000A900208DF804008DF806000C
:1007400001208DF8070002208DF80500484600F0D2
:1007500035FE4020009000A902208DF80400002002
:100760008DF8060001208DF8070003208DF80500A4
:10077000484600F023FE03220621484600F0D7FF3A
:100780008020009000A901208DF8040000208DF841
:10079000060001208DF8070002208DF8050048466C
:1007A00000F00CFE4FF48070009000A901208DF83D
:1007B000040000208DF8060001208DF807000220BB
:1007C0008DF80500304600F0F9FD4FF400760096F4
:1007D00001208DF8040000A900208DF806000120FA
:1007E0008DF8070002208DF80500484600F0E6FD70
:1007F0004FF40067009701208DF8040000208DF869
:10080000060001208DF8070002208DF8050000A9E0
:10081000DFF8F8B4584600F0D1FD4FF400400090E6
:1008200000A901208DF8040000208DF806000120A9
:100830008DF8070002208DF80500584600F0BEFD37
:100840004FF44070009000A901208DF804000020B2
:100850008DF8060001208DF8070002208DF80500B4
:10086000404600F0ABFD4FF4E070009000A901207D
:100870008DF8040000208DF8060001208DF8070097
:1008800002208DF80500584600F098FD4FF4804096
:10089000009000A901208DF8040000208DF80600CA
:1008A00001208DF8070002208DF80500484600F071
:1008B00085FD4FF40050009000A900208DF8040041
:1008C0008DF8060001208DF8070002208DF8050044
:1008D000484600F073FD009701208DF8040000A940
:1008E00000208DF8060001208DF8070002208DF809
:1008F0000500204600F062FD4CF20370009000A954
:1009000002208DF8040000208DF8070002208DF8E9
:100910000500504600F052FD0C220A21504600F01E
:1009200006FF0C220921504600F001FF0C2208218D
:10093000504600F0FCFE0C220121504600F0F7FE6C
:100940000C220021504600F0F2FE0C220F215046EE
:1009500000F0EDFE0C220E21504600F0E8FE4FF6AE
:100960008070009000A9EA4F384600F027FD0C2265
:100970000F21384600F0DBFE0C220E21384600F035
:10098000D6FE0C220D21384600F0D1FE0C220C219F
:10099000384600F0CCFE0C220B21384600F0C7FE92
:1009A0000C220A21384600F0C2FE0C2209213846EA
:1009B00000F0BDFE0C220821384600F0B8FE0C22E3
:1009C0000721384600F0B3FE4FF23F00009000A927
:1009D000204600F0F3FC0C220F21204600F0A7FE79
:1009E0000C220E21204600F0A2FE0C220D212046F2
:1009F00000F09DFE0C221146204600F098FE0C22CD
:100A00000521204600F093FE0C220421204600F030
:100A10008EFE0C220321204600F089FE0C220221CA
:100A2000204600F084FE0C220121204600F07FFECB
:100A30000C220021204600F07AFE46F23F00009092
:100A400000A9584600F0BAFC0C220E21584600F0CE
:100A50006EFE0C220D21584600F069FE0C22052185
:100A6000584600F064FE0C220421584600F05FFE58
:100A70000C220321584600F05AFE0C22022158464F
:100A800000F055FE0C220121584600F050FE0C22C9
:100A90000021584600F04BFE4FF46050009000A932
:100AA000504600F08BFC0C220D21504600F03FFE1A
:100AB0000C221146504600F03AFE0C220B21504603
:100AC00000F035FE7C20009000A9384600F076FC4E
:100AD0000C220221384600F02AFE0C22062138465C
:100AE00000F025FE0C220521384600F020FE0C22E5
:100AF0000421384600F01BFE0C220321384600F08A
:100B000016FE7820009000A9504600F057FC0C22F9
:100B10000421504600F00BFE0C220521504600F047
:100B200006FE0C220621504600F001FE0C22032195
:100B3000504600F0FCFD0320009000A9384600F06C
:100B40003DFC0C220021384600F0F1FD0C22012171
:100B5000384600F0ECFD8020009000A9504600F0DF
:100B60002DFC0C220721504600F0E1FD009600A963
:100B7000584600F023FC0C220921584600F0D7FD0E
:100B80004FF48060009000A9584600F017FC0C223A
:100B90000A21584600F0CBFD009500A9584600F008
:100BA0000DFC0C221146584600F0C1FD00F003F880
:100BB00003B0BDE8F08F30B583B004200090012071
:100BC0008DF8040000208DF8060001208DF8070044
:100BD00002208DF8050000A9494C204600F0EEFBEC
:100BE0004FF48070009000A901208DF804000020CF
:100BF0008DF8060001208DF8070002208DF8050011
:100C0000204600F0DBFB8020009001208DF80400DE
:100C100000208DF8060001208DF8070002208DF8D5
:100C2000050000A9354D284600F0C8FB4FF40040F0
:100C3000009000A901208DF8040000208DF8060026
:100C400001208DF8070002208DF80500204600F0F5
:100C5000B5FB0421204600F0DFFC4FF480712046F4
:100C600000F0DAFC4FF40041204600F0D5FC802172
:100C7000284600F0D1FC03B030BD80B5FFF797FBEC
:100C8000BDE80140FFF7F0BB38B502211B4800F07A
:100C9000C3FC1B4C1021204600F0BEFC80212046E6
:100CA00000F0BAFC194D4FF40061284600F0B4FC86
:100CB0004FF40041284600F0AFFC4FF4805120462D
:100CC00000F0AAFC04210F4800F0A6FC4FF40071CC
:100CD000204600F075FC4FF48071074800F09CFC42
:100CE0000948BDE834404FF4006100F095BC0000B5
:100CF0005805002038050020000002400004024092
:100D000000080240000C024000140240001802409B
:100D1000001002400A0D496E697469616C697A6558
:100D2000203A2031302025250A0D0000496E6974D3
:100D300069616C697A65203A2033302025250A0DD7
:100D400000000000496E697469616C697A65203A37
:100D50002036302025250A0D00000000496E6974F8
:100D600069616C697A65203A2039352025250A0D9C
:100D700000000000496E697469616C697A65203A07
:100D8000203130302025250A0D0A0D0000B5010064
:100D9000DFF8500183B001694FF400724FF6FF5342
:100DA00008D019404161009201218DF804108DF89E
:100DB000051005E019404161009200218DF80410F2
:100DC00000A900F0FBFA03B000BD70B50446082589
:100DD000DFF81061E4B2E0094FF40071304602D050
:100DE00000F0EEFB01E000F017FC4FF4807130469C
:100DF00000F0E6FB64004FF48071304600F00CFC1C
:100E00006D1EE7D14FF40071304600F005FC4FF441
:100E10008071304600F0D4FB3046BDE870404FF49E
:100E2000807100F0F9BB70B504460D462D4E4FF4AD
:100E30000071304600F0C4FB0120FFF7A7FF4FF41C
:100E40000071304600F0BCFB4FF48071304600F07A
:100E5000B7FB4FF40071304600F0DEFB4FF48071B9
:100E6000304600F0D9FBA020FFF7AFFF2004000EB2
:100E7000FFF7ABFFE0B25FE038B50446194D4FF421
:100E80000071284600F09CFB0120FFF77FFF4FF424
:100E90000071284600F094FB4FF48071284600F062
:100EA0008FFB4FF40071284600F0B6FB4FF48071C1
:100EB000284600F0B1FBD020FFF787FF0A20FFF79C
:100EC00084FF2046FFF781FF4FF40071284600F0B1
:100ED000A3FB4FF48071284600F072FB2846BDE862
:100EE00034403BE00004024070B504460D46014E1C
:100EF00002E000BF000402404FF40071304600F0F1
:100F00005FFB0120FFF742FF4FF40071304600F015
:100F100057FB4FF48071304600F052FB4FF40071E4
:100F2000304600F079FB4FF48071304600F074FBDE
:100F3000D020FFF74AFF2046FFF747FF2846FFF77C
:100F400044FF4FF40071304600F066FB4FF48071AF
:100F5000304600F035FB3046BDE870404FF400717C
:100F600000F02EBB64280CDA0A2190FBF1F10A0193
:100F700050FA82F001EB8102A0EB4201C9B20820D5
:100F8000B2E7704701460D290DDA60B10A2091FBE6
:100F9000F0F0020151FA82F100EB8002A1EB420174
:100FA000C9B20720A0E77047014620290DDA60B1D9
:100FB0000A2091FBF0F0020151FA82F100EB80026D
:100FC000A1EB4201C9B206208EE7704718280CDA5F
:100FD0000A2190FBF1F10A0150FA82F001EB810243
:100FE000A0EB4201C9B204207EE770473C280CDA2E
:100FF0000A2190FBF1F10A0150FA82F001EB810223
:10100000A0EB4201C9B203206EE770473C280CDA1E
:101010000A2190FBF1F10A0150FA82F001EB810202
:10102000A0EB4201C9B202205EE7704703B581B070
:1010300002210020FFF758FF9DF80400FFF792FF00
:101040009DF80500FFF79EFF9DF80600FFF7ACFF37
:101050009DF80710082903DA11B10520FFF744FFB6
:101060009DF80800FFF7B2FF9DF80900FFF7BEFFEB
:101070009DF80A00FFF7CAFF00210020FFF734FFA8
:1010800003B05DF804EB002101202DE7F0B4284AFD
:10109000002300240A25B1FBF2F606F130071F54A5
:1010A00002FB16110A265B1CB2FBF6F21E1816F89C
:1010B000016C302E06BF002C0023641C6D1EEAD18B
:1010C000F0BC704738B504461A4D2021284600F080
:1010D00027FD10B1A8882070012032BD10B5154C35
:1010E0002021204600F01CFD0028F9D0A088C0B2C5
:1010F00010BD10B50F4C0146204600F0D2FC8021F7
:10110000204600F00DFD0028F9D010BD38B504468A
:10111000084D09E0284600F0C4FC8021284600F074
:10112000FFFC0028F9D0641C21780029F2D131BDE0
:1011300000CA9A3B001001400348016811B10168E0
:10114000491E0160704700006005002082B0002148
:10115000019144F2682108E0009A521C0092009A22
:101160008A42F9D3019A521C0192019A824238BFF5
:101170000022F3D302B0704710B5040018BF012C51
:1011800005D040F209210FF2DC1000F0B1FDDFF8CC
:10119000A801046010BDDFF89C114A6802F00C023F
:1011A000042A02D0082A03D01CE0DFF890211BE0BB
:1011B0000A680B68C2F3805203F03F03002A14BF91
:1011C000DFF87821DFF87821B2FBF3F20B68C3F384
:1011D00088135A430B68C3F301435B1C5B00B2FBEB
:1011E000F3F201E0DFF8582102604B68DFF8542188
:1011F000D0F800C0C3F303139B5C2CFA03F34360E5
:101200004B68D0F804C0C3F382239B5C2CFA03F331
:10121000836049684368C1F34231895C23FA01F174
:10122000C160704738B50446DFF81C010D46044222
:1012300000D12CB94FF488610FF2281000F058FD4E
:1012400065B1012D05D00FF21C1040F2424100F0B3
:101250004FFDDFF8F8000168214303E0DFF8EC0000
:101260000168A143016031BD38B5044660080D46F0
:10127000400000D12CB940F27B410FF2E80000F0B1
:1012800037FD65B1012D05D00FF2D80040F27C4149
:1012900000F02EFDDFF8B8000168214303E0DFF81D
:1012A000B0000168A143016031BD38B50446DFF8E4
:1012B000A4000D46044200D12CB940F2AD410FF21A
:1012C000A40000F015FD65B1012D05D00FF29400CA
:1012D00040F2AE4100F00CFDDFF87C0001682143D4
:1012E00003E0DFF874000168A143016031BD38B547
:1012F0000446DFF868000D46044200D12CB940F2E4
:10130000D5410FF2600000F0F3FC65B1012D05D06E
:101310000FF2500040F2D64100F0EAFCDFF8400046
:101320000168214303E0DFF838000168A143016050
:1013300031BD0000043802404C00474240787D0136
:101340000024F4000000002000EE8B8130380240C1
:1013500038380240003601C940380240CCA0F8FFBE
:1013600044380240433A5C546F6F6C735C574C399D
:10137000465C574C5F465F4D6F6E69746F725F4994
:1013800041505C4C69627261726965735C53544D83
:101390003332463478785F5374645065726970688C
:1013A0005F4472697665725C7372635C73746D33EB
:1013B00032663478785F7263632E63002DE9F843F8
:1013C00004460026DFF864040D4684421CBFDFF8A3
:1013D000600484421FD0DFF85C0484421CBFDFF845
:1013E0005804844217D0DFF8540484421CBFDFF84D
:1013F000500484420FD0DFF84C0484421FBFDFF852
:1014000048048442DFF84404844204D0BB210FF234
:10141000404000F06DFC286820B90FF23440BC2138
:1014200000F066FC2879002818BF012808D002289F
:1014300018BF032804D0BD210FF2144000F058FC5F
:10144000E87940B1012818BF022804D00FF200400B
:10145000BE2100F04DFC012000FA06F8286808EAD9
:101460000000404546D177000320B8406FEA0009EC
:10147000206809EA0000206020682979B940084303
:1014800020602879012818BF02282AD1687900280D
:1014900018BF012808D0022818BF032804D0D02183
:1014A0000FF2AC3000F024FCA06809EA0000A06054
:1014B000A0686979B9400843A060A879002818BFDE
:1014C000012804D0D7210FF2883000F011FC6068A9
:1014D00020EA080060606068A979B14089B20843D9
:1014E0006060E06809EA0000E060E068E979B9401E
:1014F0000843E060761C102EADD3BDE8F18370B5D3
:1015000004460026DFF824030D4684421CBFDFF8A2
:101510002003844220D0DFF81C0384421CBFDFF884
:101520001803844218D0DFF8140384421CBFDFF88C
:101530001003844210D0DFF80C0384421FBFDFF891
:1015400008038442DFF80403844205D04FF4987105
:101550000FF2FC2000F0CCFB012D18BF022D29D08A
:10156000042D18BF082D25D0102D18BF202D21D0F7
:10157000402D18BF802D1DD0B5F5807F18BFB5F563
:10158000007F17D0B5F5806F18BFB5F5006F11D08B
:10159000B5F5805F18BFB5F5005F0BD0B5F5804F8E
:1015A00018BFB5F5004F05D00FF2A42040F231115D
:1015B00000F09EFB2069284218BF0126304670BD0E
:1015C00038B5044699480D4684421CBF9848844269
:1015D00019D0984884421CBF9748844213D097483A
:1015E00084421CBF964884420DD0964884421FBF57
:1015F000954884429548844205D040F27F110FF20D
:10160000502000F075FB2DB90FF244204FF4C0714B
:1016100000F06EFB258331BD38B5044683480D4686
:1016200084421CBF8248844219D0824884421CBF35
:101630008148844213D0814884421CBF8048844240
:101640000DD0804884421FBF7F4884427F48844237
:1016500005D04FF4C9710FF2F81000F049FB2DB915
:101660000FF2EC1040F2931100F042FB658331BDA4
:1016700070B504466D480D46164684421CBF6C4842
:10168000844219D06B4884421CBF6B48844213D0FB
:101690006A4884421CBF6A4884420DD0694884422B
:1016A0001FBF694884426948844205D04FF4D37112
:1016B0000FF29C1000F01CFB012D18BF022D29D049
:1016C000042D18BF082D25D0102D18BF202D21D096
:1016D000402D18BF802D1DD0B5F5807F18BFB5F502
:1016E000007F17D0B5F5806F18BFB5F5006F11D02A
:1016F000B5F5805F18BFB5F5005F0BD0B5F5804F2D
:1017000018BFB5F5004F05D00FF2441040F2A711F5
:1017100000F0EEFA4EB1012E05D04FF4D4710FF265
:10172000301000F0E5FA258370BD658370BD70B59B
:1017300006463E480D46144686421CBF3C4886423B
:1017400019D03C4886421CBF3B48864213D03B48D8
:1017500086421CBF3A4886420DD03A4886421FBF97
:10176000394886423948864205D040F217210FF2A7
:10177000E00000F0BDFA002D18BF012D21D0022D90
:1017800018BF032D1DD0042D18BF052D19D0062D0F
:1017900018BF072D15D0082D18BF092D11D00A2DFF
:1017A00018BF0B2D0DD00C2D18BF0D2D09D00E2DEF
:1017B00018BF0F2D05D00FF298004FF4067100F0FE
:1017C00097FA002C18BF092C1ED0012C18BF022C30
:1017D0001AD0032C18BF042C16D0052C18BF062CC9
:1017E00012D0072C18BF082C0ED00A2C18BF0B2CB7
:1017F0000AD00C2C1CBF0D2C0F2C05D040F2192147
:101800000FF24C0000F074FAE80806EB800005F0D7
:1018100007018900026A0F238B409A43026204FA8F
:1018200001F1026A1143016270BD00000000024034
:101830000004024000080240000C02400010024078
:101840000014024000180240001C02400020024028
:10185000433A5C546F6F6C735C574C39465C574C21
:101860005F465F4D6F6E69746F725F4941505C4CAB
:1018700069627261726965735C53544D33324634E8
:1018800078785F5374645065726970685F447269F8
:101890007665725C7372635C73746D333266347830
:1018A000785F6770696F2E6300000000F0B5044632
:1018B000DFF84C72DFF8606285B00D46BC421CBF99
:1018C000DFF84002844213D0DFF83C0284421CBFA0
:1018D000DFF8380284420BD0DFF8340284421CBFA8
:1018E000DFF83002844203D0EB21304600F000FAEA
:1018F000286818B1DFF82412884203D3EC2130465F
:1019000000F0F6F9A888002818BFB0F5805F03D072
:10191000ED21304600F0ECF9E888002818BFB0F55A
:10192000805F09D0B0F5005F18BFB0F5405F03D00D
:10193000EE21304600F0DCF9288900281CBFB0F504
:10194000806FB0F5C06F03D0EF21304600F0D0F9C2
:1019500068894FF6F371084200D118B9F02130467A
:1019600000F0C6F9A889F8B1B0F5807F1CBFB0F5CA
:10197000007FB0F5407F05D0F121304600F0B8F986
:10198000A88988B1BC421CBFDFF8780184420BD023
:10199000DFF8740184421CBFDFF87801844203D071
:1019A000F621304600F0A4F9208A4CF6FF71084079
:1019B000E988084320824EF6F311A0890840A988DF
:1019C00008432989084369890843A0814FF6FF41EC
:1019D000A08A0840A9890843A08200A8FFF7DBFB82
:1019E000BC421BBFDFF82C0184420398029829688F
:1019F00019225043A28912044CBF49008900B0FB50
:101A0000F1F16420B1FBF0F000010209642303FB53
:101A10001211A289120406D5C9003231B1FBF3F1CB
:101A200001F0070105E009013231B1FBF3F101F0EA
:101A30000F010843208105B0F0BD38B50446DFF83A
:101A4000C0000D4684421CBFDFF8B800844215D0A8
:101A5000DFF8B40084421CBFDFF8B00084420DD030
:101A6000DFF8AC0084421CBFDFF8A800844205D038
:101A700040F29B110FF2581000F03AF95DB1012DC0
:101A800005D00FF24C104FF4CE7100F031F9A0895F
:101A900040F4005003E0A0894DF6FF710840A0819A
:101AA00031BD38B50446DFF858000D4684421CBFEE
:101AB000DFF85000844215D0DFF84C0084421CBF90
:101AC000DFF8480084420DD0DFF8440084421CBF98
:101AD000DFF84000844205D040F21D210FF2F000F3
:101AE00000F006F9B5F5007F05DB0FF2E40040F2E7
:101AF0001E2100F0FDF8E805C00DA08031BD0000FA
:101B0000001001400044004000480040004C0040EC
:101B10000050004000140140D01B0008E17072002A
:101B2000F8B504460026244F0D46BC421CBF23488E
:101B3000844211D0224884421CBF224884420BD0E8
:101B4000214884421CBF2148844205D040F2FC4118
:101B50000FF27C0000F0CCF8012D18BF802D24D0AE
:101B6000402D18BF202D20D0102D18BFB5F5807F37
:101B70001BD0B5F5007F07D0082D1CBF042D022D0A
:101B800013D040F2FD410CE0BC421CBF0B48844224
:101B90000BD00B4884421CBF0C48844205D040F255
:101BA00002510FF22C0000F0A3F82088284218BF41
:101BB00001263046F2BD0000001001400044004004
:101BC00000480040004C004000500040001401401C
:101BD000433A5C546F6F6C735C574C39465C574C9E
:101BE0005F465F4D6F6E69746F725F4941505C4C28
:101BF00069627261726965735C53544D3332463465
:101C000078785F5374645065726970685F44726974
:101C10007665725C7372635C73746D3332663478AC
:101C2000785F75736172742E6300000010B584B024
:101C300000F076F8FFF721F8FFF726F80020FFF70D
:101C40001BF900F0F8F9244CFF220621204600F091
:101C500013FA06224FF47C11204600F05AF9A178BD
:101C6000E078090441EA0060617840EA01202178C7
:101C70000843E0602179607941EA002020814FF437
:101C80007C1000F025F9E0681449884212D14FF425
:101C9000E130009000A900200190ADF80800ADF8F7
:101CA0000C000C20ADF80A00002000F013FA00F040
:101CB000DEFA10E00A480B4A01681140B1F1005FFA
:101CC00009D14168084A1160084A1160006880F330
:101CD000088808468047FEE748050020D4C3B2A123
:101CE000004000080000FE2F300400202C040020DB
:101CF000FEE710B450F8041B81B102681218001DF1
:101D000050F8043BDC0744BFA9F10104E31852F882
:101D1000044B43F8044B091FF9D1EBE710BC7047A3
:101D200080B500F0DBFEBDE80240F32000F0DCBF30
:101D300010B55B4800F066F8044600E00834592C02
:101D400007D20221204600F0D5FE0828F6D0012057
:101D500010BD002010BD2DE9F04104460E46154689
:101D60000027DFF8408103E02068001D20607F1C11
:101D7000AF423CBF2068404511D23168206800F076
:101D800015FF082808D1206856F8041B006888420F
:101D9000EAD00220BDE8F0810120BDE8F0810020FA
:101DA000BDE8F08110B53E4800F02CF8C40800F002
:101DB00098FF40F6FF71E040E140884201D10120E8
:101DC00010BD002010BD00B583B008200190022096
:101DD0000090334800F016F8019001200199C908DD
:101DE0008840C0F58050009000F011FF002100985D
:101DF00000F019FF00F06FFF082814BF0220012037
:101E000003B000BD0021A0F10062B2F5804F45D3C0
:101E100025490918B1F5804F38BF08213ED3234921
:101E20000918B1F5804F38BF102137D32049091860
:101E3000B1F5804F38BF182130D31E490918B1F5CC
:101E4000803F38BF202129D31B490918B1F5003F35
:101E500038BF282122D319490918B1F5003F38BFEE
:101E600030211BD316490918B1F5003F38BF38217E
:101E700014D314490918B1F5003F38BF40210DD3E0
:101E800011490918B1F5003F38BF482106D30F4961
:101E90000818B0F5003F34BF50215821084670475C
:101EA00000400008FCFF0F0800C0FFF70080FFF7AC
:101EB0000040FFF70000FFF70000FEF70000FCF70E
:101EC0000000FAF70000F8F70000F6F70000F4F75A
:101ED00038B5044600F08EF8DFF894510022102146
:101EE0002846FFF7C5FBD82000F05AF82002000E64
:101EF00000F056F82004000E00F052F8E0B200F0B6
:101F00004FF8012210212846FFF7B2FBBDE831400F
:101F10007BE02DE9F84380460F461646DFF85091E6
:101F2000002210214846FFF7A3FB032000F038F8F9
:101F30003802000E00F034F83804000E00F030F8DB
:101F4000F8B200F02DF83EB3012700240025761EDC
:101F5000002220214846FFF78BFBC5F1070007FA56
:101F600000F010F0A50014BF012200228021484695
:101F7000FFF77EFB012220214846FFF779FB402135
:101F80004846FFF7BCFA6D1C40EA4404082DDFDB2D
:101F900008F8014B002ED8D14846BDE8F84346E08A
:101FA0002DE9F0410446002500260127DFF8C08016
:101FB000002220214046FFF75BFBC6F1070007FA2D
:101FC00000F0044214BF0122002280214046FFF7A6
:101FD0004FFB012220214046FFF74AFB40214046AB
:101FE000FFF78DFA761C40EA4505082EE0DBE8B2E3
:101FF000BDE8F08110B51E4C002210212046FFF7ED
:1020000037FB0620FFF7CCFF0EE010B5184C00227E
:1020100010212046FFF72CFB0520FFF7C1FFA5206C
:10202000FFF7BEFFC007FAD42046BDE810400122EA
:102030001021FFF71DBB10B50D4C002210212046CA
:10204000FFF716FB012210212046FFF711FB094C78
:1020500001224FF400612046FFF70AFB2046BDE84D
:10206000104001224FF48061FFF702BB0000000026
:10207000000002400008024062F30F2262F31F4298
:1020800000B500BF130096469446103928BFA0E85B
:102090000C50FAD85FEA417C28BF0CC048BF40F81A
:1020A000042BC90728BF20F8022B48BF00F8012BDA
:1020B00000BD50F8041B61B150F8042BD30744BF96
:1020C000A9F101039A18002342F8043B091FFAD131
:1020D000EFE77047F0B506460FF2BC000FF2BC0206
:1020E00083B0354650F8250052F825200C460121D2
:1020F0001043FFF797F81EB901211020FFF7D5F81C
:102100000FF2AC00DFF88C6030F815200FF2980069
:1021100030F8151006EB8507D2B27868FFF707FB99
:102120000FF2900030F815200FF2800030F81510F3
:10213000B868D2B2FFF7FBFA00208DF8060000A9BC
:1021400001208DF8070002208DF804000FF25000E6
:1021500030F81500009002208DF805007868FFF730
:102160002DF902208DF8040000A90FF2380030F894
:1021700015000090B868FFF721F956F825002146B0
:10218000FFF794FB56F825000121FFF756FC03B03A
:10219000F0BD000020000020010000000100000050
:1021A0000002000000040000090000000A00000016
:1021B000070000000700000030B583B000A80FF250
:1021C00018210A2200F01EFE0FF21820FEF79EFFD3
:1021D00000F0D9FF0446012C32DB0FF24420FEF759
:1021E00095FF0FF26420FEF791FF794D05F10C0089
:1021F000FEF78CFF214600A8FEF748FF0FF2802073
:10220000FEF784FF00A8FEF781FF0FF28820FEF79B
:102210007DFF0FF28C20FEF779FF0FF2A820FEF76A
:1022200075FF0FF2A820FEF771FF6A4841686960E8
:102230002960006880F308880846804703B030BDF5
:1022400014F1010F08BF0FF2A8200CD014F1020FF7
:1022500008BF0FF2DC2006D014F1030F0CBF0FF201
:10226000EC200FF20030FEF751FF03B030BD38B55F
:102270000FF290342046FEF749FF0FF2C83528468A
:10228000FEF744FF0FF2FC30FEF740FF2846FEF752
:102290003DFF0FF23040FEF739FF2846FEF736FFCC
:1022A0000FF26040FEF732FF0FF29840FEF72EFF6C
:1022B0000FF2D040FEF72AFF2846FEF727FF0FF265
:1022C0000450FEF723FF2046FEF720FF3FA0FEF755
:1022D0001DFF3F4CFFF766FD401E8041C00FA06010
:1022E00001E0FFF769FFFFF767FF0FF21850FEF7F5
:1022F0000DFFA06818B10FF24C50FEF707FF0FF268
:102300008450FEF703FF0FF2BC50FEF7FFFE0FF202
:10231000F450FEF7FBFE0FF22C60FEF7F7FE0FF213
:102320006460FEF7F3FEFEF7D9FE3128D9D03228DB
:1023300017D10FF25020FEF7E9FEFEF7CFFE43283B
:10234000D1D14FF47C220FF25821224800F015FE23
:1023500000280CBF0FF28C200FF25C20FEF7D6FE97
:10236000C1E7332809D11B484168616021600068DA
:1023700080F3088808468047B5E7342808D10FF273
:102380004460FEF7C3FEFDF718FF0FF25C60E5E75F
:10239000302804BFA06801280FD1FFF714FD0128E1
:1023A00002D0022806D09EE70FF26060FEF7AEFE74
:1023B000002094E70FF27460D0E7A068002814BFF3
:1023C0000FF2D4600FF29060C8E700000D0A000021
:1023D0002C04002000400008202020202020202065
:1023E0002020000057616974696E6720666F722053
:1023F0007468652066696C6520746F20626520735F
:10240000656E74202E2E2E2028707265737320271F
:10241000612720746F2061626F7274290A0D0000B9
:102420000A0A0D2050726F6772616D6D696E6720C8
:10243000436F6D706C657465642053756363657379
:102440007366756C6C7921000A0D2D2D2D2D2D2DA7
:102450002D2D2D2D2D2D2D2D2D2D2D2D2D2D2D2DAC
:102460002D2D2D2D2D2D2D2D2D2D0D0A2053656E4D
:10247000642046696C65204E616D653A200000005D
:102480000A0D2053656E642046696C652053697A95
:10249000653A20002042797465730D0A000000003F
:1024A0002D2D2D2D2D2D2D2D2D2D2D2D2D2D2D2D5C
:1024B0002D2D2D2D2D2D2D2D2D2D2D2D2D2D2D2D4C
:1024C0000A0000000D0A0D0A000000004170706C47
:1024D00069636174696F6E2050726F6772616D20FD
:1024E00052756E6E696E672E2E2E2E2E0D0A00000E
:1024F0000A0A0D54686520696D6167652073697A01
:102500006520697320686967686572207468616E08
:102510002074686520616C6C6F77656420737061EE
:102520006365206D656D6F7279210A0D00000000F2
:102530000A0A0D566572696669636174696F6E2077
:102540006661696C6564210A0D0000000D0A0A418C
:10255000626F7274656420627920757365722E0AE9
:102560000D0000000A0D4661696C656420746F20DF
:1025700072656365697665207468652066696C6557
:10258000210A0D000A0A0D53656C656374205265BB
:1025900063656976652046696C650A0D0000000078
:1025A00055706C6F61646564466C617368496D61F8
:1025B00067652E62696E00000A0D4572726F7220A7
:1025C0004F63637572726564207768696C65205427
:1025D00072616E736D697474696E672046696C65AB
:1025E0000A0D00000A0D46696C652075706C6F61FC
:1025F000646564207375636365737366756C6C7969
:10260000200A0D000D0A3D3D3D3D3D3D3D3D3D3D1A
:102610003D3D3D3D3D3D3D3D3D3D3D3D3D3D3D3DEA
:102620003D3D3D3D3D3D3D3D3D3D3D3D3D3D3D3DDA
:102630003D3D3D3D3D3D3D3D3D3D3D3D3D3D3D3DCA
:10264000000000000D0A3D20202020202020202016
:10265000202020202020202020202020202020207A
:10266000202020202020202020202020202020206A
:102670002020202020202020202020202020203D3D
:10268000000000000D0A3D202020202020202020D6
:10269000202020205461654861204D656368617485
:1026A000726F6E69637320436F2E2C204C74642EFE
:1026B0002020202020202020202020202020203DFD
:1026C000000000000D0A3D20496E2D4170706C69BC
:1026D000636174696F6E2050726F6772616D6D69AE
:1026E0006E67204170706C69636174696F6E202041
:1026F0002020202020202020202020202020203DBD
:10270000000000000D0A3D2050726F6A656374205E
:1027100020202020203A20574C39462044697370ED
:102720006C617920284D6F6E69746F72202620438A
:102730006C75737465722920202020202020203D94
:10274000000000000D0A3D20456E7669726F6E6DC7
:10275000656E7420203A20455741524D2076362E22
:10276000352C204C6962726172792076312E302EC0
:102770003020202020202020202020202020203D2C
:10278000000000000D0A3D202020202020202020D5
:102790002020202020202053544D33324634787896
:1027A000205374616E646172642050657269706850
:1027B0006572616C73204C69627261727920203D90
:1027C000000000000D0A3D2042792045435320447B
:1027D00069762E206B7574656C6620202020202081
:1027E00020202020202020202020202020202020E9
:1027F0002020202020202020202020202020203DBC
:10280000000000000D0A3D3D3D3D3D3D3D3D3D3D4F
:102810003D3D3D3D3D3D3D3D3D3D204D61696E2091
:102820004D656E75203D3D3D3D3D3D3D3D3D3D3D54
:102830003D3D3D3D3D3D3D3D3D3D3D3D3D3D3D3DC8
:102840000D0A0A00202044697361626C6520746877
:10285000652077726974652070726F74656374693E
:102860006F6E202853544D33324634303720496E32
:102870007465726E616C20466C6173682920300D3E
:102880000A0A00002020446F776E6C6F616420415B
:1028900070706C69636174696F6E20746F20746806
:1028A000652053544D33324634303720496E7465B9
:1028B000726E616C20466C617368202D2D20310D85
:1028C0000A0A0000202055706C6F616420202041AE
:1028D00070706C69636174696F6E2066726F6D20D1
:1028E000202053544D33324634303720496E7465BE
:1028F000726E616C20466C617368202D2D20320D44
:102900000A0A0000202045786563757465205468C4
:1029100065204E65772050726F6772616D202D2D96
:102920002D2D2D2D2D2D2D2D2D2D2D2D2D2D2D2DD7
:102930002D2D2D2D2D2D2D2D2D2D2D2D2D20330DEE
:102940000A0A00002020454550524F4D20496E692B
:102950007469616C697A6174696F6E202D2D2D2DFB
:102960002D2D2D2D2D2D2D2D2D2D2D2D2D2D2D2D97
:102970002D2D2D2D2D2D2D2D2D2D2D2D2D20340DAD
:102980000A0A00003D3D3D3D3D3D3D3D3D3D3D3D57
:102990003D3D3D3D3D3D3D3D3D3D3D3D3D3D3D3D67
:1029A0003D3D3D3D3D3D3D3D3D3D3D3D3D3D3D3D57
:1029B0003D3D3D3D3D3D3D3D3D3D3D3D3D3D0D0AAA
:1029C0000A000000454550524F4D20496E69746918
:1029D000616C697A6528436C656172292053746162
:1029E00072742E2E2E0A0D00454550524F4D20492F
:1029F0006E697469616C697A6528436C65617229D6
:102A000020456E642E2E2E0A0D0000005772697448
:102A1000652050726F74656374696F6E20646973AA
:102A200061626C65642E2E2E0D0A00004572726F75
:102A3000723A20466C6173682077726974652075FC
:102A40006E70726F74656374696F6E206661696C15
:102A500065642E2E2E0D0A00496E76616C69642025
:102A60004E756D6265722021203D3D3E20546865A3
:102A7000206E756D6265722073686F756C6420627C
:102A8000652065697468657220312C20322C2033F2
:102A9000206F7220340D0000496E76616C696420ED
:102AA0004E756D6265722021203D3D3E2054686563
:102AB000206E756D6265722073686F756C6420623C
:102AC000652065697468657220302C20312C2032B5
:102AD0002C2033206F7220340D000000DFF89C02A0
:102AE000C168002905D5DFF898120160DFF894125B
:102AF0000160704770B5044600260D46002C18BFD3
:102B0000082C19D0102C18BF182C15D0202C18BF49
:102B1000282C11D0302C18BF382C0DD0402C18BFC9
:102B2000482C09D0502C18BF582C05D040F25B110E
:102B30000FF27420FFF7DCF86DB1012D30D0022DBB
:102B400031D0032D05D00FF260204FF4AE71FFF7A6
:102B5000CFF84FF4407600F0D6F808281FD1DFF800
:102B60002852286820F44070286044F00201286848
:102B700030432860286820F0F8002860286808435F
:102B80002860286840F48030286000F0BCF829688C
:102B900021F002012960296821F0F801296070BD47
:102BA0004FF48076D7E74FF40076D4E770B504464B
:102BB0000D46A4F10060DFF8D411884221BF04F172
:102BC000604000F5084040F20F21884205D34FF4E1
:102BD000FB710FF2D410FFF78BF800F094F808287F
:102BE00014D1DFF8A461306820F4407030603068A0
:102BF00040F400703060306840F0010030602560C3
:102C000000F081F8316849084900316070BDDFF893
:102C10008401C168C90705D5DFF87C110160DFF8C0
:102C20007C110160704738B50446200B0D46000347
:102C300000D12CB940F2B6210FF26C10FFF758F812
:102C4000002D18BF012D05D00FF25C1040F2B72106
:102C5000FFF74EF808208DF800000821DFF830015A
:102C60000268D20348BF012113D40268D20648BFCC
:102C700005210ED4026812F0EF0F18BF062108D10B
:102C80000268920705D5072103E00268920748BF52
:102C900007218DF800109DF80010012910D102685D
:102CA0000821D20348BF0121F3D40268D20648BFED
:102CB0000521EED4026812F0EF0FE6D00621E8E716
:102CC0009DF80010082905D14189002D14BFA143AA
:102CD0002143418131BD3248017841F00201017048
:102CE00011E030480088704710B5044634F0F30016
:102CF00000D12CB940F2C7310FF2AC00FEF7F8FF5B
:102D00002348046010BD81B008208DF80000082120
:102D10001F480268D20348BF012113D40268D206BB
:102D200048BF05210ED4026812F0EF0F18BF06212C
:102D300008D10268920705D5072103E002689207CF
:102D400048BF07218DF800109DF80010012910D10F
:102D500002680821D20348BF0121F3D40268D206D9
:102D600048BF0521EED4026812F0EF0FE6D006212D
:102D7000E8E79DF8000001B070470000043C024005
:102D800023016745AB89EFCD103C0240FFFF0F00E8
:102D90000C3C0240083C02403B2A19087F6E5D4C07
:102DA000143C0240163C0240433A5C546F6F6C7313
:102DB0005C574C39465C574C5F465F4D6F6E69748B
:102DC0006F725F4941505C4C6962726172696573F0
:102DD0005C53544D3332463478785F537464506595
:102DE000726970685F4472697665725C7372635C65
:102DF00073746D3332663478785F666C6173682EF5
:102E000063000000103A07D330B4B1E83810103A2C
:102E1000A0E83810F9D230BC530724BFB1E808103D
:102E2000A0E8081044BF51F8043B40F8043BD20727
:102E300024BF31F8022B20F8022B44BF0B7803701B
:102E40007047083A07D3B1E80810083A40F8043B45
:102E500040F804CBF7D25307E4E7000030B504464E
:102E600083B001202070002500206070FF20A0703A
:102E700004F2030005E011F8013B00F8013B6D1C72
:102E8000ADB20B780BB1FF2DF5DD28190021C17013
:102E900000A81168FEF7FAF8281D80B200A904E026
:102EA00011F8012B0255401C80B20A78002AF7D194
:102EB000832804DAC0F18301001900F095F903B00A
:102EC00030BD78B40C46B3F5806F04D34FF4806303
:102ED0001946022505E08021802B2CBF80239BB260
:102EE000012525706270D243A270DA1C042A08DB27
:102EF00004F203021D4610F8016B02F8016B6D1E0F
:102F0000F9D199420ADBDB1C9BB2CA1CD11A93424D
:102F100004DA181978BC1A2200F06AB971BC70473B
:102F200041F4807141F2210240004900CB0548BFC5
:102F3000401CC30348BF5040CB03F5D580B2704757
:102F400038B5044600200D1903E014F8011BFFF703
:102F5000E7FFAC42F9D30021FFF7E2FFBDE83440C0
:102F60000021DDE738B504460D0005D014F8010B4B
:102F7000FEF7BFF86D1EF9D131BD2DE9F44FADF567
:102F8000A26D06460025002001AA11F8013B02F8B7
:102F9000013BC01C11F8013B02F8013BFF2811F86E
:102FA000013B02F8013BF0D10DF5A26201A941A855
:102FB000FFF754FF42F21078832141A8FFF7D2FFB8
:102FC00041A88021C01CFFF7BBFF0746000AFEF79F
:102FD00090F8F8B2FEF78DF8474600A8FEF772F8B1
:102FE0007F1E012807D0002FF7D16D1C0A2DE3D3D7
:102FF0000A2D05D3C0E09DF800000628F6D1F7E7BA
:10300000DDF810750124002F4FD03B46E2B241A9F4
:103010003046FFF756FF00208DF800000025B7F579
:10302000806F2CBF4FF480694FF0800909F10300D5
:103030000DF5827A1FFA80FB1AF8010BFEF759F89A
:10304000BBF1010BF8D141A84946C01CFFF778FF3E
:103050008246000AFEF74DF85FFA8AF0FEF749F85B
:10306000DFF874A100A8FEF72DF8AAF1010A0128E3
:1030700008D0BAF1000FF5D16D1C0A2DCFD30A2D5F
:10308000C1D379E09DF800000628F5D14E44B9453A
:1030900009D2A0B2A7EB0907B0F57C7F18BF441C8A
:1030A000EDD1FF206BE00027E9E700208DF800005C
:1030B00000250420FEF71DF8464600A8FEF702F89A
:1030C000761E012802D0002EF7D103E09DF8000003
:1030D000062802D06D1C0A2DEBD30A2D4CD20120FC
:1030E0008DF804010026FF208DF80601002541A877
:1030F0008DF800608DF805518021C01C00F074F837
:10310000832141A8FFF72EFF41A88021C01CFFF7B3
:1031100017FF0746000AFDF7ECFFF8B2FDF7E9FFDD
:10312000474600A8FDF7CEFF7F1E012807D0002FDD
:10313000F7D16D1C0A2DE3D30A2D06D31CE09DF8B0
:1031400000000628F6D10126F6E70420FDF7D1FF9E
:10315000474600A8FDF7B6FF7F1E012802D0002FCA
:10316000F7D103E09DF80000062803D06D1C0EB9CE
:103170000A2DEAD30A2D01D3E8B200E000200DF2B7
:10318000145DBDE8F08FF0B583B01248FEF7D0FDB6
:10319000124D134E134F002413E0A00200F58030AF
:1031A00070604FF4806271682846FEF7B2FE3560A9
:1031B0004FF48072294606F10C00FEF7CCFDB0609A
:1031C000641C3988E4B2491C8C42E6DB012003B060
:1031D000F0BD000000400008A08601002C00002087
:1031E0001000002050050020002200F005B800006B
:1031F00062F30F2262F31F42401810F0030308D05D
:10320000C91A1FD3DB0748BF00F8012D28BF20F8DB
:10321000022D130030B414461546103928BF20E99A
:103220003C00FAD8490728BF20E90C0048BF40F805
:10323000042D890028BF20F8022D48BF00F8012D79
:1032400030BC7047C91818BF00F8012DCB0728BF44
:1032500000F8012D704700003348344A82B00168FD
:1032600041F4700101603248016841F001010160E0
:10327000002181600168114001602E4941600168B0
:1032800021F4802101600021C16001910091016859
:1032900041F480310160016801F40031009101992D
:1032A000491C0191009919B90199B1F5A06FF2D1AA
:1032B0000168490C01F001010091009901292CD10C
:1032C000016C41F0805101641B490A6842F480425C
:1032D0000A6081688160816841F400418160816891
:1032E00041F4A051816015494160016841F080714D
:1032F000016001688901FCD540F2056210490A604D
:103300008168890889008160816841F002018160DB
:10331000816801F00C010829FAD14FF000610948D9
:10332000016002B07047000088ED00E0FFFFF6FE8C
:10333000003802401030002400700040195440074B
:10334000003C024008ED00E010B50749794418310F
:10335000064C7C44163404E00A68081D511888475E
:103360000146A142F8D110BD08000000280000006D
:1033700043EDFFFF380500002C0000200000000096
:1033800073E9FFFF2C000000040200000000002091
:10339000000000004EF68851CEF20001086840F4AB
:1033A000700008604FF00070E1EE100A70470000F6
:1033B00000F009F8002801D0FFF7C6FF0020FEF753
:1033C00035FC00F002F80120704700F001B8000061
:1033D0000746384600F002F8FBE7000080B5C0461B
:1033E000C046024A11001820ABBEFBE726000200CF
:1033F0007047FEE7FEE7FEE7FEE77047704770475D
:10340000FDF79ABE0148804701480047593200083D
:1034100015340008C046C046FFF7BCFFFFF7C8FFE1
:10342000FFF7E6BFFFF7E5BFFFF7E4BFFFF7E3BF36
:10343000FFF7E2BFFFF7E1BFFFF7E0BFFFF7DFBF36
:10344000FFF7DEBFFFF7FEBFFFF7FEBFFFF7FEBFD0
:10345000FFF7FEBFFFF7FEBFFFF7FEBFFFF7FEBFA0
:10346000FFF7FEBFFFF7FEBFFFF7FEBFFFF7FEBF90
:10347000FFF7FEBFFFF7FEBFFFF7FEBFFFF7FEBF80
:10348000FFF7FEBFFFF7FEBFFFF7FEBFFFF7FEBF70
:10349000FFF7FEBFFFF7FEBFFFF7FEBFFFF7FEBF60
:1034A000FFF7FEBFFFF7FEBFFFF7FEBFFFF7FEBF50
:1034B000FFF7FEBFFFF7FEBFFFF7FEBFFFF7FEBF40
:1034C000FFF7FEBFFFF7FEBFFFF7FEBFFFF7FEBF30
:1034D000FFF7FEBFFFF7FEBFFFF7FEBFFFF7FEBF20
:1034E000FFF7FEBFFFF7FEBFFFF7FEBFFFF7FEBF10
:1034F000FFF7FEBFFFF7FEBFFFF7FEBFFFF7FEBF00
:10350000FFF7FEBFFFF7FEBFFFF7FEBFFFF7FEBFEF
:10351000FFF7FEBFFFF7FEBFFFF7FEBFFFF7FEBFDF
:10352000FFF7FEBFFFF7FEBFFFF7FEBFFFF7FEBFCF
:10353000FFF7FEBFFFF7FEBFFFF7FEBFFFF7FEBFBF
:10354000FFF7FEBFFFF7FEBFFFF7FEBFFFF7FEBFAF
:10355000FFF7FEBFFFF7FEBFFFF7FEBFFFF7FEBF9F
:10356000FFF7FEBFFFF7FEBFFFF7FEBFFFF7FEBF8F
:10357000FFF7FEBFFFF7FEBFFFF7FEBFFFF7FEBF7F
:10358000FFF7FEBFFFF7FEBFFFF7FEBF0000000022
:1035900001020304010203040607080900000000F9
:1035A0000000000000000000004000080010014082
:0835B00000000240000002408F
:0400000508003415A6
:00000001FF
